:020000022000DC
:1060000000000420759D0200897F0200A594020013
:10601000897F0200897F0200897F02000000000062
:10602000000000000000000000000000897F020066
:10603000897F020000000000897F0200897F020042
:10604000219C0200897F020001A10200C99D02007B
:10605000D99D0200897F0200D1920200897F02004F
:10606000897F0200E1A00200F1A00200459D02002C
:10607000897F0200897F0200897F0200897F0200F8
:1060800029A10200559D0200897F0200897F02003C
:10609000897F0200897F0200419E0200897F020001
:1060A000897F0200897F0200897F0200897F0200C8
:1060B000897F0200897F02000000000000000000CC
:1060C000897F0200897F0200897F0200E99D02002A
:1060D000659D0200897F0200897F020021A10200E4
:1060E00011A10200219D0200897F0200159E02007D
:0860F00000000000897F02009E
:10700000A0E8F00FA0EC108A6846704781F00041BC
:1070100002E000BF83F0004330B54FEA41044FEA7D
:10702000430594EA050F08BF90EA020F1FBF54EA18
:10703000000C55EA020C7FEA645C7FEA655C00F0B4
:10704000E2804FEA5454D4EB5555B8BF6D420CDD85
:107050002C4480EA020281EA030382EA000083EA08
:10706000010180EA020281EA0303362D88BF30BDA8
:1070700011F0004F4FEA01314FF4801C4CEA1131FE
:1070800002D0404261EB410113F0004F4FEA03335D
:107090004CEA133302D0524263EB430394EA050FE8
:1070A00000F0A780A4F10104D5F1200E0DDB02FA57
:1070B0000EFC22FA05F2801841F1000103FA0EF2EB
:1070C000801843FA05F359410EE0A5F120050EF1B1
:1070D000200E012A03FA0EFC28BF4CF0020C43FAE2
:1070E00005F3C01851EBE37101F0004507D54FF0EF
:1070F000000EDCF1000C7EEB00006EEB0101B1F53F
:10710000801F1BD3B1F5001F0CD349085FEA300084
:107110004FEA3C0C04F101044FEA445212F5800F8F
:1071200080F09A80BCF1004F08BF5FEA500C50F12C
:10713000000041EB045141EA050130BD5FEA4C0C0F
:10714000404141EB0101013C28BFB1F5801FE9D26C
:1071500091F0000F04BF01460020B1FA81F308BF8F
:107160002033A3F10B03B3F120020CDA0C3208DD5B
:1071700002F1140CC2F10C0201FA0CF021FA02F136
:107180000CE002F11402D8BFC2F1200C01FA02F1A6
:1071900020FA0CFCDCBF41EA0C019040E41AA2BFCB
:1071A00001EB0451294330BD6FEA04041F3C1CDA93
:1071B0000C340EDC04F11404C4F1200220FA04F0B3
:1071C00001FA02F340EA030021FA04F345EA03015D
:1071D00030BDC4F10C04C4F1200220FA02F001FA1F
:1071E00004F340EA0300294630BD21FA04F02946A1
:1071F00030BD94F0000F83F4801306BF81F480113A
:107200000134013D4EE77FEA645C18BF7FEA655CAC
:1072100029D094EA050F08BF90EA020F05D054EA7E
:10722000000C04BF1946104630BD91EA030F1EBF83
:107230000021002030BD5FEA545C05D14000494187
:1072400028BF41F0004130BD14F580043CBF01F57A
:10725000801130BD01F0004545F0FE4141F4700160
:107260004FF0000030BD7FEA645C1ABF194610463B
:107270007FEA655C1CBF0B46024650EA013406BF3C
:1072800052EA033591EA030F41F4002130BD00BFFB
:1072900090F0000F04BF0021704730B54FF48064B8
:1072A00004F132044FF000054FF0000150E700BF39
:1072B00090F0000F04BF0021704730B54FF4806498
:1072C00004F1320410F0004548BF40424FF0000185
:1072D0003EE700BF42004FEAE2014FEA31014FEAC8
:1072E00002701FBF12F07F4393F07F4F81F0605117
:1072F000704732F07F4208BF704793F07F4F04BF62
:1073000041F40021704730B54FF4607401F000453E
:1073100021F000411CE700BF50EA010208BF70479E
:1073200030B54FF000050AE050EA010208BF70478F
:1073300030B511F0004502D5404261EB41014FF4F8
:10734000806404F132045FEA915C3FF4D8AE4FF000
:1073500003025FEADC0C18BF03325FEADC0C18BFE3
:10736000033202EBDC02C2F1200300FA03FC20FA34
:1073700002F001FA03FE40EA0E0021FA02F1144481
:10738000BDE600BF4FEA4102B2F1E04324BFB3F5CE
:10739000001CDCF1FE5C0DD901F0004C4FEAC0028C
:1073A0004CEA5070B2F1004F40EB830008BF20F070
:1073B0000100704711F0804F21D113F13872BCBF2A
:1073C00001F00040704741F480114FEA5252C2F17F
:1073D0001802C2F1200C10FA0CF320FA02F018BFC8
:1073E00040F001004FEAC1234FEAD32303FA0CFC1B
:1073F00040EA0C0023FA02F34FEA4303CCE77FEAAA
:10740000625307D150EA01331EBF4FF0FE4040F4F3
:107410004000704701F0004040F0FE4040F40000A2
:10742000704700BF80F0004002E000BF81F00041E3
:1074300042001FBF5FEA410392EA030F7FEA226C1A
:107440007FEA236C6AD04FEA1262D2EB1363C1BFAA
:10745000D218414048404140B8BF5B42192B88BF19
:10746000704710F0004F40F4000020F07F4018BF3C
:10747000404211F0004F41F4000121F07F4118BF5C
:10748000494292EA030F3FD0A2F1010241FA03FC04
:1074900010EB0C00C3F1200301FA03F100F00043EC
:1074A00002D5494260EB4000B0F5000F13D3B0F1B4
:1074B000807F06D340084FEA310102F10102FE2A23
:1074C00051D2B1F1004F40EBC25008BF20F0010093
:1074D00040EA03007047490040EB0000013A28BF32
:1074E000B0F5000FEDD2B0FA80FCACF1080CB2EBB5
:1074F0000C0200FA0CF0AABF00EBC2505242184333
:10750000BCBFD0401843704792F0000F81F40001D7
:1075100006BF80F400000132013BB5E74FEA4103AA
:107520007FEA226C18BF7FEA236C21D092EA030F16
:1075300004D092F0000F08BF0846704790EA010F90
:107540001CBF0020704712F07F4F04D1400028BFBD
:1075500040F00040704712F100723CBF00F500009F
:10756000704700F0004343F0FE4040F400007047D5
:107570007FEA226216BF08467FEA23630146420281
:1075800006BF5FEA412390EA010F40F48000704794
:107590004FF0000304E000BF10F0004348BF40423A
:1075A0005FEA000C08BF704743F0964301464FF076
:1075B00000001CE050EA010208BF70474FF00003D2
:1075C0000AE000BF50EA010208BF704711F0004313
:1075D00002D5404261EB41015FEA010C02BF8446E3
:1075E0000146002043F0B64308BFA3F18053A3F542
:1075F0000003BCFA8CF2083AA3EBC25310DB01FA89
:1076000002FC634400FA02FCC2F12002BCF1004F0C
:1076100020FA02F243EB020008BF20F0010070479D
:1076200002F1200201FA02FCC2F1200250EA4C00F1
:1076300021FA02F243EB020008BF20EADC70704737
:107640007BB972B90029BEBF00204FF0004106E0AF
:1076500008BF00281CBF6FF000414FF0FF3000F062
:1076600081B9ADF1080C6DE904CE002909DB002BCE
:107670001ADB77F03BFBDDF804E0DDE9022304B020
:107680007047404261EB4101002B1BDB77F02EFB82
:10769000DDF804E0DDE9022304B0404261EB410182
:1076A000524263EB43037047524263EB430377F06C
:1076B0001DFBDDF804E0DDE9022304B0404261EB8C
:1076C00041017047524263EB430377F00FFBDDF853
:1076D00004E0DDE9022304B0524263EB4303704748
:1076E00053B94AB9002908BF00281CBF4FF0FF3129
:1076F0004FF0FF3000F036B9ADF1080C6DE904CE63
:1077000077F0F4FADDF804E0DDE9022304B0704715
:1077100070B54FF0FF0C4CF4E06C1CEA11541DBF27
:107720001CEA135594EA0C0F95EA0C0F00F0DEF8F2
:107730002C4481EA030621EA4C5123EA4C5350EAD7
:10774000013518BF52EA033541F4801143F4801328
:1077500038D0A0FB02CE4FF00005E1FB02E506F0B9
:107760000042E0FB03E54FF00006E1FB03569CF00E
:10777000000F18BF4EF0010EA4F1FF04B6F5007F14
:1077800064F5407404D25FEA4E0E6D4146EB060686
:1077900042EAC62141EA55514FEAC52040EA5E500F
:1077A0004FEACE2EB4F1FD0C88BFBCF5E06F1ED8B9
:1077B000BEF1004F08BF5FEA500E50F1000041EBF0
:1077C000045170BD06F0004646EA010140EA02009D
:1077D00081EA0301B4EB5C04C2BFD4EB0C0541EABF
:1077E000045170BD41F480114FF0000E013C00F3D4
:1077F000AB8014F1360FDEBF002001F0004170BDF8
:10780000C4F10004203C35DA0C341BDC04F1140410
:10781000C4F1200500FA05F320FA04F001FA05F29C
:1078200040EA020001F0004221F0004110EBD37069
:1078300021FA04F642EB06015EEA430E08BF20EA95
:10784000D37070BDC4F10C04C4F1200500FA04F338
:1078500020FA05F001FA04F240EA020001F00041CA
:1078600010EBD37041F100015EEA430E08BF20EA3D
:10787000D37070BDC4F1200500FA05F24EEA020E85
:1078800020FA04F301FA05F243EA020321FA04F0B4
:1078900001F0004121FA04F220EA020000EBD3706B
:1078A0005EEA430E08BF20EAD37070BD94F0000F6B
:1078B0000FD101F00046400041EB010111F4801F9F
:1078C00008BF013CF7D041EA060195F0000F18BF50
:1078D000704703F00046520043EB030313F4801F8C
:1078E00008BF013DF7D043EA0603704794EA0C0F46
:1078F0000CEA135518BF95EA0C0F0CD050EA41065C
:1079000018BF52EA4306D1D181EA030101F00041D8
:107910004FF0000070BD50EA410606BF1046194600
:1079200052EA430619D094EA0C0F02D150EA01360C
:1079300013D195EA0C0F05D152EA03361CBF10464D
:1079400019460AD181EA030101F0004141F0FE41EC
:1079500041F470014FF0000070BD41F0FE4141F470
:10796000780170BD704700BF4A0011D212F50012B5
:1079700011D20DD56FF47873B3EB62520ED44FEA87
:10798000C12343F0004343EA505323FA02F0704707
:107990004FF00000704750EA013002D14FF0FF3045
:1079A00070474FF0000070479FED177BF8B5184CFB
:1079B00084ED007B19B30023164E101F9C461D4614
:1079C00002E0013399420DD050F8042F9707F8D107
:1079D0001768B742F5D19DB90133994294464FF0EB
:1079E0000105F1D15DB19CED017ADFED0B7A67EE17
:1079F000277A17EE900A77F041F9C4E90001F8BD43
:107A000006486EF075FF00BF000000000000000097
:107A100048110120D40E0B0000007A441CD30A0048
:107A200010B59FED0D7B88B0092301680290039388
:107A30006A46002302A80A248DED007BCDE90442AA
:107A40008DF818303FF0F2FC0098003818BF012084
:107A500008B010BDAFF3008000000000000000007F
:107A600000B59FED097B83B0694608228DED007B50
:107A70005DF062FFDDE9001009BA00BA03B05DF8FD
:107A800004FB00BFAFF30080000000000000000016
:107A900030B5144685B019A3D3E90023FFF720FEC3
:107AA0000546A0F16150A0F5351001A9A0F5607060
:107AB0006AF088FF9DF807309DF806200E491B04E8
:107AC00043EA42539DF8082043EAC2239DF8092067
:107AD00043EA42139DF80A2043EA5203BDF804200A
:107AE00025F00105A2F2BC72A5FB010143EA426345
:107AF000236005B030BD00BF00CA9A3B00CA9A3B64
:107B000000000000CAB32DE9F0436FF00E0885B005
:107B10000646174601F10F04A8EB010800F1EF0932
:107B200000F1F00554F80F0C54F80B1C54F8072C16
:107B300054F8033CEC46ACE80F003146A4F10F00CA
:107B400001F0B4FCA4F110034A4613F8011F12F827
:107B5000010FA34281EA00011970F6D1EC46BCE89E
:107B60000F00103408EB040C674528606960AA60B8
:107B7000EB60D7D805B0BDE8F08370472DE9F84336
:107B8000044600F1F0077AB36FF00E06154601F1D6
:107B90000F08761AB946CC46A8F11003A8F10F09D0
:107BA0000CF1FF3C13F8011F1CF8012F434581EA3B
:107BB00002011970F6D12146484608F1100800F07C
:107BC00023F906EB08039D42E5D8D9F80000D9F85F
:107BD0000410D9F80820D9F80C30C4F8F000796006
:107BE000BA60FB60BDE8F883B946EEE7002A41D0F1
:107BF00070B54C1E84B00646A5181023102B0ED06D
:107C00000DEB030114F8012F91F800C0AC4282EA99
:107C10000C0203F101032270F0D104B070BDD6F85C
:107C2000F000D6F8F410D6F8F820D6F8FC30EC4680
:107C3000ACE80F003146684600F0E6F80F2206F582
:107C4000807111F8013DFF2B0ED03244013382F8D0
:107C5000F03014F8013F9DF80020AC4283EA0203A3
:107C60002370DAD00123CBE70023013A0B70531CB9
:107C7000E7D1EEE7704700BF03460846194601F01A
:107C800015BC00BF03460846194600F0BDB800BF4A
:107C9000182A2DE9F04FC0F800217DD0202A75D098
:107CA000102A7DD1834640F20A43A0F8043184466D
:107CB00000240B788CF800304B788CF801308B78EE
:107CC0008CF80230CB788CF8033090F80531013411
:107CD0009C421A4601F104010CF1040CE9D390F81E
:107CE00004110131B3EB810F54D20BEB82012F4F02
:107CF00011F8015C11F8024C11F803EC11F804CCF6
:107D0000DFF8AC802DE017F80EA018F8099017F8EE
:107D100004E07C5D17F80C508AEA090CD31A0BEBCF
:107D200083091BF823308CEA030C81F800C099F812
:107D3000013004318EEA030E01F803EC99F80230A9
:107D40005C4001F8024C99F803305D4001F8015C99
:107D500090F8043101320133B2EB830F1AD290F85C
:107D60000531B2FBF3F903FB192ABAF1000FCAD0AF
:107D7000D0F80061202ED1D1BAF1040FCED117F87E
:107D80000CC017F80EE03C5D7D5DC7E7834640F60A
:107D90000E038AE7BDE8F08F834640F20C6384E768
:107DA00000239B46A0F804311A469EE724740B007A
:107DB00018730B0038B51D460446FFF769FF2968A4
:107DC0006A68AB68E868C4F8FC00C4F8F010C4F84E
:107DD000F420C4F8F83038BD30B5040101F11405C1
:107DE000081D031F02EB040C19781CF801EB81EA53
:107DF0000E0103F8011B8342F6D1181DA84204F1BD
:107E00000404EED130BD00BF2DE9F04FD1F80031B0
:107E1000103B102B83B08846044600F2AE80584ACF
:107E200022FA03F313F0010F14BF0A460022214681
:107E30000020FFF7D1FF534D4FF00109261D04F13B
:107E40001007C346A0462146002311F82300285CF2
:107E500001F823000133042BF7D101318E42F3D115
:107E600094F805C0617A637894F80DE0A07884F8FE
:107E700001C0617194F80AC0A17984F809E06373C4
:107E800094F80EE0E37884F802C0A07294F80FC072
:107E9000E07AA173E17984F806E084F803C0E07326
:107EA000E172E3719BF804314B455FD0CDF804904B
:107EB00098F8003098F801C098F8031098F802007C
:107EC00083EA0C094FEAD91E0EEB4E0E8CEA000C29
:107ED0004B4048400EEBCE0E00216EF307014FEAF7
:107EE000DC1E0EEB4E0E0EEBCE0E6EF30F214FEAA4
:107EF000D01E0EEB4E0E0EEBCE0E89EA000A6EF38C
:107F000017414FEA49094FF0000E4FEA4C0C69F354
:107F1000070E40006CF30F2E60F3174E5800DB097C
:107F200003EB430303EBC30363F31F6100236AF313
:107F300007036AF30F2360F31F6E6AF31743D8F841
:107F400000006AF31F6381EA0E014340594048F87C
:107F5000041BB845ACD1DDF804902146484609F130
:107F60000109FFF739FF5FFA89F96BE721464846B7
:107F700003B0BDE8F04FFFF72FBF002257E700BF67
:107F80000101010024740B00FEE700BF2DE9F04F52
:107F90004FEAA30A5D4FDFF8B091DFF8B0B103F00C
:107FA0000304864653465A488DB007EB84171C2BB2
:107FB00050F824000190A8BF1C237868029703336F
:107FC00023EAE37318410990B86818410A90F868E9
:107FD000BAF11F0F40FA03F0D046A8BF4FF01F08B8
:107FE0000B90A8F103030020089007930BE00DEB22
:107FF00085052C6A002B40EA0400B8BF6442013AB0
:1080000041F8044B74D05EF8043B13EA090F23F0E7
:108010000045ECD013EA0B0F0BD1029CBAF1000F14
:1080200054F82540BABFC8F10005AC4044FA08F442
:10803000E0E7384C23420CD1103D374C54F8254032
:10804000019D84FB0565079C002C47DB45FA04F481
:10805000D0E76C04B4F1006FBABF6C0504260026AB
:10806000B4F1005FBCBFA40002362C4DB4F1804FC8
:10807000BCBF64000136AC423DDD294D294FCDE93E
:10808000055705F1F95505F5CE2505F29B15049523
:10809000254F264D0395254687FB05C5039F3D4487
:1080A000274685FB07C7049D2F44254687FB05C54A
:1080B000059F3D4485FB0474069D2C441C4D55F8DA
:1080C000265084FB0575EC00019D84FB0575194C59
:1080D00054F82640A8EB0404002CB7DA66426FF08F
:1080E000004444FA06F7AF4284DB05FA06F481E760
:1080F0000DB0BDE8F08F104D104FDFF854C0CDE942
:1081000005570F4D0F4FCDE9035CC4E7588B0B00AB
:10811000588C0B00C0FFFF7F988A0B009979825A18
:10812000F0CEC227B477F5FE63218510A4F633D3D1
:10813000588A0B00788A0B008D496C23591858FF18
:1081400028482EB0A9BDA029FCFFFF7FF0FFFF7FCC
:108150001BAA5759844602F001007BBB60B3DCF8D0
:108160008034DCF88001DCF88012DCF880235B428C
:10817000CCF88034DCF880384042494252425B42BD
:10818000CCF88001CCF88012DCF88005DCF8801691
:10819000CCF88023CCF88038DCF88027DCF88030FD
:1081A0004042494252425B42CCF88005CCF88016EE
:1081B000CCF88027CCF88030002070472DE9F04FB4
:1081C000C3F11F0200284AD04FF00047DF400020D3
:1081D0000CF18006013F0CF51069804656F8804C82
:1081E00044FA02FE4FEAE47ABEEBE47F18BF87EA66
:1081F0000A049C40454646F8804C84EAE475A5EBA9
:10820000E475DCF88040C4F1000E4EFA02F4B4EBE1
:10821000EE7F4FEAEE7B18BF87EA0B0E0EFA03F4EF
:10822000C246CCF8804084EAE47AAAEBE47A0C688F
:1082300045EA0A05284344FA02F5B5EBE47F4FEA24
:10824000E47E18BF87EA0E040CF5807C9C40E14573
:1082500041F8044B06F58076C0D1BDE8F08F4FF0B1
:108260000046DE40013E0CF180050CF5106E07461D
:1082700055F8804C44FA02F94FEAE47AB9EBE47F0E
:1082800018BF86EA0A049C40B84645F8804C84EA48
:10829000E478A8EBE478DCF8804044FA02FA4FEA8C
:1082A000E47BBAEBE47F18BF86EA0B049C40B94636
:1082B000CCF8804084EAE479A9EBE4790C6848EAD8
:1082C000090840EA080044FA02F8B8EBE47F4FEAF4
:1082D000E47918BF86EA09040CF5807C9C40E645E9
:1082E00041F8044B05F58075C2D1BDE8F08F00BFA1
:1082F0002DE9F041436903F5A0430746D3F8C46D67
:10830000D3F8C08DEEB1046A0025033414F8023CA2
:1083100014F8031C14F8012C1B0203EB01431A444C
:108320002946304618F086FB29463046013518F0BC
:108330006FFBB5F5807F04F10304E7D197F8253092
:108340003BBBF9683868B8F8042043189342D7E972
:1083500001342344B8F80640C8BF111AA34216DA04
:10836000904214DA002912DDB8F80C2002FB03F366
:10837000D8F8082002EB8302BB6986B101380244B9
:10838000194413F8010B02F8010F8B42F9D1BDE833
:10839000F08197F82410304618F044FBD1E702EB47
:1083A000400297F82500FC69012809D0194413F808
:1083B000010B34F8100022F8020B8B42F7D1E6E7EC
:1083C00097F82450194413F8010B85421CBF34F868
:1083D000100010808B4202F10202F4D1D7E700BFF7
:1083E0002DE9F04100F5A04882B098F8AE1D426B2F
:1083F00001238DF80730036B51BBD11A044640F2BC
:10840000F942481E904223D82BBB40F2FA4604F1B1
:10841000540514E0636BB3421ADC236C9847616B1C
:10842000236C9DF8072001F5BD51143121442846E5
:108430009847636B9DF8072013446363DAB1D4E96E
:1084400015739F424FF001020DF107012846E1DB51
:1084500002B0BDE8F08141F2B372134422442344D8
:10846000551813F8010F02F8010FAA42F9D10023A1
:10847000C4E90C31C9E7012388F8AE3D02B0BDE87C
:10848000F08100BFF8B500F5A0420023436582F8F3
:10849000B43D82F8AE3D856D4FF0FF320B2DD4BF59
:1084A000AD180C2500F5DA7700F15406C0E9083262
:1084B0000446036C2A46394630469847854223D104
:1084C00015490522384637F0F9FA28B11349052233
:1084D000384637F0F3FAE8B994F8BE31B4F8BA1177
:1084E000B4F8BC212160C3F302130133C4E90121B4
:1084F000E260A361626C002130469047A368B3F547
:10850000A07F05DC0120F8BD0623E3610020F8BD53
:108510000223FAE70823F8E784660A008C660A005B
:108520002DE9F04F8046826A58F8743B41F2167785
:108530009B1AB94291B0434400F2CA80054600F547
:108540008D5A0AF1140A00F5ED5005F59B460E30E0
:108550002E3605F5DA7C5446A44500F0B980725CED
:1085600004F8012D30F81110B942F5D9BAEB04071F
:1085700000F0AE80E96A05F5A55214320392002995
:108580003A464FF0000B474605F5A046904640F3AB
:108590009B80A86A404500F32F811A1893420BD2A2
:1085A000013B04EB000C14F8012B03F8012FA44548
:1085B000F9D1D5E90A0164462A68AA622B690293B7
:1085C000A8EB000896F8B40D0593039BD5F804C0FA
:1085D00096F8B3ED089200280CBFD14699460138B1
:1085E00018BF0120CDE90C99ACEB0101D5F814902E
:1085F0000B971EF0400FCDF824C007918DF83C007A
:10860000CDF818900CD00CF1FF3000EBD07EB1EB20
:108610006E0F40F3B68040F00100C0EB41000790C0
:1086200096F8AF0D96F8B11D96F8B03D01934FF056
:10863000000E00F0010C61F3070EC0F382006CF332
:108640000F2E60F3174E63F31F6ECDF838E0D5E9B7
:10865000193E0A93BEF1000F23D0079B029999445B
:10866000AB68022803FB09130EEB830333D0BCF184
:10867000000F3BD0002A9DF838000DDDBC461CF8E9
:10868000011B884218BF19700899ACF17402521B83
:108690008A4203F10103F2DB96F8B6EDBEF1010F59
:1086A0002DD0AB6C05A89847E96A013901F00303A6
:1086B000E962002B08BF4BF0010BB8F1000F03D0AB
:1086C00000293B463FF765AFBBF1000F40F08E80BD
:1086D00011B0BDE8F08F1846019937F0BBFB9DF84B
:1086E00039C0089A0346BCF1000FC3D11846394679
:1086F00037F0F6F996F8B6EDBEF1010FD1D1DDE90C
:1087000006329918AA68059BE86896F8B5CD02FB71
:108710000131AB6E00FB02F2BCF1010F03EB8101F2
:108720000C9803EB82032A6850D9002A27DDCDE993
:10873000017403334FF0000C4FF0030911F8012BC3
:1087400002EB42070333C75D03F8067C12FB09E71F
:108750000224C75D03F8057C12FB09420CF1010CF1
:10876000825C03F8042C2A689445E7DBDDE9017498
:10877000D5E9023203FB02F2AB6E03EB82030B93EB
:108780008FE700288646B8BF0CF1020EB1EBAE0FA2
:1087900007DD20F0030040F00200C0EB81010791EB
:1087A0003EE700288446B8BF00F1070CB1EBEC0FA0
:1087B0004FEAC10E07DD20F0070141F00401AEEBE6
:1087C000010107912CE7CDF81CE029E7002AD6DD4E
:1087D0004FF0000C11F8012B30F8122023F8022B77
:1087E0002A680CF1010C9445F4DBC1E7284611B06E
:1087F000BDE8F04FFFF7F4BD4746DA19934208D2BF
:10880000013BE11914F8012B03F8012F8C42F9D137
:10881000A86AC01BA86257E730B50446D0E9000338
:108820001B1A9342B8BF03F1FF3283B012B910464E
:1088300003B030BDE56801AB05F1080077F095FBAA
:1088400020B92B6C0198236003B030BD05206DF07A
:10885000EBFF00BF38B5C56804460A46CB1705F1E3
:10886000080077F00BF8286C206038BD38B5044656
:1088700004F5A0440D4645F6B852002137F0EAFA57
:1088800084F8B55D38BD00BF2DE9F04F054600F115
:108890005407436C866D87B088463846002105F53D
:1088A000DA7498472B6C4FF480522146384698472B
:1088B00095F9BE1195F8BE2100290346A6EB0006E6
:1088C000C0F209814FF00D0902224FF0000E019213
:1088D00042F21072CDE903E2CDF808E0C246019AF7
:1088E000994502F1FF3205922FDAA046A3EB090465
:1088F000B4F5817F4A4608EB09013ADB09782C2957
:108900004DD03B2921D021291FD1424409F1020138
:10891000507892F80290F92800F01181894408EB10
:10892000090209F1020954786CB149460C44611CF2
:1089300018F80440A3EB010B04F201125A456DDA5A
:10894000002CF3D189469945D0DB019BDDF808E086
:10895000D046A3F1020C039BC8F80830049BC8F86A
:1089600000C00120C8F80C30C8F804E007B0BDE82A
:10897000F08F2246404637F0E3F82B6CC4F5805266
:1089800008EB04013846984741464FF00009097842
:108990002C2904EB0003A6EB00064A46B1D1994509
:1089A0004446D2DA424409F10A0992F90910527A8E
:1089B00000295ADB09F1010102F20112A3EB010BBC
:1089C0005A453FDA04EB010809F1020998F800B0B2
:1089D000BBF1000F10D0A04649465C46B1F5406F90
:1089E00072DD002E04EB01024FDC18F80240511C2E
:1089F000002CF6D18946444614F809203B2A04EBA2
:108A0000090100F0BB80002E70D1A3EB09021F2AE0
:108A100040F3B480019A0132019260E75A46414422
:108A2000404637F08DF82B6C08EB0B01CBF58052EC
:108A30003846984700210BEB0003361A002C7FF4D0
:108A400075AF7FE78B426DDCC91A01F1010904EBB8
:108A500001084FF4805221464FF0000B2B6C384632
:108A600098470BEB0003361AB0E702F00702022129
:108A70009140032011FB009909F1010102F201125A
:108A8000A3EB010B5A45DDDA9CE7A3EB010B5A4639
:108A90004144404637F054F8CBF58052B242A8BF6B
:108AA00032462B6C08EB0B013846984718F8042027
:108AB0000BEB0003361A611C002A9BD00A44511CA0
:108AC00018F80240002C95D00C44611C18F80440A2
:108AD000002C83D18EE702F007024FF0020909FA59
:108AE00002F903210D2219FB0129EDE6AA6DB2F569
:108AF000805F8FDD002E8DDDA3EB09084246204606
:108B000037F01EF8C8F58052B2422B6CA8BF32462F
:108B100004EB0801384698474FF0000908EB0003C2
:108B2000361A77E721445A46204637F009F84FF0C5
:108B3000010904EB0B01CBF58052A0468EE7B9F199
:108B4000040F7FF4EBAE10795279039C40EA0222C5
:108B5000022A0298B8BF022202EB820200EB420016
:108B6000B4EB420F02904FEA420001DA0390D5E6DF
:108B7000049A8242A8BF02460492CFE6DDF814C0F0
:108B8000DDF808E0D046E6E6FFF77CBC2DE9F04FC3
:108B900004468BB09346894609B100230B60D4E9A3
:108BA00015735A1E974204F1540805DB636C0021CB
:108BB00040469847D4E9157304F5A0421146049243
:108BC000002281F8B42D81F8AE2D22624FF0FF32E1
:108BD000626207F1FF029A42C6BFDB1B03F1FF3A54
:108BE0004FF0FF0A04F5DA75236C524629464046D9
:108BF00098478245064605D00623E36100200BB066
:108C0000BDE8F08F002F00F09E8000212B468A46A1
:108C10001A782C2A2AD0CDF80080CDF80890D846B2
:108C2000B3463B2A00F0F381212A40F0F58105EBA1
:108C30000A020AF102095278FE2A00F0FD80FF2A9A
:108C400000F0AD80012A72D0F92A40F0F28015F8C8
:108C50000920042A00F065814946CA462C2AE0D141
:108C60005E46DDF80890C346DDF80080294405EB38
:108C70000A0388785A7802EB002222610879CA78C0
:108C800002EB0022626188794A7902EB00222260BD
:108C9000087ACA7902EB002262605B7A049A0AF1D0
:108CA0000A0182F8B33D1A06009100F17181009A21
:108CB0000499AB5C81F8B23D511CB14ACDF80090EB
:108CC000D35CA3610023636341F2B47A0297A9469F
:108CD000CDF804B009E036F003FF676B0BEB05013C
:108CE0002F446763002D00F0D382B14201F1010BE4
:108CF00080F29A8119F80150606BA6EB0B07504483
:108D0000BD4220442A4609EB0B01E4DD3A4636F029
:108D1000E7FE616B236C39446163EF1B51442144CE
:108D20003A4640469847636B31461F44D9E715F8E9
:108D3000093009F101099944002BF8D115F80920EF
:108D40004946CA468AE78F490522284636F0B6FECC
:108D500038B18D490522284636F0B0FE002840F093
:108D6000FC8094F8BE31B4F8BA212260A260C3F34B
:108D700002120132A2610499B4F8BC216260E2607F
:108D800094F8BF2181F8B02D002281F8AF2D1A068A
:108D900000F18C800D2104F2C1138A4638E75B464E
:108DA000A34615F8096009F1010AA3EB0A0406F1CC
:108DB0001F02A24227DA0AEB06090B2E08D0002E6A
:108DC000EFD15C4615F809209B464946CA4645E75F
:108DD000AA446E4901933246504636F06FFE019B1D
:108DE0000028DED19AF80B20032ADAD19AF80C2059
:108DF000012AD6D19AF80E109AF80D2002EB012222
:108E0000CBF82420CDE709F2B51159442246284673
:108E100036F096FE04F5DA71DBF8403000985944DC
:108E200006F120029847574423184FF0000AB14634
:108E3000C3E70123E361E1E649465846A946A24655
:108E400019F8014001F1010BA0EB0B0504F11F0320
:108E5000AB4215DA0BEB0401DAF838200BEB070311
:108E60001AB9CAF83830AAF83C40002CE8D14D466F
:108E70008946544615F8092083464946CA46EDE618
:108E800001F2B51151442A46484636F059FE05F51F
:108E9000DA715144DAF84030009804F12002984722
:108EA0005F4428444FF0000B2146D5E703F0070349
:108EB00003F1010A06F5DA71032202FA0AF2236CC1
:108EC0000092214440469847049B009A064493F838
:108ED000B50D012844D804F58D514FF0020C123124
:108EE0000CFA0AFC8C44224692F8C23192F8C1E195
:108EF0009B084FEADE0E5B0143EACE2392F8C3E102
:108F0000033243EADE0308B15BBA9BB221F8023FA9
:108F10006145E9D1032101FA0AF10D318A466B1846
:108F200076E62944049BC87883F8AF0D91F805C014
:108F30000A7902EB0C2202EB82025200012AD8BF0E
:108F400064222262C00744BF8A7983F8B12D0AF1F6
:108F5000080A514615F80A2080E60823E3614DE629
:108F600004F58D5004F2C1111430009236F0B8FDB2
:108F7000009A02F10D0A514605EB0A0348E600BFCC
:108F800040BD0B0084660A008C660A0030640A004B
:108F900003F00703013306F5DA7103229A400193C7
:108FA0002144236C029240469847049A92F8B51DDA
:108FB000029A0129064400F27E81019804F5A55227
:108FC000022312328340A24403EB020C9AF8BF3111
:108FD0009AF8BE019B08C0085B0143EAC0239AF8D7
:108FE000C0010AF1030A43EAD00309B15BBA9BB29C
:108FF00022F8023F9445E9D1019A03239340009A55
:109000001A440092049A012382F8B43D4FE60723E4
:10901000E361C4F86480F1E5A36DDB1B1F2B3FF710
:1090200008AF0723E361E9E5DDE9009BE369C4F8E4
:1090300064B0072B3FF4E2AD049B93F8B23D4FF6CA
:10904000FF7501339D4004F5BD5314332DB26FEA13
:10905000650503936368E362ADB22368A362AB1C4A
:109060009BB2019304F5ED530E3300266A1C059361
:1090700004F576531FFA82FB2E33266320460293B3
:10908000FFF7AEF9BBF1000F15D0334604F5765764
:1090900004F5ED5604F59B402D370C362D3041F28A
:1090A000187CDAB201335B4500F8012F07F8012F75
:1090B00026F802CFF5D1CBF580535B000993059BD1
:1090C000CDF800B0033503EB4B03ADB2A3460893D4
:1090D00000262C46CDF81890049B099A93F8B28D7F
:1090E00008984FF0010A08EB0A09C8464FF6FF73CB
:1090F00041F2177103FA09F936F0ACFEDBF83020C3
:10910000039BC8F12000B042B8BF02EBE60203EBBC
:109110000201B8BFCBF830209F5C4A78009B07EB78
:1091200002278A7807EB0247CA78B8BF06F007061D
:109130000FFA89F907EB026727FA06F16FEA0909C6
:1091400009EA010189B20AFA08FA8B421FFA8AFA7F
:1091500046447DD058460791FFF7E2F9019B0799F5
:109160008B4200F0A4805B4645460794A346984690
:109170002FE0D34514D2059B029A23F81B10515CB3
:1091800002F80B1033F814E041F217739E4518BF34
:10919000029B0BF5805C0CBF1346195D03F80C10A5
:1091A0000BF101031FFA83FBD3450DD30B2D0BD815
:1091B0004FEA49096A1C4FEA4A0A0FFA89F995B23F
:1091C0001FFA8AFA49F0010921464046FFF7A8F93B
:1091D0002146D8F82C40002C27DDC5F12004B442EC
:1091E00017DAD8F83040039B04EBE60403EB040CD9
:1091F000C8F830401F5D9CF8014007EB04279CF83D
:10920000024007EB04479CF8034006F0070607EB13
:10921000046727FA06F4009B09EA0404A4B2A342F7
:109220002E4432D0019BA342A3D1DDF818904446CE
:10923000B9F1000F02D0236AC9F80030D4E9150350
:10924000013B9842ACBF002001200BB0BDE8F08F7D
:10925000B04213DADBF83020039B02EBE6029918E8
:10926000CBF830209F5C4A7807EB02278A7807EB1F
:109270000247CA7806F0070607EB026727FA06F1ED
:1092800009EA010189B2464464E7079CC34623E723
:10929000049A029F01238E42DDE9009B82F8AE3DD5
:1092A0007FF7C4AE636C394440469847BEE6DDF8AC
:1092B00018905C46BCE7009B019204F5A550E918A4
:1092C000143036F00DFCDDE900321344009399E6CA
:1092D0002DE9F04F0022164689B06B4B6B4C6C4861
:1092E000CDE9022235460122196841B1D4F80413B0
:1092F000114204D01D60196800910099164304338F
:1093000083424FEA4202EFD1604BD3F87C21F1B2A5
:10931000002A6AD00022C3F87C21D3F87C31019363
:109320004FF0A042019BD2F810255A4B0292D3F87D
:1093300010350393002979D10022574EDFF854915C
:10934000CDE904224FF0FF330693A6F15908534CA0
:109350000793002514F9013F591C31D0C3F3C20E05
:109360000EF120020DEB020C03F007071CF8082C8D
:10937000FA40D207D9B203F03F0021D508EB000232
:10938000890992F9282058F82220002A59D0032967
:1093900059D01F2887BF03F01F03CE4603464FF066
:1093A000A04E1CF818CC0EEB83032CFA07FCD3F864
:1093B00000771CF0010FC7F301473AD0022F51D0BC
:1093C000A642C7D17DB34FF0A0430299D3F8103520
:1093D000D9F81025994202D10399914223D0CDE9C1
:1093E0000232DDE904230692B1E7D1B12C4F012509
:1093F0000024A30003F180432E4203F5C0430BD0A9
:10940000D3F8100557F82420D3F81015C0F3052021
:10941000C1F3014102B190470134082C4FEA4505E0
:10942000E7D1002E88DB09B0BDE8F08F46F000469A
:10943000DCE7032FC4D1032923D0002AC0D09047F2
:10944000BEE70329BCD10DF1100A4FF0010B1AF849
:109450000EA00BFA07FB4AEA0B0A0DF1100B0BF8F2
:109460000EA096E70329E8D14FF4403CD3F80077EB
:1094700027F44037013547EA0C07EDB2C3F800770F
:10948000DBE74FF4003CF1E7006100400060004082
:10949000206100400003005001110120FF10012055
:1094A000A810012008B504205DF0D8F92DE9F04F8F
:1094B000D1F80031103B102B8DB00C46814600F2E4
:1094C0005781AC4A22FA03F313F0010F14BF0A4686
:1094D0000022494694F80401FEF77EFC94F804311A
:1094E000013B09F10407DEB209F11003C8460793F6
:1094F000B146BA4698F80D0098F8096098F805301A
:1095000098F8014098F8021098F80A7098F80650F8
:1095100088F80D6088F8093098F80E6098F80330E4
:1095200088F8054088F8010098F8074098F80B0083
:1095300088F80A1098F80F1088F80B1088F8027055
:1095400088F8066088F80E5088F8034088F807000D
:1095500088F80F30C3464146002311F82300864C9B
:10956000205C01F823000133042BF6D101318A4538
:10957000F2D141464846FEF72FFCB9F1000F00F04A
:10958000F480CDE90892CDE90A8A9BF800C09BF8E7
:1095900001E09BF803909BF802804FEADC1303EB99
:1095A000430303EBC30383EA4C034FEADE17C3F321
:1095B000C01207EB470707EBC70702EB420259B29D
:1095C00087EA4E074FEAD91502EBC20282EA410A46
:1095D000019105EB4505C7F3C01105EBC50501EB8E
:1095E000410185EA49057AB24FEAD81601EBC1017B
:1095F00081EA4201029206EB4606C5F3C0126CB244
:1096000006EBC606EDB202EB420286EA4806DBB282
:10961000069502EBC2028CEA0E058EEA080E8CEA71
:10962000080C82EA44020593FFB2C6F3C013049407
:1096300089EA0E0ECAF3C01489EA0C0C88EA050800
:1096400089EA0509069D70B287EA0E0EF6B2019FFF
:10965000039003EB430304EB440486EA0C0C85EA15
:1096600009094FFA8AF6059D03EBC30304EBC40412
:1096700083EA400384EA4604C1F3C0107E4085EAD1
:1096800008080196C3F3C015029E5FFA8AF700EB43
:1096900040004FFA83FADBB287EA090783EA0E0338
:1096A0004FFA81F95FFA82FE00EBC000C9B280EA8E
:1096B000490081EA080186EA09098EEA0C0E039E38
:1096C0005FFA84FC05EB4505C2F3C0188CEA0E0E68
:1096D0008CEA070705EBC5058CEA010C019985EAC0
:1096E0004A0508EB480886EA0A0A64B2049E52B2A8
:1096F0004C4008EBC808C1B288EA42084B407240AF
:109700004F40EEB281EA0C01734086EA0E0E7140C2
:109710005FFA88F6734040B26DB24FFA88F8634042
:1097200086EA0E0E80EA090085EA0A0588EA020840
:109730007E408BF8003081EA0801079B8BF803100C
:109740008EEA000E6E408BF801E08BF802600BF1A0
:10975000040B5B457FF419AFDDE9089209F1FF3393
:10976000DDE90A8A5FFA83F9C4E60DB0BDE8F08F3F
:109770000022AEE60101010024730B0010B4D0F802
:10978000C437D0F8C847D0F8BC2704FB03F302FB6A
:1097900003F3002B11DD00220239944621F802CF99
:1097A000D0F8C847D0F8C43704FB03F3D0F8BC475F
:1097B000013204FB03F39A42F0DB5DF8044B70477F
:1097C000002800F075812DE9F04F0F4689B0096837
:1097D00092461D46814674F017FCB0F1000BC0F2B2
:1097E0006481396859443960484675F093F8011E20
:1097F000C0F287813B680B443B60DAF800300BEB2A
:1098000001069B1BCAF80030D9F8B827D9F8B00771
:10981000002A7ED048B1D9F8B447484671F04CFBD5
:109820002044C9F8CC07DAF80030129A002A00F078
:10983000C480D9F8D827C9F8CC37002A40F0318144
:10984000002B40F32E81C9F8DC37D7F80080434461
:109850003B60DAF80030D9F8CC279B1ACAF8003000
:10986000D9F8C427D9F8DC470027BA4207974FEA4E
:10987000C40440F3148109F2DC730493BB46D9F8A5
:10988000BC37002B40F3C780CDF80CB0079EDDF845
:1098900010A005950027C34618E0A6452FDC0398C5
:1098A00001970090484671F013FB011EC5EBC105FE
:1098B00007F101078B44C0F2D180079ED9F8BC376D
:1098C0003544BB42A8EB050440F3A180039B009301
:1098D0005946234607AA0197484674F07FFC079D26
:1098E0005AF804EFC6EBC00606EB050C83440028CB
:1098F00007AAAEEB0C035946A4EB0C08CDDA059D84
:1099000048462946FFF73AFF6FF0070009B0BDE867
:10991000F08F00287FF47FAF0123C9F8B037D7F864
:1099200000C0DAF80080CDE903C7ACEB0606474675
:109930006446884601E0A7EB0C073946204600F054
:10994000FFF8421C04EB000300F1030C00F0EE8072
:1099500014F800E03078864503F10304EBD193F866
:1099600001E070788645E6D196F802E098788EEAB4
:1099700000000328DFD81EF0020FDDF80CC0049FA2
:1099800018BF03F1FF33A3EB0C04002CC9F8B44754
:10999000C0F2CE80D9F8C037D9F8C8170BEB040253
:1099A000424403FB02F2D9F8C437D20001FB03F3AF
:1099B00092FBF3F2C9F8B8272FE7D9F8CC07984201
:1099C00000F3AD80D9F8DC17D9F8D827914279DBBC
:1099D000891A09F11C084144404636F0B1F8D9F81B
:1099E000D807D9F8CC273968404436F079F8D9F847
:1099F000CC27D9F8D8371344C9F8DC373B6813446F
:109A00003B60DAF80030D9F8CC279B1A26E7D84615
:109A1000059DDDF80CB05946484671F083FF0028DB
:109A200049DBD9F8BC170029C8BF002604DC1FE0B9
:109A3000D9F8BC17B1421BDD32465946484672F090
:109A400069FC002806F10106F2DA48462946FFF7CC
:109A500095FE6FF00A0009B0BDE8F08F059D4846FD
:109A60002946FFF78BFE6FF0080009B0BDE8F08FC4
:109A7000D9F8C82702FB0BF202FB01F105EB41010B
:109A8000484674F039FA002842DB049B08330493FB
:109A9000D9F8C4370BF1010B5B453FF7F0AE00205E
:109AA00034E729464846FFF769FE6FF005002DE7C9
:109AB0006FF00400704748462946FFF75FFE6FF0DD
:109AC000090023E7024609F11C000844396836F012
:109AD00007F8D9F8CC27D9F8DC371344C9F8DC37B4
:109AE0003B6813443B60DAF80030D9F8CC279B1A66
:109AF00048462946CAF80030FFF740FE6FF00100E3
:109B000004E748462946FFF739FE6FF00600FDE6F8
:109B100048462946FFF732FE6FF00B00F6E648464E
:109B20002946FFF72BFE4FF0FF30EFE6C9F8B407E8
:109B300048462946FFF722FE6FF00200E6E600BF26
:109B4000012913DD821E431E114401E08B420DD01A
:109B50009C4613F8012FFF2AF8D15A7802F0E00250
:109B6000E02AF3D1C0F10100604470474FF0FF30AC
:109B7000704700BF08B172F03BBB704718B1D0F816
:109B8000D037032B08D00023C1E90033C1E90233E9
:109B9000C1E904338B617047D0F8B83710B40B605B
:109BA000D0F8BC374B60D0F8C0270E4C1023C1E969
:109BB000022390F8D437D0F8D02703EB4303013ABF
:109BC0001344D0F8BC2734F913305DF8044B02FB82
:109BD00003F30B61D0F8D0374B6190F8D4378B6129
:109BE000704700BFA8B30B00A0B138B50D461146B1
:109BF000044674F009FA013009D0D4F8D037032BA9
:109C000005D120462946FFF7B9FF002038BD6FF087
:109C1000050038BD6FF00400704700BF71F0FAB85E
:109C200010B54FF0804386B0D3F80443620703D5E4
:109C3000D3F80821002A62D1A30605D54FF080434E
:109C4000D3F81421002A4FD1600605D54FF0804388
:109C5000D3F81821002A3BD1210604D54FF08043C8
:109C6000D3F81C214ABBE20504D54FF08043D3F85A
:109C70002021B2B9A30512D54FF08043D3F8242197
:109C80006AB10022C3F82421D3F82421214B059284
:109C9000059A1B68022006B0BDE81040184706B0C0
:109CA00010BD0022C3F820211A4AD3F820310493B2
:109CB00001201368049A9847DCE70020C3F81C01D0
:109CC000144AD3F81C3103931368039A9847CAE7E0
:109CD0000022C3F81821104AD3F81831029301204A
:109CE0001368029A9847B7E70020C3F814010A4A9C
:109CF000D3F8143101931368019A9847A4E700221E
:109D0000C3F80821054AD3F8083100931368009A74
:109D1000984791E7704F01206C4F0120684F012058
:109D2000064BD3F800213AB1054A00205071C3F820
:109D30000001136891681847704700BF0090024007
:109D4000484F012002480322002130F03FBA00BFF3
:109D500000B0004002480422012130F037BA00BFB1
:109D60000010014002480422022130F02FBA00BF47
:109D70000040024008B50F4A0F4B934208D2013A07
:109D8000D21A22F003020D490432184635F0A8FE1B
:109D90000B4A0C4B934208D2013AD21A22F003022A
:109DA00004320021184636F055F800F09BF862F0B6
:109DB000B1F900BF700601200000012050C50B0062
:109DC000505A012080060120014902486CF0A0B8D9
:109DD000844E01200030004002494FF040206CF0DA
:109DE00097B800BFB84E0120084BD3F8182102B92C
:109DF0007047002282B0C3F81821D3F818310193BC
:109E0000019B034802B02CF00FB800BF00300240A5
:109E1000244E0120084BD3F8182102B970470022C4
:109E200082B0C3F81821D3F818310193019B03487D
:109E300002B02BF0F9BF00BF00F00240484E0120F5
:109E400070B5234C82B00226002501A85DF0ACFF5E
:109E500005280BD0019B032B2CD01ED8022BF4D14C
:109E600001A825705DF0A0FF0528F3D1194E4FF42D
:109E70000C751948ADF802500DF102015DF020FF9C
:109E8000E0B9D6F8B040002CF3D0D4E90112246830
:109E900011489047002CF8D1EBE7A3F10902022A00
:109EA000D3D80A2B08D0092B14BF012002206BF055
:109EB000BDFECAE72670C8E70020F8E70C2801D0ED
:109EC00002B070BD0549064843F056FA02B070BDB5
:109ED000425A0120784F0120F44B01202C620A00E5
:109EE000008E0A0010B54FF08053D3F83021082AB5
:109EF0001FD0744AD2F8883043F47003C2F8883017
:109F0000BFF34F8FBFF36F8F4FF01023D3F80C22A6
:109F1000D20700F1B980D3F80022002AC0F28E8067
:109F2000D3F80432002BC0F28980674B674A1A606D
:109F300010BD4FF080400021C0F80C11644AC0F8F9
:109F40001011C0F83815D3F80414C2F82015D3F84E
:109F50000814C2F82415D3F80C14C2F82815D3F845
:109F60001014C2F82C15D3F81414C2F83015D3F815
:109F70001814C2F83415D3F81C14C2F84015D3F8DD
:109F80002014C2F84415D3F82414C2F84815D3F8A5
:109F90002814C2F84C15D3F82C14C2F85015D3F875
:109FA0003014C2F85415D3F83414C2F86015D3F83D
:109FB0003814C2F86415D3F83C14C2F86815D3F805
:109FC0004014C2F86C15D3F83411D3F84444C2F8E5
:109FD0007045F1B151B14FF08043D3F80024D1075F
:109FE00087D56FF00102C3F8002482E74FF0805359
:109FF000384AD3F830314FF40071082BC2F84016BC
:10A000007FF477AF4FF08043D3F80024D107E8D432
:10A010006FE7A2F5E042304CC2F88C4602F52042D0
:10A02000FB24C2F81845D0F8E42ED3F8584264F364
:10A030000302C0F8E42E0029D8D0CCE7274A012338
:10A04000C2F80435D2F80034002BFBD04FF01023B7
:10A050001221224AC3F80012D2F80034002BFBD0A0
:10A060004FF0102312211D4AC3F80412D2F8003415
:10A07000002BFBD000231949C2F80435D1F8003475
:10A08000002BFBD001F05AFB144A0123C2F804351F
:10A09000D2F80034002BFBD04FF010210F4AD1F83A
:10A0A0000C3223F00103C1F80C32D2F80034002B3B
:10A0B000FBD000230949C2F80435D1F80034002B45
:10A0C000FBD0DFE700ED00E0000001200090D003AE
:10A0D00000C00040009002404881030000E00140C1
:10A0E0000149024830F0CAB86C4E0120009000408F
:10A0F0000149024830F0C2B8784E012000A000406B
:10A10000014902486CF0F6B8EC4E012000200040F6
:10A11000014902486CF0EEB8104F01200080024067
:10A1200000206DF097BC00BF10B5084CD4F800318A
:10A1300082B04BB1064B5B6898470023C4F80031EE
:10A14000D4F800310193019B02B010BD0000014022
:10A15000404F0120022A2DE9F043464B1ED002EB6E
:10A16000C20203EB021C0CF1480601F1440E0CF193
:10A170008C0C00F1240750F8043B5CF8044956F8B5
:10A18000045B1A4685FB028241F8042B84FB0323FF
:10A1900087424EF80439EED1BDE8F0838268D3F8E7
:10A1A00038C18CFB02428469D3F8205185FB0464DA
:10A1B00022440A60D3F83C71426887FB0242C469BA
:10A1C000D3F8245185FB046422444A600268D3F822
:10A1D000406186FB0242056AD3F8284184FB05E50D
:10A1E0002A448A600268D3F84451964685FB0E2EB5
:10A1F000026AD3F82C4184FB02827244CA6042682E
:10A20000D3F848E191468EFB0949C469D3F830215F
:10A2100082FB048409EB04020A618268D3F84C8152
:10A2200088FB0242D3F83441836984FB03931A44C8
:10A230004A6143698CFB03238B61036987FB03231A
:10A24000CB61C36886FB03230B62C36885FB0323D2
:10A250004B6203698EFB03238B62426988FB0232E7
:10A260000023C1E91033C1E90E33C1E90C33CA62DE
:10A27000BDE8F08300BB0B002DE9F047B0F85E307D
:10A280000446002B4BD0304B304E89469246002579
:10A2900043F00108012705F00F034FF40041194175
:10A2A00001EA0A01003918BF0121204600F0B4FF7D
:10A2B000B4F85E30A3EB0903AB420CDA94F8343007
:10A2C0001F2B86BF03F01F0332464FF0A04207FA50
:10A2D00003F3C2F8083594F861301F2B8ABF324669
:10A2E0004FF0A04203F01F0307FA03F3C2F808354A
:10A2F0004020C04794F861301F2B8ABF32464FF090
:10A30000A04203F01F0307FA03F3C2F80C35402004
:10A31000C0470135B4F85E20ABB29A42BBD894F87E
:10A3200034201F2A07D84FF0A04101239340C1F8E1
:10A330000C35BDE8F087054902F01F020123934068
:10A34000C1F80C35BDE8F08710C30B0000030050C6
:10A35000054B18680368D3F8402112B10022C3F8F6
:10A36000402100F08BBF00BF50110120002800F0F9
:10A3700049822DE9F84306690446002E00F00A825E
:10A3800094F8625090F8613005EB45011F2B4FEABD
:10A3900041018CBFBD484FF0A0400FFA85F88E46B2
:10A3A000002D00F0DE810022B84F15464FF0010C61
:10A3B00001E08A4213DAB35C1F2B88BFB94603F071
:10A3C0001F0398BF4FF0A04901320CFA03F3484530
:10A3D000D2B245EA0305ECD00120BDE8F883B5F11F
:10A3E000807F34BF00230123DB0015F47F0F18BFEB
:10A3F00043F0040315F47F4FEAB200F0A781002A6E
:10A4000000F09A8143F00303012202FA03F341F2C0
:10A410000802134200F0A581022308EB480808FA5D
:10A4200003FE1A4694F86310B4F85E6084F8603056
:10A4300001238B40073606F4FF6684F86630DBB2F2
:10A4400016FB03F694F8653003FB06F694F86830C3
:10A4500002FB06F6E66403B1760001210EEB06006E
:10A4600058F074FE03466062002800F09381334484
:10A4700032466361002135F0EDFC94F8610094F8F8
:10A48000603094F86260012100F01F0201FA02F2CC
:10A490008B4245EA020500F08281022B00F0B48174
:10A4A000C4E90625002284F864209EB1D4E904356D
:10A4B0009B5C03F01F0301FA03F345F8223094F884
:10A4C0006230501CC2B203EB4303B2EB430FEDDB2F
:10A4D00094F8610094F8653094F8341094F866505C
:10A4E00001229A40013A4FF47A43B3FBF5F3B3FBF0
:10A4F000F2F3642B38BF64231F29C4E914338CBFE3
:10A50000624B4FF0A043002284F86A2003F5A16259
:10A51000A26201F01F01012202FA01F194F8442025
:10A5200003F20C531F2AC4E90B318CBF574B4FF079
:10A53000A04302F01F0103F5A16503F20C5203468C
:10A540001F2B4FF0010000FA01F188BF03F01F0339
:10A55000C4E90F2103F5E07388BF4C4AA56398BF97
:10A560004FF0A04240F2033142F8231094F86120EA
:10A570001F2A86BF02F01F0244494FF0A041012369
:10A580009340C1F80C3594F834301F2B86BF03F08C
:10A590001F033E4A4FF0A04203F5E07340F203313F
:10A5A00042F8231094F834201F2A86BF02F01F02BD
:10A5B00036494FF0A04101239340C1F80C3594F87F
:10A5C00044301F2B86BF03F01F03304A4FF0A042D8
:10A5D00003F5E07340F2033142F8231094F844305D
:10A5E0001F2B86BF294A03F01F034FF0A04201260C
:10A5F00006FA03F3C2F8083594F862303BB32349F6
:10A60000002340F203372269D25C1F2A88BF02F080
:10A610001F020D4602F5E07298BF4FF0A0454FF0C3
:10A62000A04045F822702269D25C1F2A84BF02F044
:10A630001F02084606FA02F2C0F80C2594F86220C0
:10A640000133DBB202EB4202B3EB420FDBDB47F636
:10A65000FF720C212046FFF70FFE40220D212046FD
:10A66000FFF70AFE2046002100F0D6FD94F8632093
:10A67000012000FA02F3023BDBB284F86D30002ABD
:10A6800076D0024D844640F2033614E000030050B9
:10A690001F2B86BF03F01F032A464FF0A0420CFA7F
:10A6A00003F3C2F8083594F863200131CBB24000BF
:10A6B0009A42C0B25CD9A76C07EB01120B01127B66
:10A6C0001F2A8CBF2A464FF0A04202F5A162FA5021
:10A6D000A26C1A44177B1F2F8CBF2F464FF0A04748
:10A6E00007F20C575760A76C1F443A7B02F01F0219
:10A6F0000CFA02F2BA60A26C1A44127B1F2A86BFBF
:10A7000002F01F022F464FF0A04702F5E07247F813
:10A710002260A26C94F86D701A440742137BB7D183
:10A720001F2B86BF03F01F032A464FF0A0420CFAEE
:10A7300003F3C2F80C35B6E743F00203012202FA34
:10A7400003F313F48B7F0CD013466BE6002A00F062
:10A75000908043F00103012202FA03F313F48B7F8C
:10A76000F2D108EB480804234FEAC80E1A4659E60E
:10A7700094F861301F2B10D84FF0A04303F5A1626D
:10A7800003F20C532046C4E9012300F0D3FC00205F
:10A79000BDE8F8830220BDE8F8833A4BEEE727696D
:10A7A0003978C1F3C101C4E9062584F86410002E8C
:10A7B0003FF490AE3A78606902F01F0203FA02F2A9
:10A7C000C900CA40027094F8622002EB42025200B3
:10A7D000012A7FF77DAE1D46226994F86410D25C91
:10A7E000606902F01F0205FA02F2C900CA40C254B1
:10A7F00094F862200133DBB202EB4202B3EB420F6A
:10A80000EADB65E60320704727693B78C4E9062543
:10A81000C3F3001284F86420002E3FF45BAE3B7853
:10A82000606903F01F0301FA03F31201D3400380B0
:10A8300094F8623003EB43035B00012B7FF748AED3
:10A840000A460D46236994F864109B5C606903F026
:10A850001F0305FA03F30901CB4020F8123094F8E6
:10A8600062300132D2B203EB4303B2EB430FE9DBB8
:10A870002EE6012202FA03F313F48B7F3FF4C7ADF7
:10A880001346CFE50003005090F86030012B05D04F
:10A89000022B01D000F012B900F06ABA00F000B843
:10A8A0002DE9F04F034691B093F86830D0F814B01A
:10A8B000049104469646406A33B194F86A30E26CDB
:10A8C000C3F1010302FB0300B4F85E2094F8656055
:10A8D000D31DDB08C2EBC302062E50FA82F24FEA08
:10A8E000C30700F0E580C6F10503DBB24FF4006159
:10A8F00001FA03F8402101FA03FC012101FA03F0F7
:10A9000094F86690B9F1000F00F0CB800EF1FF33A0
:10A9100000251BB24FEA4E0ACDE90C8C0A93804603
:10A920004B460595A146714609950B97504634460E
:10A93000002C00F0AC804FF0000CDDE90C57CDE9A5
:10A94000062CC246CDF838800F90CDF820C099F97A
:10A9500067000028B8BF4042013840B2461C7DD095
:10A96000069C009503FB01F8049A01FB00F603FB2B
:10A9700006F610F0010C02EB86064FEA48024CD0B6
:10A9800099F967E0BEF1000F52DB059D06EB050E5D
:10A990000EEB0206002200295AD0CDE90291009D5B
:10A9A00001901FFA8CFC04EB01083EF8121036F8F7
:10A9B000120011EA050318BF9BF8003039421CBF92
:10A9C0009BF8019043EA090311EA0A0F1CBF9BF8A8
:10A9D00002100B4328421CBF9BF803100B43384264
:10A9E0001CBF9BF804100B4310EA0A0F1CBF9BF816
:10A9F00005100B4304F8013B6244444512B2D4D124
:10AA0000DDE90291019899F866300095421E50B236
:10AA1000421C20D003FB01F8A6E7059D06EB050EBE
:10AA20000EEB02060029F1D04FF0010C0022B4E732
:10AA3000099D03F1FF3CACEB050C01FB0CFC06EBA4
:10AA40004C0606EB020E4FF0FF3C0A9A0029A4D1F7
:10AA5000421E50B288E7009D99F86540089A7F0031
:10AA600012BB052C20D94FF0010A4FF40065079A5C
:10AA700006980B9E01320792D2B23044A242069051
:10AA80000892FFF464AF0246DDF838800F98099D04
:10AA9000059E01350995EDB206449D420596FFF4E9
:10AAA00047AF11B0BDE8F08F6D004FEA4A0ADEE70C
:10AAB00010204FF0200C4FF4004821E72DE9F04F13
:10AAC00097B09246069190F868104469436AC26C48
:10AAD000019061B1014690F86A0091F86010B2FBF4
:10AAE000F1F1C0F1010000FB01F103EB81030199D9
:10AAF000B1F85E0091F86510C51DED08C0EBC5000A
:10AB000006294FEAC505C6B200F02B81C1F1050147
:10AB1000C9B24FF4006000FA01F94020884010905B
:10AB2000012000FA01F71846002135F093F900EBF7
:10AB30008606019890F86230002B00F00A810AF135
:10AB4000FF3291B24A1C920008924FEA4A0290F8F2
:10AB5000668011924FEA8A024FEA850C0792002222
:10AB600004F1180BCDF83CC00592CC463446CDF824
:10AB700048A0C146B9F1000F00F0E280019A00231D
:10AB800092F8652009930D9366463B460F46002ACE
:10AB900000F0C580CDE91363002039B2DDF840A094
:10ABA000DDF848C00E91B0460B909E460A9415976A
:10ABB0000C90019B93F9671081EAE173A3EBE173B9
:10ABC000013B5BB2581C00F08F800A9D09FB0CF71B
:10ABD00028466646029781EAE177059AA7EBE17776
:10ABE000FFB202FB073706FB07F7069A09FB07F7D8
:10ABF00002EB8707029A13F001044FEA420253D096
:10AC000000295BDB099D07EB050C0CEB020700221A
:10AC1000002E62D007990496CDE902304518A4B2FF
:10AC200001463CF8129037F8126019EA080318BF81
:10AC30005BF8183C19EA0A0F1CBF5BF8140C0343BD
:10AC400019EA0E0F1CBF5BF8100C034316EA080F3D
:10AC50001CBF5BF80C0C034316EA0A0F1CBF5BF821
:10AC6000080C034316EA0E0F1CBF5BF8040C0343E9
:10AC700051F8040B22441843A94212B241F8040CC3
:10AC8000CFD1DDE90230089A049E1044019A92F86F
:10AC90006690013B5BB25A1C22D0019A92F9671070
:10ACA00009FB06F2029296E7099907EB010C0CEBFF
:10ACB0000207002EEDD001240022ABE70D9D09F123
:10ACC000FF34641B06FB04F407EB440707EB020C9C
:10ACD0004FF0FF340E9A002E9CD1013B5BB27AE715
:10ACE000019B93F86520B4460C9B4FEA4A0A002B5F
:10ACF00032D1052A30D94FF0010E4FF400680B9B7A
:10AD00000A990F9801330B93DBB2014493420A91E5
:10AD10000C93FFF44EAFDDE91363159F0C460D99BC
:10AD20000998119D01310D91C9B2284449450990F6
:10AD3000FFF42DAF39461F46019B93F86230B446AD
:10AD4000059A01320592D2B293420BF1180B3FF6ED
:10AD500011AF17B0BDE8F08F4FEA48084FEA4E0E2A
:10AD6000CDE72021102710914FF40049DBE600BF0A
:10AD70002DE9F04F97B04569079190F8681012924D
:10AD8000436AC26C019061B1014690F86A0091F883
:10AD90006010B2FBF1F1C0F1010000FB01F103EB27
:10ADA00041030199B1F85E0091F86510C61DF608DF
:10ADB000C0EBC60006294FEAC606C4B200F02681E1
:10ADC000C1F10501C9B24FF40060884011904020E4
:10ADD00000FA01F9012000FA01FA1846002135F0C5
:10ADE00039F8019B93F8627000EB4404002F00F0E7
:10ADF000068105F10C01129D93F866300B946A1ED2
:10AE000090B2421C520009926A004FEA460B089227
:10AE10000022CDF840B00446069248468B4699463B
:10AE2000B9F1000F00F0E280019A002392F865204A
:10AE30000A930E938646D0464B46002A00F0C58002
:10AE40000027CDE913E8C14621B2119DDDF8488005
:10AE50000F91F2460C9715940D97019991F967009F
:10AE600080EAE071A1EBE07101394CB2611C00F0A5
:10AE700092800B99029503FB08FE80EAE076069A21
:10AE8000A6EBE076F6B202FB064608FB06F6079A4A
:10AE900003FB06F614F0010702EB86064FEA4E02AA
:10AEA00058D0002861DB0A9D06EB050C0CEB02066E
:10AEB0000022B8F1000F67D0089B029DCDF81480E6
:10AEC000CDE90341BFB201EB030E08463CF8121076
:10AED00036F8124011EA050318BF3BF80C3C11EAA2
:10AEE0000A0F1CBF3BF80A8C43EA080311EA090F5A
:10AEF0001CBF3BF8081C0B432C421CBF3BF8061C34
:10AF00000B4314EA0A0F1CBF3BF8041C0B4314EA62
:10AF1000090F1CBF3BF8021C0B4330F8021B3A44DC
:10AF20000B43704512B220F8023CCFD1DDE903415A
:10AF3000099BDDF8148002951944019B93F8663053
:10AF4000621E54B2621C22D0019A03FB08FE92F9E1
:10AF5000670092E70A9806EB000C0CEB0206B8F1CA
:10AF6000000FEDD001270022A6E70E9D5F1E7F1B7C
:10AF700008FB07F706EB470606EB020C4FF0FF371E
:10AF80000F9AB8F1000F97D1621E54B275E7DDE950
:10AF9000012592F865200D994FEA4A0A002931D11E
:10AFA000052A2FD94FF001094FF400650C990B9831
:10AFB000109C01310C91C9B2204491420B900D912B
:10AFC000FFF44BAFDDE913E8159C0E990A98089D34
:10AFD000013128440A90C8B298420E91FFF42DAF77
:10AFE0009946019B93F862707046C246069B0133F6
:10AFF0000693DBB29F420BF10C0B3FF611AF17B07B
:10B00000BDE8F08F6D004FEA4909CFE74FF40041EA
:10B010004FF0100A4FF020091191DEE690B110B503
:10B0200000F0D8FA0446406A08B157F0A3FFA06CBC
:10B0300008B157F09FFF206918B157F09BFF00231C
:10B04000236110BD704700BF2DE9F047109F9DF8A8
:10B0500024609DF82CA09DF830909DF834809DF8D8
:10B0600038E09DF93CC0002859D0052B28BF0523A6
:10B07000052E354628BF0525BCF1000F08BF4FF04F
:10B08000010C002F4BD0BCF1000F80F867C080F896
:10B090006230B8BFCCF1000C03EB43035FFA8CFCC9
:10B0A0005B00076080F84480A0F85C1000271CFB60
:10B0B00001F15FFA83F8A0F85E10044680F865207D
:10B0C00080F861A080F8349080F868E080F86350E0
:10B0D000876447620121404658F038F8206128B360
:10B0E0000121280158F032F88146A0642069B9F1A5
:10B0F000000F17D00899424634F0F2FC66B10A9B63
:10B10000591E3B46A26C11F8016F02EB031201338A
:10B11000D8B285421673F5D80020BDE8F087032029
:10B12000BDE8F08757F026FFC4F810900220BDE874
:10B13000F08700BF00286CD070B590F8661090F8CA
:10B1400065304A1E013BDBB2D2B280F86B30012978
:10B1500080F86C2088BF90F86C3090F8631088BF3E
:10B1600003F1FF334FF000028CBFDBB2012380F804
:10B170006D30044680F86E20826500293CD00120A5
:10B18000244940F20335844612E01F2B86BF03F0AA
:10B190001F030E464FF0A0460CFA03F3C6F808351D
:10B1A00094F863E00132D3B240009E45C0B223D987
:10B1B000A36C03EB021316011B7B1F2B86BF03F04E
:10B1C0001F038E464FF0A04E03F5E0734EF8235058
:10B1D000A36C94F86DE033441EEA000F1B7BD4D1BE
:10B1E0001F2B86BF03F01F030E464FF0A0460CFA3C
:10B1F00003F3C6F80C35D3E7204600F059FA23686C
:10B2000001224FF47A715A60DA60C3F840151A606F
:10B2100070BD70470003005090F8623053B310B512
:10B220000023154C4FF0010C13E01F2A86BF02F0DB
:10B230001F02A6464FF0A04E0CFA02F2CEF80825E7
:10B2400090F862200133DBB202EB4202B3EB420F13
:10B250000FDA0269D25C0029E7D11F2A86BF02F00B
:10B260001F02A6464FF0A04E0CFA02F2CEF80C25B3
:10B27000E6E710BD704700BF000300502DE9F04124
:10B28000836B026C1A60D0E90B231360826AA94DAC
:10B290001360036801245C6003685C64D3F8443580
:10B2A000C26A90F86B30016B1160074603F0FF062D
:10B2B000254353BB90F86310B04609B397F86C3040
:10B2C00097F86D2053401C424FEA081010D0BA6C1A
:10B2D00097F86CC002EB08131CEA040F996814BFBE
:10B2E00013585B684FF400701960A84797F8631013
:10B2F00008F101085FFA88F364009942E4B2DDD8EE
:10B3000097F86C30DBB287F86D3097F86B3097F8B0
:10B3100065200133DBB29A4287F86B300DD80022EA
:10B3200087F86B2097F86C3097F866100133DBB222
:10B33000994287F86C3040F29A803A6D3B6802FA85
:10B3400006F601225A604020DA60C3F840651A60B0
:10B35000A847D7E90F321A60B7F85E2097F86C104B
:10B3600097F8650097F86B3097F860E0073200FBBC
:10B3700001334FEAE20CD10897F86820C9000EFBB0
:10B3800003F301FB03F322B197F86A20F96C01FB88
:10B3900002337A6ABEF1010F1A44D7E90665D7E98C
:10B3A000013400F0C9805FFA8CFC0CF1FF31BEF172
:10B3B000020F5FFA81F86CD0BCF1000F40D002EBB5
:10B3C00048114031203252F8200C18601E6000BF36
:10B3D00000BF256052F81C0C18601E6000BF00BF43
:10B3E000256052F8180C18601E6000BF00BF256071
:10B3F00052F8140C18601E6000BF00BF256052F8A0
:10B40000100C18601E6000BF00BF256052F80C0CC5
:10B4100018601E6000BF00BF256052F8080C18605D
:10B420001E6000BF00BF256052F8040C18601E604B
:10B4300000BF00BF20328A422560C4D197F8650062
:10B44000012812D997F86B307BB93A68012353640D
:10B450003B6DD2F84425C3EBC303134404337A6D28
:10B46000DB08934238BF13463B65BDE8F08187F89F
:10B470006C2097F86E3043B197F86A30C3F101033E
:10B48000DBB287F86A3087F86E20BB6D0133BB658D
:10B4900053E797F8641003EB4101BCF1000FCFD0E4
:10B4A00002EB08102030103232F810CCA1F800C0A6
:10B4B0001E6000BF00BF256032F80ECCA1F800C0AE
:10B4C0001E6000BF00BF256032F80CCCA1F800C0A0
:10B4D0001E6000BF00BF256032F80ACCA1F800C092
:10B4E0001E6000BF00BF256032F808CCA1F800C084
:10B4F0001E6000BF00BF256032F806CCA1F800C076
:10B500001E6000BF00BF256032F804CCA1F800C067
:10B510001E6000BF00BF256032F802CCA1F800C059
:10B520001E6000BF00BF103282422560BCD197F878
:10B53000650085E710C30B0097F864100CF1FF3E1F
:10B5400019441FFA8EFEBCF1000F3FF479AF02EBF5
:10B55000CE0E0EF1100C083212F8080C08701E60A6
:10B5600000BF00BF256012F8070C08701E6000BF06
:10B5700000BF256012F8060C08701E6000BF00BFF7
:10B58000256012F8050C08701E6000BF00BF256022
:10B5900012F8040C08701E6000BF00BF256012F88E
:10B5A000030C08701E6000BF00BF256012F8020C7B
:10B5B00008701E6000BF00BF256012F8010C087003
:10B5C0001E6000BF00BF083294452560C4D197F8C3
:10B5D000650035E700285CD0436A002B59D030B4B1
:10B5E00090F86E2002F0FF03002AF9D102680125CD
:10B5F000556002685564816BD2F84425026C0A607C
:10B6000090F86220B2B123490269D25C1F2A0C462D
:10B610008CBF02F01F024FF0A04405FA02F2C4F8FA
:10B620000C2590F862200133DBB202EB4202B3EB4F
:10B63000420FE9DBB0F85E3023B3164C00224FF026
:10B64000010C90F861301F2B21468CBF03F01F03C3
:10B650004FF0A0410CFA03F3C1F8083500BF00BF5A
:10B6600090F861301F2B21468CBF03F01F034FF071
:10B67000A0410CFA03F3C1F80C35B0F85E3001328A
:10B680009A42DED3826A036B1360C26A136030BCD5
:10B69000704770470003005090F8683033B10123C1
:10B6A00080F86E3090F86E30002BFBD1704700BFF1
:10B6B0001F4A0368934212D002F58052934231D060
:10B6C00002F5805293422FD002F5803293422DD062
:10B6D00002F58052934208BF042201D07047002235
:10B6E000144B03EBC201002091F9041053F83230DF
:10B6F00010B401224FF4803481425A60C3F804052B
:10B70000DA60C3F80805C3F81005C3F8044306DB84
:10B710004809094B01F01F018A4043F820205DF8D9
:10B72000044B70470122DBE70222D9E70322D7E767
:10B730000080004018C30B0000E100E0BFF34F8F12
:10B740000549064BCA6802F4E0621343CB60BFF3BD
:10B750004F8F00BFFDE700BF00ED00E00400FA05D9
:10B76000014B1868704700BF54000120D0B5FBF7AB
:10B77000B1FD0C4B002206460F46FBF7C9FFFCF754
:10B78000F3F80446FBF784FD074B0022FBF7C0FFEC
:10B7900002460B4630463946FBF73CFCFCF7E4F822
:10B7A0002146D0BD0000F03D0000F04170B510EE24
:10B7B000106A26F000450123B5F1FF4F2DED048BF3
:10B7C000B0EE408A036024D2C5B1B5F1E45F04460F
:10B7D0000FD2002EBEBF4FF0FF330360B1EE400A20
:10B7E00032F0AAF8F1EE408AB0EE680ABDEC048BA4
:10B7F00070BD002E14DAB5F1964F6BD3DFEDDC7A15
:10B80000B7EE007AC7EE278AB0EE680ABDEC048B6B
:10B8100070BD60EE008AB0EE680ABDEC048B70BDAE
:10B82000B5F17E5F53D0B5F1804F50D0730077D41F
:10B830009FEDCF9ACF4B9D4240F23882CE4B9D4236
:10B8400040F2E081F0EE006A76EEC86ADFEDC88A69
:10B850009FEDCA6A9FEDCA7ADFEDCA5A9FEDCA5AB8
:10B8600066EEA67AA7EE867AA7EEA55A9FEDC76A7E
:10B87000DFEDC75AA7EE276AE5EE275A9FEDC57A96
:10B880009FEDC55AA6EE277AA5EEA75A9FEDC36A8B
:10B89000DFEDC35AA7EE276AE5EE275A9FEDC17A7E
:10B8A000A6EE277A9FEDC06AA5EEA76A27EE267A54
:10B8B000B6EE005AA6EE277AF0EE477AE6EEC57AA3
:10B8C00077EEA88A002E8FDA79EE688A8CE7DFEDB2
:10B8D000A88A89E7B5F17A5FC0F0F681F1EE408A77
:10B8E000B0EE680A2AF096FCF4EE408AF1EE10FA07
:10B8F00040F01C81DFEDAD7A77EEC87A17EE903A12
:10B9000003F0010307EE903AF8EEE77A9B00062B6E
:10B9100000F23082DFE803F05ABFBF5656CECE00A9
:10B92000B5F1824F80F015819FED919ADFEDA06A0D
:10B930009FEDA06A9FEDA05ADFEDA05ABDEEC87A38
:10B94000F8EEC77A17EE103A78EE677A033BA7EE67
:10B95000A66AE7EE855ADFED9A6A9FED9A5AE6EEFF
:10B96000276AA5EEA75A9FED986ADFED985AA6EED2
:10B97000A76AE5EE275ADFED966A9FED965AE6EE46
:10B98000276AA5EEA75A9FED946ADFED945AA6EEBA
:10B99000A76AE5EE275ADFED926AE6EE276AB7EE70
:10B9A000006AA5EEA76A66EEA76AB6EE005AC6EE72
:10B9B000868AE7EE858A042B84D8DFE803F09D8A27
:10B9C000AFA0B200B7EE007A77EE677A9FED850AF6
:10B9D000DFED670A27EE800A002000F00DFFB1EED0
:10B9E000409AB5EE409AF1EE10FA3FF407AF68EED8
:10B9F000097A9FED7C0AF0EEE77A80EE270A31F0B3
:10BA00009BFFB5EEC09AF1EE10FA44BF4FF0FF3342
:10BA10002360B5F17E5FF0EE408A3FF4E5AEB5F10C
:10BA2000804F3FF4E1AE7200B1EE488AB0EE409A2A
:10BA30007FF500AFB5F1824FFFF478AFB0EE480A62
:10BA400031F07AFFF7EE007A87EE886A30EE677A97
:10BA50009FED653ADFED653A9FED654ADFED654A9A
:10BA60009FED655ADFED655ADFED658A66EE067A71
:10BA7000F6EE006AE7EE833A78EE666AA3EEA74A2E
:10BA8000E4EE274AA4EEA75AE5EE275AE5EE868AA9
:10BA9000E6EE878A16E7B6EE007A77EE677A9FEDD4
:10BAA000510ADFED330A27EE800A00F0E3FAB1EE27
:10BAB000409A96E7B7EE087A77EEC77A9FED490A83
:10BAC000DFED2B0A27EE800A00F0D4FAB0EE409AA0
:10BAD00087E7B7EE007AB0EE080A37EE800A20EE6C
:10BAE000070AB0EE007A77EE877A27EE800A31F007
:10BAF00023FF78EE808AE5E6B7EE000AF1E7B7EEBD
:10BB0000007AF1EE046A77EEA66A66EE876AB1EE15
:10BB1000007A37EE877A27EE267ADCE7F7EE006ABE
:10BB2000F5E7B1EE087A37EE877AEAE7F6EE007AC3
:10BB300068EEA78AB0EE680A2AF06CFB78EEC07A4D
:10BB400077EEA77AB0EE677ABEEECF7A17EE103AAC
:10BB5000DDE6B5F1B94FC0F0C38031F0EDFEF7EE90
:10BB6000007A70EE678A9FED029A68EE888AA9E6ED
:10BB7000000000006666663F17A6DD3FA283D3374C
:10BB800067976739752C3C384584E238A1549C3A54
:10BB900034B6053A7E02F23BC66E3D3B01F0893D6C
:10BBA0001599A83C3F239E3D661AA53E0000004B18
:10BBB00067FF0538B435F13ABDD7F536D6EE4B3AC6
:10BBC000E440DA3C54BF983CE6DC153E6E0F303E54
:10BBD0007ACCA63EC5D0383F5A245C3E3B2DB23FBE
:10BBE0003F239EBDDB0F4940E8C4D5BAD23D5B3A46
:10BBF0005C061CBAFD0C503A610B36BBABAAAA3DE1
:10BC00001D7FD63E5E4B9D426DD99FED5E7ADFED86
:10BC10005E8A38EE477A67EE073A9FED5C5ADFEDB1
:10BC20005C6ADFED5C5A9FED5C6ADFED5C4A9FED7C
:10BC30005C4A63EE877AE7EE855AA7EEA66A9FED27
:10BC4000595ADFED596AA5EEA75AE6EE276ADFEDED
:10BC5000575A9FED576AE5EE275AA6EEA76AA7EE58
:10BC6000A44ADFED546A9FED545ADFED544AA6EE24
:10BC7000275AE5EEA76AE4EE274ADFED515A9FED19
:10BC8000516AE5EE076AE4EEA75A9FED4F7A9FED01
:10BC90004F5AA6EEE77AA5EEA76AF0EE477AD3EE02
:10BCA000867A77EEC57A77EEA88A0BE6B0EE480A78
:10BCB00031F042FE464B9D42F1EE408A52D9F7EEFA
:10BCC000006A76EEC86AC3E59FED420ADFED2E0AF0
:10BCD00028EE000A002000F08FFDB0EE409A80E6CA
:10BCE0009FED299AAAE6F7EE007A38EE678ADFED33
:10BCF000268ADFED396ADFED397A9FED397A9FEDDB
:10BD0000396AE8EE267AA8EE076ADFED376A9FED1A
:10BD1000377AE7EE886AA6EE087ADFED357A9FED8E
:10BD2000356AE6EE887AA7EE086ADFED336A9FEDA2
:10BD3000337AE7EE886AA6EE087ADFED317AE6EE2E
:10BD4000887AF7EE006AE7EE086A67EE887ABEEE58
:10BD5000006A87EEA67AF0EE477AE8EE067A77EE8A
:10BD6000A88AAFE5274B9D42C3D99FED277A38EECD
:10BD7000477A50E7B0EE007A77EEC77A26E600BF42
:10BD80001FA69D3FC316BB3F0000000027F9A3B9C3
:10BD9000F7E9AF3967F8663A85300DBA6B7BA5399C
:10BDA00076F4B7BAFE7771BB9916143B3D37933CD6
:10BDB000FEFC28BC3C2117BE155A843D07E7C73B53
:10BDC000474D06BD5EB9F73E521CE631CDCDF83D7C
:10BDD0001F4A3B3FDB0F49405E3C5B3C78756A3E47
:10BDE000DBD5523BAF72D53DB24B7A3FDFEF443FDC
:10BDF000E73ABA3F2D390840F400223FBE2E1D40DD
:10BE00003F239EBD07336D3E0C5BEC3E30B510EE1C
:10BE1000103A8A4A23F0004C944587B0044665D90D
:10BE2000874A94451D4624D823F00042002BDFEDBD
:10BE3000857A854922F00F02B0EE407A40F3E48023
:10BE40008A4270EE677A09BF9FED807ADFED806AE3
:10BE5000DFED806A77EEC77A37EEE67A77EEC77A5B
:10BE600080ED007A77EEE67AC0ED017A012007B026
:10BE700030BD794A944540D8DFED786ADFED715ADC
:10BE8000F0EEC07AB6EE007AA7EEA67ADFED706A21
:10BE9000BDEEC77AB8EEC76A17EE100AE6EE657A0D
:10BEA0001F2826EE267AF1EE465A77EEC76A69DC3D
:10BEB0006B4A411E23F0004352F8212023F0FF0378
:10BEC00093425FD0C4ED006A77EEE67A002D77EEFC
:10BED000C77AC4ED017ACADAF1EE666AF1EE677AE2
:10BEE000C4ED006AC4ED017A4042C0E7002284ED4F
:10BEF000000A4260002007B030BDBCF1FF4F73D292
:10BF00004FEAEC52863AACEBC25307EE903ABDEEE4
:10BF1000E77ADFED546AB8EEC77A77EEC77A8DED2F
:10BF2000037A67EEA67ABDEEE77AB8EEC77A77EEC7
:10BF3000C77A8DED047A67EEA67AF5EE407AF1EED7
:10BF400010FACDED057A5DD1B5EE407AF1EE10FA3A
:10BF500056D10123444901910221009103A82146B1
:10BF600000F00AF9002D82DA94ED007AD4ED017A1E
:10BF7000B1EE477AF1EE677A84ED007AC4ED017A8A
:10BF8000404274E716EE903AC3F3C753C3EBDC5359
:10BF9000082B4FEAEC5295DDDFED2C6ADFED2D4AE0
:10BFA000B0EE675AA5EEA65A37EEC57AA5EEA67A88
:10BFB00096EE247A75EE476A16EE903AC3F3C753AD
:10BFC000D21A192A17DDDFED296ADFED294AF0EED2
:10BFD000457AE5EEA67A35EE677AA5EEA67A96EE74
:10BFE000247A77EEC76A6DE770EE407AC0ED017A89
:10BFF000C0ED007A7EE7F0EE457AC4ED006A63E7B3
:10C000000223A7E70323A5E78A4270EE277A09BF38
:10C010009FED0E7ADFED0E6ADFED0E6A77EE877A1E
:10C0200037EEA67A77EEC77A80ED007A77EEA67AB9
:10C03000C0ED017A4FF0FF3019E700BFD80F493F3C
:10C04000E3CB1640800FC93FD00FC93F00443537BE
:10C050004344353708A3852E800F494384F9223F96
:10C0600048760B0000008043C8760B0000A3852EA5
:10C0700032318D2410EE103A23F00043B3F1485FC3
:10C080002CD2FDEEC07A17EE903A002B60D060EE15
:10C09000007A9FED317A9FED315ADFED315A9FEDF5
:10C0A000316ADFED316AA7EE875A9FED307AE7EE0D
:10C0B000855AA7EEA56AA7EE867AE7EE876A67EE4D
:10C0C000A66A60EEC00AB6EE007AE7EEA60AB7EE00
:10C0D000000AD7EE870A30EE600A704760EE007AF9
:10C0E0009FED1D7A9FED1D5ADFED1D5A9FED1D6AD4
:10C0F000DFED1D6A1E4AA7EE875A93429FED1B7A19
:10C10000E5EE275AA5EEA76AA6EE277AE7EE276A9C
:10C1100066EEA76AD5D9174A934214D803F17F4334
:10C1200007EE103AB7EE006A36EE476A60EEC00AD4
:10C13000F6EE005A97EEA57AE7EEA60A37EE607A99
:10C1400036EE470A7047B6EE076AB5EE027AEDE7BB
:10C15000B7EE000A704700BF4ED747ADF6740F31F7
:10C160007CF293B4010DD037ABAA2A3D610BB6BA6D
:10C170009999993E0000483F2DE9F04F2DED048B31
:10C18000DBB01C46944603930A46CE4B68991CF1DB
:10C19000040F53F82170824604F1FF39C0F2518236
:10C1A000BCF1030348BF0CF10403DB10029301331D
:10C1B0004FEAC30EACEB0E030593029B17EB09008D
:10C1C000A3EB090315D401309FEDBF7A699C184495
:10C1D0001EA9002BA4BFE55C07EE905A03F10103F2
:10C1E000ACBFF8EE677AF0EE477A8342E1EC017A71
:10C1F000EFD1002FC0F2DD8203991EA800EB810071
:10C200004FEA81087E18002346AD4C460AEB8101B7
:10C21000B9F1000F80F2C4800134B44245F8043B08
:10C2200000F10400F4D10DF1280B0BEB8703CDE9ED
:10C23000062E043B9FEDA69ADFEDA48A0598049391
:10C240000AEB080446AE0BEB87080097CDF820C038
:10C250000DEB8703002F93ED460A4FEA870515DDA6
:10C2600073195A4660EE097AB0EE407AFDEEE77A2D
:10C2700073ED016AF8EEE77AB342A7EEE87A37EE9B
:10C28000A60ABDEEC77AA2EC017AEBD101905BF071
:10C29000E3FAF4EE007AB0EE408A20EE270A29F0A5
:10C2A000B9FFF2EE007AA0EE678A01980028FDEE51
:10C2B000C89AF8EEE97A38EE678A7EDD791EC0F119
:10C2C00008035BF821E04EFA03FC0CFA03F3AEEB33
:10C2D000030EC0F1070219EE903A4EFA02F26344DF
:10C2E000002A09EE903A4BF821E000F3AC80B5EE5D
:10C2F000408AF1EE10FA71D1009B9F420ADD5D4445
:10C30000002355F8041D454543EA0103F9D1002BEC
:10C3100040F0FF80009B013B07F1010E5BF82330EA
:10C32000F446002B40F0F380049B012153F8042DC8
:10C330000131002AFAD03944029A039B3B4402EBB4
:10C340000E07699A013F1EAD174406EB8E0E05EBF2
:10C35000830517F8013F07EE903AF8EE677AB9F1D6
:10C36000000FE5EC017ADFED587A09DB2A465346E7
:10C37000F3EC016A32ED017AA342E6EE877AF7D157
:10C380000CF1010C8C45EEEC017AE2DD0F465FE723
:10C390000134B442E5EC017A00F104003FF443AF0C
:10C3A000DFED497A83465346F3EC016A3BED017AAF
:10C3B0008B42E6EE877AF7D1EAE700F09180F6EE5D
:10C3C000007AB4EEE78AF1EE10FA80F22981B5EE38
:10C3D000408AF1EE10FA4FF000028DD09246DDE96E
:10C3E000062EDDF820C00197AEEB0C00B0EE480A37
:10C3F000009F00925BF030FADFED346AB4EEE60A9B
:10C40000F1EE10FADDE90023F0EE407AC0F29B81F4
:10C410009FED2F7A059920EE077A0831BDEEC77A95
:10C420000591B8EEC77A5C1CE7EE667ABDEEC77A76
:10C43000FDEEE77A17EE901A4BF8231017EE103A3C
:10C440004BF824307EE00133002F09EE903A40F3A0
:10C450009C8159464FF0000E51F8043B002B39D017
:10C46000C3F5807341F8043C04E00B68C3F1FF039B
:10C4700041F8043B0EF1010E7745F6DC01239E46A0
:10C4800000280BDD012800F0C380022806D1791EA8
:10C490005BF8213003F03F0C4BF821C0022A7FF4F7
:10C4A00026AFB7EE000A734630EE488A002B3FF401
:10C4B0001EAF099201905BF0CFF90198099A38EE0E
:10C4C000408A14E73C760B00000000000000804327
:10C4D0000000803B0EF1010E7745BDDC9E46CFE7A4
:10C4E0007B1E5BF823201212002A7FF700AF19EEA3
:10C4F000903A002F03F1010309EE903AA9DC022AD9
:10C500007FF4F5AEF7EE007A37EEC88AEFE67146B3
:10C5100012E73B469246DDE905125C1EA1F10800D8
:10C520005BF82410009F059061B903F18043013B43
:10C530000BEB8303014653F8040D013C0839002836
:10C54000F9D0059105980092B7EE000A5BF084F9E6
:10C55000002C009AB0EE407AC0F22181601C46ADFA
:10C560005FED256A81000BEB800305EB800073ED26
:10C57000017AF8EEE77A5B4567EE877A27EE267A4E
:10C5800060ED017AF3D10DF1C8080E1F2E44C646A6
:10C59000A4460025002F7DDBDFF85892DFED947A6A
:10C5A0003046002307E0F9EC016AB0EC017A9F42C3
:10C5B000E6EE877A03DBAB4203F10103F3DD0CF116
:10C5C000FF3CBCF1FF3FEEEC017A05F10105A6F15D
:10C5D0000406E1D1689B022B6ADC002B36DC0ED10D
:10C5E000DFED837A414431ED017A884577EE877A31
:10C5F000F9D15346002B40F0C580C2ED007A19EE08
:10C60000903A03F007005BB0BDEC048BBDE8F08FFF
:10C61000791E5BF8213003F07F0C4BF821C03DE719
:10C6200019EE903A002F03F1010309EE903AC8BFCA
:10C6300002223FF70EAFF7EE007A37EEC88A0222E9
:10C6400055E600234FF0080E0293B3E5DDED327A94
:10C650009FED677A414471ED016A884537EE267A8D
:10C66000F9D15346002B40F0838077EEC77A82EDF4
:10C67000007A64B133A90123B1EC017A01339C4201
:10C6800077EE877AF8DA53460BB1F1EE677AC2EDAE
:10C69000017AB4E70CF1FF3C0023BCF1FF3F4EF8F8
:10C6A000043B05F10105A6F104067FF473AF91E7A1
:10C6B000689B032BA3D1002C00F08B8008EB840532
:10C6C00095ED007AA6002B46294651ED017AF0EE51
:10C6D000476A37EE277A084677EEC77A043977EE4D
:10C6E000A67A8845C0ED007A00ED017AEDD1012CE3
:10C6F0006FD095ED007A73ED017AF0EE476A37EE70
:10C70000277A834277EEC77A83ED007A77EEA67AAE
:10C71000C3ED017AEFD1311DDFED357A8844043362
:10C7200038ED017A434577EE877AF9D15346DDED4E
:10C73000326A9DED337A73B9C2ED006A82ED017AF7
:10C74000C2ED027A5BE7FDEEC07A1C4617EE901A46
:10C750004BF82310F6E6F1EE666AB1EE477AF1EE99
:10C76000677AC2ED006A82ED017AC2ED027A46E78D
:10C77000F1EE476A77EEC77AC2ED006A002C7FF4CB
:10C7800079AF82E7F1EE677A37E7012815D0022802
:10C790007FF4B5AE0EF03F034BF82130AFE6689B57
:10C7A000022B12DC002B17DC7FF429AFDFED107AAF
:10C7B0001FE7039B4FEA830835E50EF07F03022A4B
:10C7C0004BF821307FF493AD9CE6689B032B7FF4FC
:10C7D00016AFDFED077AA9E75346DDED327A1BB1DC
:10C7E0004FF00043136050E7002313604FE700BF92
:10C7F0000000000010760B0010EE103A23F000430A
:10C80000B3F1485F04D2FDEEC07A17EE903A5BB305
:10C8100060EE007A9FED157ADFED155A9FED156AEF
:10C82000DFED156AE7EE875A9FED147AA5EEA76A49
:10C8300020EE275AE6EE276AA6EEA77A30B9DFED9A
:10C84000106AE7EE876AA6EE850A704727EE457AFA
:10C85000F6EE006AA0EEA67ADFED0A6AD7EE270AA6
:10C86000E5EE260A30EE600A704700BFD3C92E2FCE
:10C87000342FD7B21BEF3836010D50B98988083CE8
:10C88000ABAA2ABEABAA2A3E10EE103A23F0004211
:10C89000B2F1465FF0EE407A10D2BDEEC07A17EEEC
:10C8A000101A01BB431C134300F0A280012800F0C2
:10C8B0009E80BFEE007A87EE270A704750498A4271
:10C8C00011D39FED507ADFED506A002BBCBFF1EE23
:10C8D000600AF1EE407A77EE677A36EEE07ADFEDC5
:10C8E0004B0A77EE277A67EEA76ADFED494ADFED5C
:10C8F000495A9FED495A9FED496A414926EEA67A69
:10C900008A42E7EE245AA7EE056ADFED454A9FED1D
:10C91000455AE5EE874AA6EE075ADFED435A9FEDEA
:10C92000436AE4EE875AA5EE076ADFED414A9FEDC0
:10C93000415AE5EE874AA6EE075A9FED3F6ADFEDC2
:10C940003F5AA4EE876AE5EE075AB0EE467AA5EEA6
:10C95000A67A27EEA65AB0EE606AA7EE056ADFED6A
:10C96000384AE6EE260AE5EE240A37EEA00A20D27F
:10C9700001283CD0BFEE007AC7EE006A10EE103AF4
:10C980006FF30B0306EE103A16EE903A76EE677AE6
:10C990006FF30B0300EE103AB7EE007A70EEE70A81
:10C9A000F0EE477AE6EE007AE0EE807AA7EEA60A8D
:10C9B000704707EE100AB8EEC77A60EE006A30EEF4
:10C9C000070A9B1786EE806A03F00203C3F1010396
:10C9D000F0EE005A36EE606A06EE903A77EEC67ACE
