:020000022000DC
:1060000000E0032079860200856107008F670700A2
:1060100085610700856107008561070000000000B9
:106020000000000000000000000000008561070083
:106030008561070000000000856107008561070099
:106040006985020085610700CD890200A9880200E8
:10605000B988020085610700DD81020085610700C3
:1060600085610700AD890200BD89020049860200F2
:10607000856107008561070085610700856107006C
:10608000398E02005986020085610700856107008C
:106090008561070085610700198902008561070095
:1060A000856107008561070085610700856107003C
:1060B0008561070085610700000000000000000006
:1060C000856107008561070085610700C9880200B6
:1060D000698602008561070085610700ED8902007D
:1060E000DD8902008561070085610700F1880200F3
:0860F0000000000085610700BB
:10700000A0E8F00FA0EC108A6846704781F00041BC
:1070100002E000BF83F0004330B54FEA41044FEA7D
:10702000430594EA050F08BF90EA020F1FBF54EA18
:10703000000C55EA020C7FEA645C7FEA655C00F0B4
:10704000E2804FEA5454D4EB5555B8BF6D420CDD85
:107050002C4480EA020281EA030382EA000083EA08
:10706000010180EA020281EA0303362D88BF30BDA8
:1070700011F0004F4FEA01314FF4801C4CEA1131FE
:1070800002D0404261EB410113F0004F4FEA03335D
:107090004CEA133302D0524263EB430394EA050FE8
:1070A00000F0A780A4F10104D5F1200E0DDB02FA57
:1070B0000EFC22FA05F2801841F1000103FA0EF2EB
:1070C000801843FA05F359410EE0A5F120050EF1B1
:1070D000200E012A03FA0EFC28BF4CF0020C43FAE2
:1070E00005F3C01851EBE37101F0004507D54FF0EF
:1070F000000EDCF1000C7EEB00006EEB0101B1F53F
:10710000801F1BD3B1F5001F0CD349085FEA300084
:107110004FEA3C0C04F101044FEA445212F5800F8F
:1071200080F09A80BCF1004F08BF5FEA500C50F12C
:10713000000041EB045141EA050130BD5FEA4C0C0F
:10714000404141EB0101013C28BFB1F5801FE9D26C
:1071500091F0000F04BF01460020B1FA81F308BF8F
:107160002033A3F10B03B3F120020CDA0C3208DD5B
:1071700002F1140CC2F10C0201FA0CF021FA02F136
:107180000CE002F11402D8BFC2F1200C01FA02F1A6
:1071900020FA0CFCDCBF41EA0C019040E41AA2BFCB
:1071A00001EB0451294330BD6FEA04041F3C1CDA93
:1071B0000C340EDC04F11404C4F1200220FA04F0B3
:1071C00001FA02F340EA030021FA04F345EA03015D
:1071D00030BDC4F10C04C4F1200220FA02F001FA1F
:1071E00004F340EA0300294630BD21FA04F02946A1
:1071F00030BD94F0000F83F4801306BF81F480113A
:107200000134013D4EE77FEA645C18BF7FEA655CAC
:1072100029D094EA050F08BF90EA020F05D054EA7E
:10722000000C04BF1946104630BD91EA030F1EBF83
:107230000021002030BD5FEA545C05D14000494187
:1072400028BF41F0004130BD14F580043CBF01F57A
:10725000801130BD01F0004545F0FE4141F4700160
:107260004FF0000030BD7FEA645C1ABF194610463B
:107270007FEA655C1CBF0B46024650EA013406BF3C
:1072800052EA033591EA030F41F4002130BD00BFFB
:1072900090F0000F04BF0021704730B54FF48064B8
:1072A00004F132044FF000054FF0000150E700BF39
:1072B00090F0000F04BF0021704730B54FF4806498
:1072C00004F1320410F0004548BF40424FF0000185
:1072D0003EE700BF42004FEAE2014FEA31014FEAC8
:1072E00002701FBF12F07F4393F07F4F81F0605117
:1072F000704732F07F4208BF704793F07F4F04BF62
:1073000041F40021704730B54FF4607401F000453E
:1073100021F000411CE700BF50EA010208BF70479E
:1073200030B54FF000050AE050EA010208BF70478F
:1073300030B511F0004502D5404261EB41014FF4F8
:10734000806404F132045FEA915C3FF4D8AE4FF000
:1073500003025FEADC0C18BF03325FEADC0C18BFE3
:10736000033202EBDC02C2F1200300FA03FC20FA34
:1073700002F001FA03FE40EA0E0021FA02F1144481
:10738000BDE600BF4FEA4102B2F1E04324BFB3F5CE
:10739000001CDCF1FE5C0DD901F0004C4FEAC0028C
:1073A0004CEA5070B2F1004F40EB830008BF20F070
:1073B0000100704711F0804F21D113F13872BCBF2A
:1073C00001F00040704741F480114FEA5252C2F17F
:1073D0001802C2F1200C10FA0CF320FA02F018BFC8
:1073E00040F001004FEAC1234FEAD32303FA0CFC1B
:1073F00040EA0C0023FA02F34FEA4303CCE77FEAAA
:10740000625307D150EA01331EBF4FF0FE4040F4F3
:107410004000704701F0004040F0FE4040F40000A2
:10742000704700BF80F0004002E000BF81F00041E3
:1074300042001FBF5FEA410392EA030F7FEA226C1A
:107440007FEA236C6AD04FEA1262D2EB1363C1BFAA
:10745000D218414048404140B8BF5B42192B88BF19
:10746000704710F0004F40F4000020F07F4018BF3C
:10747000404211F0004F41F4000121F07F4118BF5C
:10748000494292EA030F3FD0A2F1010241FA03FC04
:1074900010EB0C00C3F1200301FA03F100F00043EC
:1074A00002D5494260EB4000B0F5000F13D3B0F1B4
:1074B000807F06D340084FEA310102F10102FE2A23
:1074C00051D2B1F1004F40EBC25008BF20F0010093
:1074D00040EA03007047490040EB0000013A28BF32
:1074E000B0F5000FEDD2B0FA80FCACF1080CB2EBB5
:1074F0000C0200FA0CF0AABF00EBC2505242184333
:10750000BCBFD0401843704792F0000F81F40001D7
:1075100006BF80F400000132013BB5E74FEA4103AA
:107520007FEA226C18BF7FEA236C21D092EA030F16
:1075300004D092F0000F08BF0846704790EA010F90
:107540001CBF0020704712F07F4F04D1400028BFBD
:1075500040F00040704712F100723CBF00F500009F
:10756000704700F0004343F0FE4040F400007047D5
:107570007FEA226216BF08467FEA23630146420281
:1075800006BF5FEA412390EA010F40F48000704794
:107590004FF0000304E000BF10F0004348BF40423A
:1075A0005FEA000C08BF704743F0964301464FF076
:1075B00000001CE050EA010208BF70474FF00003D2
:1075C0000AE000BF50EA010208BF704711F0004313
:1075D00002D5404261EB41015FEA010C02BF8446E3
:1075E0000146002043F0B64308BFA3F18053A3F542
:1075F0000003BCFA8CF2083AA3EBC25310DB01FA89
:1076000002FC634400FA02FCC2F12002BCF1004F0C
:1076100020FA02F243EB020008BF20F0010070479D
:1076200002F1200201FA02FCC2F1200250EA4C00F1
:1076300021FA02F243EB020008BF20EADC70704737
:107640007BB972B90029BEBF00204FF0004106E0AF
:1076500008BF00281CBF6FF000414FF0FF3000F062
:1076600081B9ADF1080C6DE904CE002909DB002BCE
:107670001ADB4FF082FCDDF804E0DDE9022304B000
:107680007047404261EB4101002B1BDB4FF075FC62
:10769000DDF804E0DDE9022304B0404261EB410182
:1076A000524263EB43037047524263EB43034FF094
:1076B00064FCDDF804E0DDE9022304B0404261EB44
:1076C00041017047524263EB43034FF056FCDDF833
:1076D00004E0DDE9022304B0524263EB4303704748
:1076E00053B94AB9002908BF00281CBF4FF0FF3129
:1076F0004FF0FF3000F036B9ADF1080C6DE904CE63
:107700004FF03BFCDDF804E0DDE9022304B07047F4
:1077100070B54FF0FF0C4CF4E06C1CEA11541DBF27
:107720001CEA135594EA0C0F95EA0C0F00F0DEF8F2
:107730002C4481EA030621EA4C5123EA4C5350EAD7
:10774000013518BF52EA033541F4801143F4801328
:1077500038D0A0FB02CE4FF00005E1FB02E506F0B9
:107760000042E0FB03E54FF00006E1FB03569CF00E
:10777000000F18BF4EF0010EA4F1FF04B6F5007F14
:1077800064F5407404D25FEA4E0E6D4146EB060686
:1077900042EAC62141EA55514FEAC52040EA5E500F
:1077A0004FEACE2EB4F1FD0C88BFBCF5E06F1ED8B9
:1077B000BEF1004F08BF5FEA500E50F1000041EBF0
:1077C000045170BD06F0004646EA010140EA02009D
:1077D00081EA0301B4EB5C04C2BFD4EB0C0541EABF
:1077E000045170BD41F480114FF0000E013C00F3D4
:1077F000AB8014F1360FDEBF002001F0004170BDF8
:10780000C4F10004203C35DA0C341BDC04F1140410
:10781000C4F1200500FA05F320FA04F001FA05F29C
:1078200040EA020001F0004221F0004110EBD37069
:1078300021FA04F642EB06015EEA430E08BF20EA95
:10784000D37070BDC4F10C04C4F1200500FA04F338
:1078500020FA05F001FA04F240EA020001F00041CA
:1078600010EBD37041F100015EEA430E08BF20EA3D
:10787000D37070BDC4F1200500FA05F24EEA020E85
:1078800020FA04F301FA05F243EA020321FA04F0B4
:1078900001F0004121FA04F220EA020000EBD3706B
:1078A0005EEA430E08BF20EAD37070BD94F0000F6B
:1078B0000FD101F00046400041EB010111F4801F9F
:1078C00008BF013CF7D041EA060195F0000F18BF50
:1078D000704703F00046520043EB030313F4801F8C
:1078E00008BF013DF7D043EA0603704794EA0C0F46
:1078F0000CEA135518BF95EA0C0F0CD050EA41065C
:1079000018BF52EA4306D1D181EA030101F00041D8
:107910004FF0000070BD50EA410606BF1046194600
:1079200052EA430619D094EA0C0F02D150EA01360C
:1079300013D195EA0C0F05D152EA03361CBF10464D
:1079400019460AD181EA030101F0004141F0FE41EC
:1079500041F470014FF0000070BD41F0FE4141F470
:10796000780170BD704700BF4A0011D212F50012B5
:1079700011D20DD56FF47873B3EB62520ED44FEA87
:10798000C12343F0004343EA505323FA02F0704707
:107990004FF00000704750EA013002D14FF0FF3045
:1079A00070474FF00000704730B5144685B019A3FA
:1079B000D3E90023FFF794FE0546A5F16150A0F539
:1079C000351001A9A0F5607046F0A6FF9DF80730BC
:1079D0009DF806200E491B0443EA42539DF80820F7
:1079E00043EAC2239DF8092043EA42139DF80A2086
:1079F00043EA5203BDF8042025F00105A2F2BC724F
:107A000043EA4263A5FB0101236005B030BD00BF1E
:107A100000CA9A3B00CA9A3B00000000182A2DE9D0
:107A2000F74F044625D0202A26D00A200423C4F884
:107A3000002184F8040184F80531204600F0A4FCFC
:107A40000022034694F80551AA4201F1040103F112
:107A5000040314D3DFF8DCC0DFF8DCE000EB8503BF
:107A600094F804210132B5EB820F1AD303B0BDE8BC
:107A7000F08F0C200623DAE70E200823D7E711F851
:107A8000045C03F8045C11F8035C03F8035C11F870
:107A9000025C03F8025C11F8015C03F8015C01323E
:107AA000D0E794F80521B5FBF2FA02FB1A5913F856
:107AB000041C13F8038C13F8027C13F8016C019278
:107AC000B9F1000F0BD11CF808B01CF807801CF8A6
:107AD00006701CF801601EF80A108BEA0101D4F848
:107AE0000021202A0CD1B9F1040F09D1DFF844900C
:107AF00019F8011019F8088019F8077019F80660CC
:107B0000019AAA1A043310F8229000EB820281EA4B
:107B1000090103F8041C517888EA010803F8038C72
:107B200091784F4003F8027CD278564003F8016CFC
:107B3000013595E78B360A0080360A002DE9F04FB3
:107B4000044685B0084600F01FFC8B46024682467C
:107B5000214600204EF0F3FA231D019304F1100397
:107B60000126029325462246002312F823103448AA
:107B7000415C02F823100133042BF6D1019B013242
:107B80009342F1D1627963786270627A6271627B4A
:107B90006272A27A6373A378A270A27BA372A379A4
:107BA000A271E27BA373E378E270E27AE273E27996
:107BB000E272E3719BF80431B34238D0297895F82A
:107BC0000180AF78EA7881EA080087EA020380EA58
:107BD0000309039365F039FF484089EA00002870E3
:107BE00088EA070065F031FF039B88EA000889EA0C
:107BF000080885F80180184665F027FF474089EAA4
:107C00000707AF7081EA020065F01FFF4240029B48
:107C100089EA020985F803900435AB42CED130469B
:107C20005246214601364EF08AFAF6B29AE752469B
:107C30002146304605B0BDE8F04F4EF080BA00BF97
:107C40008B360A002DE9F04F534D884603F00301AF
:107C50009B101F2B05EB81159E46A8BF4FF01F0EF2
:107C60001C2B1E468146A8BF1C264C486C6850F849
:107C7000211087B0033626EAE67634410091E968A0
:107C80000394AC683141002034410591AEF1030109
:107C900002900494019159F8046B41490E4226F078
:107CA000004410D106A901EB840454F8101C002EE6
:107CB00040EA0100B8BF4942013A48F8041BEAD142
:107CC00007B0BDE8F08F37490E4209D155F82410AE
:107CD000002BBABFCEF10004A14041FA0EF1E6E755
:107CE00031490E4213D1103C3049009F51F8241005
:107CF00081FB0747019900294ADA4C426FF00041A5
:107D000041FA04FCBC45D2DB07FA04F1CFE7610479
:107D1000B1F1006FB6BF610500240424B1F1005F2A
:107D2000B8BF8900224FB8BF0234B1F1804FBCBF49
:107D300049000134B942C7BF1E4FDFF888C01E4F4B
:107D4000DFF884C08A4687FB0ABADCF8047057441F
:107D50008A4687FB0ABADCF8087057448A4687FBD4
:107D60000ABADCF80C70BA448AFB0171DCF81070B6
:107D70000F44124951F8241087FB01C1009FC9002C
:107D800081FB07C70E4951F82410AEEB0101B2E7A1
:107D900047FA01F18BE700BFDC6F0A00CC6F0A00E5
:107DA000FCFFFF7FF0FFFF7FC0FFFF7F0C6F0A002B
:107DB0009979825A63218510A9BDA029EC6E0A0029
:107DC000CC6E0A00A46E0A00B86E0A002DE9F74FC7
:107DD00000F5A0480023476D88F8B43D88F8AE3D13
:107DE000B1F1000A03624FF0FF330CBF4FF0FF0BFD
:107DF0004FF00C0B4362836D0BEB07029A42C4BF3A
:107E0000DB1B03F1FF3B00F5DA7600F15409036C4C
:107E100004465A463146484698478345054613D19D
:107E2000002F7CD1A4490522304659F06CF978B175
:107E3000A2490522304659F066F948B10823E361AA
:107E4000002003B0BDE8F08F0623F8E70123F6E732
:107E5000B4F8BA3194F8BEB12360A360B4F8BC3171
:107E60006360E360CBF302130133A361BAF1000F47
:107E700040F0B08194F8BF3188F8B03D1BF0800F1E
:107E800088F8AFAD4ED00BF0070B0BF1010B4FF0A4
:107E9000030A05F5DA710AFA0BFA236C52462144FB
:107EA00048469847054498F8B50D01282ED804F5A2
:107EB0008D520221123201FA0BF1A44611449CF8B2
:107EC000C1319CF8C2E1DB084FEA9E0EDB0243EAB7
:107ED0004E139CF8C3E143EADE0308B15BBA9BB2E0
:107EE00022F8023F91420CF1030CE8D14FF0030A53
:107EF0000AFA0BFA0AF10D0A16F80A302C2B00F0D8
:107F0000E1803B2B11D10723E36163E104F58D5040
:107F1000524604F2C111143059F007F9EAE74FF064
:107F2000000AE9E74FF00D0AE6E7212B40F09980BF
:107F300006EB0A020AF102015378FE2B67D0FF2BF1
:107F400021D0012B5DD0F92B80D1735C042B13D190
:107F5000D17888F8AF1D5079137903EB00230A20FC
:107F60004343012BD8BF64232362C90744BF9379DD
:107F700088F8B13D0AF108018A46BDE70AEB030122
:107F8000BAF1000FF8D016F801A04B1CA5EB030BBB
:107F90000AF11F025A4514DB01F2B5115A46214479
:107FA0003046009359F0ECF8009B0BF5DA711F4452
:107FB0000AF12002236C21444846984700230BEB2A
:107FC0000005BAF10B0FD9D106EB030B3C49009326
:107FD0005246584659F097F8009B03F10B010028D0
:107FE000D1D19BF80B30032BCDD19BF80C30012B5A
:107FF000C9D19BF80E209BF80D3003EB022363627E
:10800000C1E7735C4A1C9918002BFAD1B4E716F843
:1080100001A04B1CA5EB030B0AF11F025A4514DB10
:1080200001F2B5115A4621443046009359F0A8F8A0
:10803000009B0BF5DA711F440AF12002236C2144E6
:108040004846984700230BEB0005A26B1AB9DA19D2
:10805000A263A4F83CA00AEB0301BAF1000FD6D149
:108060008AE7A36DDB1B202BB4BF07230123E6E6C1
:1080700004F5A55006EB0B011430009259F055F8A9
:10808000009A934471E0009259F04FF8009A616BA6
:10809000236C114461635144ABEB02022144484616
:1080A00000929847636B009A29461A4488E0636CF3
:1080B0003944484698478DE0FC1E0900021F09001C
:1080C000241D090006EB0A030AF10A0B99785A7875
:1080D00002EB012222611979DA7802EB0122626156
:1080E00099795A7902EB01222260197ADA7902EB46
:1080F000012262605B7A88F8B33D1A063AD503F034
:108100000703013305F5DA7103229A4000932144F5
:10811000236C01924846984798F8B51D019A0129A9
:108120000544A5D8009B04F5A552022012329840C0
:10813000A24410449AF8BE319AF8BFC1DB084FEA56
:108140009C0CDB0243EA4C139AF8C0C143EADC03FF
:1081500009B15BBA9BB222F8023F90420AF1030ACE
:10816000E8D1009A032393409B4404F5A0430122E5
:1081700083F8B42D16F80B30174A04F5A0480BF11C
:10818000010188F8B23DD35CA3610023636341F22F
:10819000B47A8D421EDD4B1C16F801B0606B009363
:1081A000EA1A50449345204406EB03013FF76BAFB6
:1081B0005A4658F0BAFF626B009B5A440BEB03011E
:1081C0006263BBF1000FE4D101238D4288F8AE3D1C
:1081D0003FF76DAF012034E6EC6B0A002DE9F04764
:1081E000002486B0CDE90044614DDFF88C81614FF9
:1081F00001262B684BB1D8F80433334205D0A5F5DE
:10820000C04080B260F020F934430435BD424FEAEB
:108210004606EED1584BD3F87C3173B14FF4BE70A3
:1082200060F012F94FF0A04344F00044D3F8103549
:108230000093524BD3F810350193E3B2D3B1504FB2
:1082400001260025344210D0AB0003F1804303F532
:10825000C043D3F81005D3F8101557F8253023B1D3
:10826000C1F30141C0F3052098470135082D4FEABD
:108270004606E7D1002C78DA04AE0023049373603D
:108280004FF0FF33029300253E4F0393A84617F9A2
:10829000012F531C4ED002F03F0402A920465FFA82
:1082A00082F960F0C0F8002844D0354B19194FEA24
:1082B000991991F9281053F821A0BAF1000F0BD1A8
:1082C000B9F1030F36D1E10802F007000123834022
:1082D000705C0343735402E0B9F1030FF3D01F2C19
:1082E0008BBF02F01F022246244B4FF0A04302F541
:1082F000E072694653F822202046C2F3014260F042
:1083000092F830B1022A15D1B9F1030F0CD14946C8
:1083100005E0032A0ED1B9F1030F05D10221204651
:1083200037F070F90135EDB2BAF1000F02D04946CD
:108330002046D04708F10103022B4FF00108A6D1D7
:108340009DB14FF0A0430099D3F8102503F5407379
:108350009142D3F8103502D10199994205D000928B
:10836000049ACDE90132059B8DE706B0BDE8F087A0
:1083700000610040206100400060004000030050A8
:108380001C5B0120735B0120D0F80031103B102BE7
:1083900007D8054A22FA03F313F0010F08BF0020A3
:1083A00070470020704700BF010101002DE9F04F28
:1083B00004468DB00846FFF7E7FF0D4603900246DE
:1083C000214695F804014DF0BAFE95F80431013BC1
:1083D000DBB20093231D099304F110030A93627A20
:1083E000637B62736279627262786271A27A63708F
:1083F000A378A270A27BA372A379A271E279A3737E
:10840000E378E270E27AE271E27BE272E37325469E
:108410002246002312F823105248415C02F8231030
:108420000133042BF6D1099B01329342F1D1039A17
:10843000009821464DF083FE009B002B00F08E80BB
:1084400095F800806B7801934046AB78029365F015
:10845000FCFA049065F0F9FA059065F0F6FA8246A8
:10846000019895F803B065F0F0FA024665F0EDFA70
:10847000069065F0EAFA0746029865F0E6FA0B9076
:1084800065F0E3FA079065F0E0FA0646584665F0B5
:10849000DCFA089065F0D9FA814665F0D6FADDE994
:1084A000043183EA010C8AEA0C0C079B029982EAE8
:1084B0000C0C87EA0C0C83EA0C0C86EA0C0C019B72
:1084C00080EA0C0C83EA0C0C029B83EA0C0C069BE2
:1084D0008AEA02025A400B9B7A405A40724089EA6B
:1084E0000202424088EA02024A408BEA02026A70B3
:1084F000059A82EA0A027A405340079A5340089A42
:10850000734053404340019A88EA030353408BEA87
:108510000C0C8BEA030B85F800C085F802B0049BB5
:10852000069A83EA0A0353405F40089B7E407340EB
:1085300089EA030980EA0900019B88EA000883EAC6
:10854000080881EA0803EB700A9B0435AB427FF40C
:1085500077AF009B013BDBB2009340E70DB0BDE875
:10856000F08F00BF80350A0010B54FF08043D3F87C
:108570000443620707D54FF484705FF071FF10B1B8
:108580001E4B1B689847A30608D54FF48A705FF00E
:1085900067FF18B11A4B00201B689847600608D582
:1085A0004FF48C705FF05CFF18B1154B01201B6815
:1085B0009847210608D54FF48E705FF051FF18B12F
:1085C000104B00201B689847E20508D54FF49070C7
:1085D0005FF046FF18B10B4B01201B689847A305BD
:1085E0000AD54FF492705FF03BFF28B1054BBDE810
:1085F00010401B680220184710BD00BFAC5C012072
:10860000B05C0120B45C01209FED0B7ADFED0B6ABA
:10861000E0EE076A9FED0A7AA6EE807ADFED096A3E
:1086200027EE007AF0EE407AB7EE000AA7EEA60A2F
:1086300087EE000A704700BF6BD30DBCBA132FBD85
:1086400075AA2A3EAEE534BF02480322002122F07B
:1086500081B900BF00B0004002480422012122F08D
:1086600079B900BF0010014002480422022122F023
:1086700071B900BF0040024008B57E4A7E4B7F4979
:108680008B42C0F0BF807E4B7E4A00219342C0F0F7
:10869000BE804FF08053D3F83021082A4ED14FF0DE
:1086A00080420021C2F80C11C2F81011C2F838152E
:1086B00002F54042D3F80414C2F82015D3F8081488
:1086C000C2F82415D3F80C14C2F82815D3F81014E6
:1086D000C2F82C15D3F81414C2F83015D3F81814B6
:1086E000C2F83415D3F81C14C2F84015D3F820147E
:1086F000C2F84415D3F82414C2F84815D3F8281446
:10870000C2F84C15D3F82C14C2F85015D3F8301415
:10871000C2F85415D3F83414C2F86015D3F83814DD
:10872000C2F86415D3F83C14C2F86815D3F84014A5
:10873000C2F86C15D3F84434C2F8703555F03FFDDB
:1087400018B1514B514AC3F88C2655F038FD18B179
:108750004F4BFB22C3F8182555F031FD58B14FF0AF
:1087600080424FF08051D2F8E43ED1F8581261F3C4
:108770000303C2F8E43E55F022FD20B1454B4FF40F
:108780000072C3F840264FF08053D3F83031082BE5
:1087900009D14FF08043D3F80024D10744BF6FF0D4
:1087A0000102C3F800243C4AD2F8883043F4700335
:1087B000C2F88830BFF34F8FBFF36F8F4FF0102395
:1087C000D3F80C22D20725D5344B0122C3F8042557
:1087D000D3F80024002AFBD04FF01022D2F80C323C
:1087E00023F00103C2F80C322C4BD3F80024002AEA
:1087F000FBD00022C3F80425D3F80024002AFBD0C4
:1088000000F0C0FC52F8040B43F8040B38E743F8BF
:10881000041B3BE7D3F80022002A03DBD3F8043221
:10882000002B22DA1D4B0122C3F80425D3F80024C3
:10883000002AFBD04FF010221221C2F80012D3F808
:108840000024002AFBD04FF010231222C3F8042288
:10885000124BD3F80024002AFBD00022C3F80425D1
:10886000D3F80024002AFBD0CAE70D4B0D4A1A604A
:1088700040F0A0FE487A0A00000001209C0501207B
:10888000C0050120546901200050004048810300C8
:1088900000F000400090024000ED00E000E00140E8
:1088A000000001200090D0030149024847F0D6B9EA
:1088B000E05B01200030004002494FF0402047F0CB
:1088C000CDB900BF145C012008B50748D0F81831B5
:1088D00043B14FF48C715FF0AFFDBDE80840034831
:1088E00057F037B808BD00BF00300240805B012060
:1088F00008B50748D0F8183143B14FF48C715FF0D8
:108900009BFDBDE80840034857F023B808BD00BFF1
:1089100000F00240A45B012073B51F4C022501A8A2
:1089200061F08BFB052812D11C4D4FF40C741C48D0
:10893000ADF802400DF1020161F00BFB08B30C2809
:1089400003D1184918485AF074FA02B070BD019B5F
:10895000032B14D004D8022BE1D100232370DEE7CF
:10896000A3F10902022ADAD80A2B06D0092B14BF78
:108970000120022047F028F8D1E70020FAE725700F
:10898000CDE7D5F8B030002BD1D01E680448D3E92C
:10899000011290473346F6E733690120BC5C0120A1
:1089A000EC580120491B0900F0130A000149024854
:1089B00057F039BFC85B01200090004001490248D0
:1089C00057F031BFD45B012000A0004001490248AC
:1089D00063F0DABF485C01200020004001490248F2
:1089E00063F0D2BF6C5C0120008002402DE9F04FA3
:1089F000BE4BBF4AD3F80013002385B01C460120AC
:108A00001D4621FA03F6F6070BD552F8236046B14E
:108A100000FA03F6344342F82350BFF36F8FBFF3DD
:108A20004F8F0133192BECD1E30738D5AF4B01221F
:108A3000C3F81425C3F8102500221546930003F14E
:108A4000804303F51C330132082A5D609D62F5D135
:108A5000A64BA8485D629D64C3F85851D3F8002422
:108A6000D3F800140A43C3F80024D3F80023C3F852
:108A70000823A14AC3F8042300214FF4927258F04E
:108A800097FB9C4A8DF808504023138313810121E2
:108A90004FF4807301A8ADF8043017F043FE14F4CE
:108AA000006F944D08D0914BD3F8A8369BB2A5F82F
:108AB0001631012385F81C31A70204F4800635D550
:108AC0008A4AD2F8143513F4807308D01EB1D2F854
:108AD0000034D80702D408204BF056FA0123834A09
:108AE000D2F81015C90540F1558195F81C318BB1AC
:108AF000002385F81C31B5F816319BB24FF4E062C3
:108B000003930121882301A8ADF80420ADF80830B3
:108B100017F008FE754B4FF44072D3F820350293DE
:108B2000012101A8ADF8042017F0FCFD7EB36F4BC6
:108B3000D3F8006440F201723240C3F80024F20519
:108B400009D50121C3F82C1501A84FF48063ADF8B5
:108B5000043017F0E7FD73050FD5644B0122C3F80D
:108B600008259A65D3F8002312F4001208BFC3F851
:108B700054214FF40012C3F80423B70507D54FF46E
:108B8000A063012101A8ADF8043017F0CBFD260247
:108B900037D5564BD3F880E4D3F88424D3F888141F
:108BA000D3F88C74D3F89064D3F894045FFA81FC02
:108BB000D3F89814D3F89C341EF07F0F5FFA8EF828
:108BC000D2B2FFB2F6B2C0B2C9B2DBB201D1052A4D
:108BD00017D04FF4C06E8DF80D008DF80E1001A85F
:108BE0000121ADF804E08DF808808DF809208DF89A
:108BF0000AC08DF80B708DF80C608DF80F3017F0EF
:108C000091FD3E4B234033B1BFF35B8F3C4B0022C1
:108C10001A70BFF35B8F374FDFF8D0B00026B8462D
:108C20004FF0140AB14606F10C0324FA03F3D807F7
:108C300026D50AFB06B3D8F80020D3F8083705EB91
:108C4000461012FA83F2C8F80020B0F806C099B2B4
:108C500063449BB2082E4FEA4612C38000F0A780FF
:108C6000B8F808308B4240F0A280C388B8F80410EE
:108C70009BB2994240F29B8016B922481AF062FCDE
:108C80000136092E08F12008CDD11F4B2340002BBF
:108C900000F09780154BD3F86C84C3F86C84BFF355
:108CA0006F8FBFF34F8F14F480641CBFD3F88044E0
:108CB000D3F88064DFF83CA01DBFC6F3C016C4F330
:108CC000C01486F0010626464FF000094FF4E06B11
:108CD00028FA09F1CA0703D4B9F1000F34D19CB3C3
:108CE000024B142202FB093110E000BF0070024069
:108CF000007102408C2101200514C001FCFB1F0003
:108D0000AC2201204C70024000040001DAF810305F
:108D1000D1F8081605EB491C53FA81F3CAF8103054
:108D2000BCF816E01FFA8EFE5EFA81F189B2ACF84B
:108D30001610BCF81610BAF814E089B28E455FFA26
:108D400089F05ED94BF000F909F10109B9F1080F7A
:108D50000AF1200ABCD100244FF0010904F11003EC
:108D600028FA03F3DB0701D474B96EB105EB4412A2
:108D70006301D17A002956D0D288B98892B2914243
:108D800051D9E0B24BF000F90134082C07F120076B
:108D9000E4D116E0002B7FF4BDAE95F82131002B15
:108DA0007FF4B8AE4FF40013C2F80833B2E6AB1844
:108DB000DA7A8AB94FF0E023D3F8F03DD90700D52D
:108DC00000BE1B4A1B4B136010460023536005B0C6
:108DD000BDE8F04F07F070BCDA88A8F8042083F8EB
:108DE0000B90DB888DF808609BB24FF4E0620121A4
:108DF00001A8ADF8042003938DF8099017F092FCB8
:108E00003EE7BCF81610ADF804B089B260F07F0000
:108E1000039100218DF808008DF8091001A80121A7
:108E200017F080FC90E72B4483F80A90ACE700BF72
:108E3000C462012037CC080010B5074CD4F80031CB
:108E40004BB1064B5B68984720464FF48071BDE8F4
:108E500010405FF0F1BA10BD00000140905C0120AD
:108E6000022A2DE9F04159D13B4B826883FB024233
:108E70003A4D846985FB046422440A60DFF8F0C03F
:108E800042688CFB0242364EC46986FB047422445D
:108E90004A60026883FB0242046A85FB0464224440
:108EA0008A60304E026886FB02422F4C056A84FBC2
:108EB00005752A44CA604FF06045426885FB02721E
:108EC000C76985FB07E73A440A61826884FB02723E
:108ED000876986FB07E73A444A61426983FB02726D
:108EE0008A6102698CFB0272CA61C26883FB0272EA
:108EF0000A62C36886FB03234B62036985FB032375
:108F00008B62436984FB0323CB620023C1E91033E6
:108F1000C1E90E33C1E90C33BDE8F081134B902455
:108F200004FB023202F1480E02F18C0501F1440605
:108F3000683250F8043B55F804795EF804CB1C46BF
:108F40008CFB048441F8044B87FB0343AA4246F898
:108F50000439EED1E0E700BFD8E3CEB8281C3107D2
:108F6000CD3C410D9A615FC9669EA0F6646C0A0013
:108F700033C3BEB22DE9F8431B4E04460F4690465C
:108F800000254FF4004946F00106B4F85E20ABB26C
:108F90009A4205D894F83400BDE8F84336F046BB51
:108FA00003F00F0349FA03F303EA0803191E18BF7D
:108FB000012120464DF030FFB4F85E30AAB2DB1B31
:108FC0009A4203DD94F8340036F05EFB94F86100B9
:108FD00036F05AFB4020B04794F8610036F026FB8B
:108FE0004020B0470135D0E7601C0A002DE9F04170
:108FF00090F8653090F86620434E013BDBB280F874
:109000006B30531EDBB280F86C30012A84BF90F8BD
:109010006C3003F1FF334FF000058CBFDBB201234E
:1090200080F86D30044680F86E500127856540F267
:10903000033894F86320EBB29A423DD82368334A50
:10904000934259D002F58052934257D002F5805294
:10905000934255D002F58032934253D002F58052AC
:1090600093421ED104232A4850F8332000EBC3005A
:10907000002590F9043001215160002BC2F80455FD
:10908000D160C2F80855C2F810554FF48035C2F8C7
:10909000045306DB5A0903F01F0399401D4B43F8A4
:1090A0002210236801224FF47A715A60DA60C3F803
:1090B00040151A60BDE8F081A26C02EB03121901A1
:1090C000137B1F2B86BF03F01F0332464FF0A042D5
:1090D00003F5E07342F82380A36C94F86D200B44F1
:1090E0003A42187B05D036F0CFFA7F00FFB2013547
:1090F0009FE736F09BFAF8E70023B4E70123B2E7D5
:109100000223B0E70323AEE70003005000800040D5
:10911000C46B0A0000E100E000280CDB43090649AB
:1091200000F01F0020330122824041F82320BFF3CA
:109130004F8FBFF36F8F704700E100E0430906498E
:1091400000F01F0020330122824041F82320BFF3AA
:109150004F8FBFF36F8F704700E100E00028ACBF76
:1091600000F16040064B4FEA4111ACBF00F5614091
:1091700000F00F00C9B2B4BF195480F80013704753
:1091800014ED00E0BFF34F8F0549064BCA6802F4A7
:10919000E0621343CB60BFF34F8F00BFFDE700BF1A
:1091A00000ED00E00400FA05014B1868704700BFAD
:1091B00054000120D0B5FEF78DF80C4B0022064676
:1091C0000F46FEF7A5FAFEF7CFFB0446FEF760F860
:1091D000074B0022FEF79CFA02460B463046394602
:1091E000FDF718FFFEF7C0FB2146D0BD0000F03DA3
:1091F0000000F04170B510EE105A25F00044012334
:10920000B4F1FF4FB0EE403A0646036004D360EE7F
:10921000003AB0EE630A70BD34B9DFEDD07AB7EE34
:10922000007AC7EE273AF4E7B4F1E45F0BD2002DE1
:10923000BEBF4FF0FF330360B1EE400A24F038F8B0
:10924000F1EE403AE5E7002D80F2CA82B4F1964F84
:10925000E3D2B4F17A5FDFEDC25A7FD2DFEDBF0A0D
:1092600020EE250A002000F029FEF0EE403AF5EE4F
:10927000403AF1EE10FAD0D023EE230AB0EEC00A45
:1092800085EE800A24F014F8F5EEC03AF1EE10FAFB
:109290004CBF4FF0FF330123B4F17E5FF0EE402A64
:1092A000336000F09782B4F1804F00F09382B1EE0A
:1092B000433A6B0000F1DE81AA4B9C4200F2FC8035
:1092C000B0EE430A23F0F4FFA74B9C42F1EE403A84
:1092D00040F2A280F7EE006A76EEC36A66EEA67AE6
:1092E0009FEDA26A9FEDA27ADFEDA25AA7EE867AE1
:1092F0009FEDA16AA7EE276A9FEDA07AA6EE277AD6
:109300009FED9F6AA7EE276A9FED9E7AA6EE277AC9
:109310009FED9D6AA7EEA56ADFED9C5AE6EE275AFF
:109320009FED9B6AA5EEA76ADFED9A5AE6EE275AF3
:109330009FED996AA5EEA76A27EE267AA6EE277A10
:10934000B6EE006AF0EE477AE6EEC67A77EEA33A1A
:10935000002DBFF65EAF72EEE33A5AE7B1EE407A07
:10936000B0EE470A1DF0CAF8B4EE407AF1EE10FAFA
:1093700019D0F6EE007A27EE277AB0EE470A1DF0F4
:10938000BDF837EE400A30EE000AF0EE407AFEEE0D
:10939000CF7A17EE903A062B39D8DFE803F0231284
:1093A000121F1F2B2B00DFED7D7A77EEC37A17EEAD
:1093B000903A03F0010307EE903A9B00B8EEE70AFB
:1093C000E9E7F6EE007A37EEC00ADFED640A20EE38
:1093D000250A00F035FBF1EE403A48E7F7EE007A57
:1093E00037EEC00ADFED5D0A20EE250A002000F00E
:1093F00065FDF0E7F7EE087A30EE670ADFED570A11
:1094000020EE250A00F01CFBB1EE400AE3E7F0EE87
:10941000007A30EE670AE5E7614B9C4266D99FED22
:10942000617A33EE477A67EE074A9FED5F6ADFEDB8
:109430005F6ADFED5F5A9FED5F5A64EE877AE7EE71
:10944000866A9FED5D6AA6EEA76ADFED5C6AE6EECE
:10945000276A9FED5B6AA6EEA76ADFED5A6AE7EE20
:10946000A65ADFED596AE5EEA76ADFED585AE6EE37
:10947000A75ADFED576AE5EEA76ADFED565AA7EE69
:10948000A55ADFED555AE5EE275A9FED545AA5EE41
:10949000A75ADFED535AE5EE275AE5EE876A9FEDAE
:1094A000517AA6EEE77AF0EE477AD4EE867A9FED0F
:1094B0004E7A77EEC77A49E74C4B9C4206D9F0EEDC
:1094C000006A76EEC36ADFED253A07E7484B9C4217
:1094D00006D99FED487ADFED213A33EE477AA2E7CD
:1094E000F7EE007A33EE673ADFED1C3A9FED427AF1
:1094F000DFED427ADFED426AE3EE077A9FED417AD3
:10950000A7EE837ADFED407AE7EE037A9FED3F7AAC
:10951000A7EE837ADFED497AE7EE037A9FED3C7A96
:10952000E3EE076A9FED3B7AA6EE837ADFED3A6AB7
:10953000E7EE036A9FED397AA6EE837AF7EE006ACA
:10954000E7EE036A67EE837A87EEA67AFEEE006A9C
:10955000F0EE477AE3EE267AF8E600BF000000005E
:10956000DB0F49406666663F1F4A3B3FA283D33705
:1095700067976739752C3C38A1549C3A7E02F23BC0
:1095800001F0893D3F239E3D4584E23834B6053ADB
:10959000C66E3D3B1599A83C661AA53E0000004BDF
:1095A00007336D3E0C5BEC3E6B7BA53976F4B7BAA6
:1095B00067F8663A85300DBA07E7C73B474D06BDE9
:1095C0005EB9F73E27F9A3B9FE7771BB3D37933CEF
:1095D0003C2117BEF7E9AF399916143BFEFC28BCB5
:1095E000155A843D521CE631CDCDF83D17A6DD3F1E
:1095F0001FA69D3FC316BB3F5E3C5B3C78756A3E31
:10960000AF72D53DB24B7A3FE73ABA3FF400223F02
:10961000DBD5523BDFEF443F2D390840BE2E1D40C5
:1096200067FF0538B435F13ABDD7F536E440DA3C8A
:10963000E6DC153E7ACCA63E5A245C3E3F239EBD16
:10964000D6EE4B3A54BF983C6E0F303EC5D0383FF3
:109650003B2DB23FE8C4D5BAD23D5B3A1D7FD63E22
:109660005C061CBAFD0C503A610B36BBABAAAA3D96
:1096700000000000B4F1824FF7EE003A79D2FDEE1F
:10968000C35A1FED197A5FED196A1FED196AF8EEDA
:10969000E57A15EE903A73EE677A033BE7EE876A58
:1096A0001FED1E7AA6EEA77A5FED1F6AE7EE276A26
:1096B0001FED207AA6EEA77A5FED216AE7EE276A12
:1096C0001FED227AA6EEA77A5FED236AE7EE866A9F
:1096D0001FED246AA6EEA76A5FED256AE6EE276A0B
:1096E0001FED266AA6EEA76A5FED276AE6EE276AF7
:1096F000B0EE636AA6EEA76A27EE277AC7EE063AAF
:10970000B6EE007AE7EE873A042B3FF621AEDFE8AB
:1097100003F02D2A27240300B1EE087A37EE877A6A
:10972000F1EE046A77EEA66A66EE876AB1EE007A19
:1097300037EE877A27EE267AB0EE080A37EE800AEF
:1097400020EE070AB0EE007A77EE877A27EE800ADD
:1097500023F0AEFD73EE803AFAE5B7EE007ADFE76C
:10976000F7EE006AE2E7B7EE007AE5E7B7EE000A47
:10977000E8E7B0EE430A23F09BFDB4F1B94F30EEB9
:10978000630A24D283EE837A1FED4E6A5FED4E6A40
:109790005FED4E3A67EE077AE7EE866A1FED506A94
:1097A000A6EEA76A5FED516AE6EE276A1FED526AE0
:1097B000A6EEA76A5FED536AE6EE276AF6EE007A38
:1097C000E6EE873A73EE677AE7EE803AC0E563EE3D
:1097D000003ABDE55FED5A3ABDE55FED5B3A18E54D
:1097E000B4F17E5FF9D0B4F1804FF6D05FED602A1E
:1097F0005FE500BF7FB510EE105A844A25F00043A4
:109800009342044605D8002380ED000A43600020FF
:1098100022E07F4A93423AD825F00043002DDFED45
:109820007D7A7D4A23F00F0318DD934230EE670AFC
:1098300009BFDFED7A7A9FED7A7A9FED7A7A30EE82
:10984000670A70EE477A30EE670AC0ED007A30EEB4
:10985000470A80ED010A012004B070BD934230EE4A
:10986000270A09BFDFED6D7A9FED6D7A9FED6D7A66
:1098700030EE270A70EE077A30EE670AC0ED007A04
:1098800030EE070A80ED010A4FF0FF30E4E7664A48
:1098900093426FD89FED657AB0EEC00AF6EE007A7B
:1098A000E0EE077AFDEEE77AF8EEE76A17EE900A47
:1098B000DFED587AA6EEE70A1F28DFED597A66EE4B
:1098C000A77AF1EE665A30EE677A09DC5849461EEF
:1098D00025F0004251F8261022F0FF028A4208D1FA
:1098E00017EE101AC1F3C751DA15C1EBD353082B89
:1098F00002DC84ED007A1AE09FED487AB0EE406A0F
:10990000A5EE876A70EE467AE5EE877A9FED457A96
:10991000D6EE877A36EE677A17EE103AC3F3C7535E
:10992000D31A192B15DC84ED007AB0EE460A30EE1E
:10993000470A002D30EE670A84ED010A8CDAB1EE99
:10994000477AB1EE400A84ED007A84ED010A404284
:1099500082E79FED387AB0EE460AA5EE870A76EEEA
:10996000407AE5EE877A9FED347AD6EE877A30EE4C
:10997000677ABEE7B3F1FF4F06D330EE400A80EDC1
:10998000010A80ED000A42E7DA15863AA3EBC253DA
:1099900007EE903ABDEEE77ADFED286AB8EEC77AB7
:1099A00077EEC77A8DED017A67EEA67ABDEEE77A9B
:1099B000B8EEC77A77EEC77A8DED027A67EEA67AAF
:1099C000F5EE407AF1EE10FACDED037A19D1B5EE4D
:1099D000407AF1EE10FA16D00223214601A800F0D9
:1099E00087F8002DBFF638AFD4ED007AF1EE677A34
:1099F000C4ED007AD4ED017AF1EE677AC4ED017A14
:109A0000A5E70323E9E70123E7E700BFD80F493FB4
:109A1000E3CB1640800FC93FD00FC93F0044353714
:109A20004344353708A3852E800F494384F9223FEC
:109A30005C620A0000A3852E32318D240000804331
:109A400010EE103A23F00043B3F1485FF0EE406AA5
:109A5000B7EE000A04D2FDEEE67A17EE902A42B382
:109A600026EEA67ADFED1A7A9FED1A6A1A4AA7EE59
:109A7000276A9342DFED197AE6EE077A9FED186ABE
:109A8000A7EE876ADFED177AE6EE077A9FED166A92
:109A9000A7EE876A60EEE60A26EE076AF6EE007A1F
:109AA000E7EE060A67EE277A04D877EEE07A30EE22
:109AB000670A70470D4A93429ABF03F17F4307EE4E
:109AC000103AB5EE027A30EE470A77EEC77AECE745
:109AD0004ED747ADF6740F319999993E7CF293B405
:109AE000010DD037610BB6BAABAA2A3D0000483F42
:109AF0002DE9F04F16462DED048B9B465A1EF31EA2
:109B000048BF331DDB10D7B05D1C2DB280460191DC
:109B1000981AE9001AAC0BF109079FEDC37ADFF838
:109B2000F8E20291A6EBC50500EB070C21460028E0
:109B3000A4BF1EF8009007EE909A00F10100ACBFA0
:109B4000F8EE677AF0EE477A6045E4EC017AEED100
:109B500001EB8B0108EB8B0A0DF5847CDFEDB27A0B
:109B60000C464046F0EC016A34ED017A5045E6EED1
:109B7000877AF7D101329742ECEC017A01F10401C6
:109B8000ECD1A54ADFEDA58A9FEDA59A13440924DF
:109B90000493A300039356AB03EB840313ED140A61
:109BA00042AA06AB02EB84021846214600294ADC91
:109BB000284605933DF0F4FEB0EE408AB4EE000A6C
:109BC00028EE000A1CF09AFCF2EE007AA0EE678AFA
:109BD000002D059BFDEEC87A17EE907AF8EEE77A35
:109BE00038EE678A41DD06AA601EC5F1080E52F8FC
:109BF00020C04CFA0EF10F4401FA0EF1ACEB01015A
:109C000042F82010C5F1070241FA02F9B9F1000F3C
:109C10003CDD4FF0000C0137624664455CDC002DF2
:109C200003DD012D67D0022D6FD0B9F1020F2DD1C8
:109C3000B7EE000A30EE488A42B328463DF0B0FE47
:109C400038EE408A22E060EE287A0139FDEEE77AAC
:109C5000F8EEE77AA7EEC90ABDEEC00AA0EC010A49
:109C600032ED010A37EE800AA0E706D1621E06A98E
:109C700051F822104FEA2129C8E7F6EE007AB4EE37
:109C8000E78AF1EE10FA24DA4FF00009B5EE408AC7
:109C9000F1EE10FA40F08580621E00200DF1180CE4
:109CA000082A3ADC002857D10FAA012352F8041DD4
:109CB000C1B3039A02F5AC726A4404EB0B071AA80D
:109CC000611C4C3A00EB8700234499422CDD1C4672
:109CD0005FE74FF002099CE718684AB918B1C0F570
:109CE0008070186001200CF1010C0433024694E7E7
:109CF000C0F1FF00F5E704F1FF3C06A850F82C3056
:109D000003F07F0340F82C308FE704F1FF3C06A8F6
:109D100050F82C3003F03F03F4E75CF82230013AAE
:109D20001843BDE70133C1E7049C645C07EE904A29
:109D3000F8EE677A4446E0EC017ADFED3B7A0746BD
:109D4000F4EC016A37ED017A5445E6EE877AF7D1F3
:109D5000E2EC017A0131B8E7013C083D06AA52F86D
:109D60002430DBB12846B7EE000A3DF019FE631C33
:109D700042AA9FED2A7A9D0002EB830206A82346A1
:109D8000002B3BDA2346002B62DB42AA02EB830660
:109D90002449DFED257A0020E21A50E0013C083D1D
:109DA000DDE7029BB0EE480A981B3DF0F9FD9FED00
:109DB0001C7AB4EEC70AF1EE10FA19DBDFED177A60
:109DC00060EE277A06AAFDEEE77A0835F8EEE77A24
:109DD000A7EEC70AFDEEE77ABDEEC00A10EE103A14
:109DE00042F8243017EE903A013442F82430B9E7B3
:109DF000BDEEC00A06AA10EE103AF6E750F823109E
:109E000007EE901AF8EEE77A013B67EE807A20EED3
:109E1000070A62ED017AB3E794610A000000803B13
:109E200000008043FC780A0000000000F1EC016AA9
:109E3000B6EC017A01300A28E6EE877A01D090422A
:109E4000F4DD56A901EB820242ED287A013B9AE744
:109E50002EAB1FED0B7A2B442246002A1EDAB9F1F5
:109E6000000F21D0F1EE477A019BC3ED007ADDEDC2
:109E70002E7A77EEC77A2FAA01239C4217DAB9F11E
:109E8000000F01D0F1EE677A019B07F00700C3EDE8
:109E9000017A57B0BDEC048BBDE8F08F73ED017A09
:109EA000013A37EE277AD8E7F0EE477ADCE7B2ECF2
:109EB000017A013377EE877ADFE700BF10EE103AC0
:109EC00023F00043B3F1485F04D2FDEEC07A17EEF1
:109ED000903A5BB320EE007ADFED157A9FED156ABC
:109EE000A7EE276ADFED147AE6EE077A9FED136A94
:109EF000A7EE876ADFED127A60EE076AE6EE077A70
:109F000030B99FED106AA7EE276AA6EE260A7047C1
:109F100067EEE67AB6EE006AE0EE867AD7EE870A5A
:109F2000DFED097AE6EEA70A30EE600A704700BF5F
:109F3000D3C92E2F342FD7B21BEF3836010D50B9AD
:109F40008988083CABAA2ABEABAA2A3E10EE103A7A
:109F500023F00042B2F1465FF0EE407A14D2BDEE3B
:109F6000C07A17EE101A29BB431C134306D1F0EE3A
:109F7000C07AB7EE007A87EE270A7047012800F012
:109F80009B80BFEE007AF6E74C498A4212D3002B41
:109F90009FED4B7AB8BFF1EE407A37EE677ADFED8E
:109FA000497AB8BFF1EE600A77EEE07ADFED460A53
:109FB00077EE877A67EEA76ADFED445A9FED446A31
:109FC0009FED445A3D4926EEA67A8A42A7EE256ABD
:109FD000DFED415AE6EE075A9FED406AA5EE876A2B
:109FE000DFED3F5AE6EE075A9FED3E6AA5EE876A1F
:109FF000DFED3D5AE7EE055A9FED3C5AA5EE875A34
:10A00000DFED3B5AE5EE075A9FED3A5AA5EE875A27
:10A01000DFED395AE5EE075AB0EE467AA5EEA67A9C
:10A0200027EEA65AB0EE606AA7EE056A9FED337A76
:10A03000E6EE260AE5EE070A37EEA00A1DD307EE84
:10A04000100AB8EEC77A60EE005A30EE070A9B1786
:10A0500085EE806A03F00203C3F1010306EE903A35
:10A0600036EE606AF8EEE66A77EEC67AB0EE006A1F
:10A07000A7EEC67A26EE870A704701281CD010EE9C
:10A08000103A6FF30B0306EE903A76EEE77A70EE35
:10A09000E70AFFEE007A87EE807AF7EE007A17EE95
:10A0A000103A6FF30B0300EE103AE6EE807AE0EE22
:10A0B000807AA7EE870A7047704700BF40A12C3F07
:10A0C000DA0F493F68212233000000005FAE9BB7E2
:10A0D00045F4A3388453D937C8261A3A16696B3B1E
:10A0E000A427B33C8988083E7AC09538B9378139AE
:10A0F00048DEBE3A1F37113CD10D5D3DABAAAA3EEA
:10A100002DE9F0410D4606464FF001FB294640F28D
:10A11000FF4058F09BFE06F10807044690B14368E3
:10A1200028469847A36801219B690546984710B1C6
:10A13000284846F06BF9A368394628469B68BDE875
:10A14000F04118472449284657F08AFF18B390F881
:10A150005030D906ECD443F0100380F85030394623
:10A1600053F026FE96F82A3003F00C03002B90F8EB
:10A17000513014BF0122002223F0060343EA4203B8
:10A1800080F8513005D190F8503043F0020380F848
:10A190005030BDE8F0811149284657F061FF044670
:10A1A000B0B190F82A309A07C2D443F0020339467E
:10A1B00080F82A3053F09DFB96F82A1001F00C012C
:10A1C0000039204618BF0121BDE8F04153F078BBAB
:10A1D0000348AEE7A54409009CBE090000BF090082
:10A1E000974409002DE9F3470746002608466A46CA
:10A1F00001A9019658F068FB0199022902D8244868
:10A2000046F0F0F87868012289001DF09BFC7E6022
:10A2100080463E81019BB4B2A34206F1010606D8F6
:10A220005B00C7F804803B8102B0BDE8F087009B6B
:10A23000184953F8245040F2EB42284625F0D2FC4E
:10A24000686840F2EB42022125F08AFCA86840F2DF
:10A250007B6125F0F5FC40F27B6347F6FF720E4907
:10A26000824657F027F9E86840F2816125F0E8FC62
:10A270004FEA8409C1440546074940F2816347F625
:10A28000FF7257F017F928F824A0A9F80250C1E787
:10A290005E420900CC2309000080FFFF2DE9F04F4A
:10A2A0002DED028B91468DB0C268BDF864B0BDF84B
:10A2B0006C701D9C064688461D46B0EE408A2AB149
:10A2C00043689A4200F0BC800FF052FB4BEA070350
:10A2D0001F2B09D8B8F1000F7DD1002F00F0A78007
:10A2E00044464FF0040A09E0B8F1000F40F09480B2
:10A2F000002F00F0958044464FF0080A0DF1180831
:10A30000B9F1000F00F0978040F20122ADF818205B
:10A310006A1CADF81A200022079240465FF045FE05
:10A320008146002851D101461822404656F040FF90
:10A33000DFED457A9FED457A454B079428EE278A55
:10A340005D43C8EE077A42F21073002FB5FBF3F5B8
:10A35000189B029348461A9B8DF818A008BF00234B
:10A360000124ADF824508DF82D40ADF80CB0B6EEB8
:10A37000007A77EE877A1A93FCEEE77A0493CDEDB4
:10A38000087AADF814704DF0FFFC8146E8B9314D04
:10A39000424602A928465FF0E2FD8146A8B92E494F
:10A3A000324606F128000AF0E1FE9DF97020297876
:10A3B00020465FF004FE814638B9287821465FF0D8
:10A3C000D0FD814608B9189BF36048460DB0BDEC3E
:10A3D000028BBDE8F08F3CB3F0EE0C7AB4EEE78A66
:10A3E000F1EE10FA6946204610D807EE905A9FED1C
:10A3F0001B7AF8EE677AF4EEC77AF1EE10FA05D818
:10A400004DF07BF96C464FF0020A77E74DF075F995
:10A410006C464FF0030A71E700244FF0060A6DE71F
:10A420003C464FF00A0A69E74FF0010A66E73C46EE
:10A430004FF0050A62E7CDF81890C8F804906CE771
:10A440004FF01109C1E700BF0024744900401C44CB
:10A4500040420F006B050120857E07006666A63F1F
:10A460002DE9F843416098464B680B9F91469A79D5
:10A470000A9B80F82C2003858D7D044605F030066C
:10A4800005F0060572B34B68D8684EF081FCE08495
:10A490002DB10023C4E90298C4E90433A361002369
:10A4A00084F82D3084F82A30A384089BE361099B4B
:10A4B00023621AB3EFB11B49224638460AF056FE12
:10A4C0005DB115F0040118BF012160681ABF84F85E
:10A4D0002B10002201220FF0E5FBDEB1B20616D4EC
:10A4E000012315E04FF6FF73C3842B4635461E4605
:10A4F000CEE70C4821460AF01DFEE1E767B10A49A4
:10A50000224638460AF032FE26B17307E8D4022309
:10A5100084F82B30BDE8F883034821460AF00AFE90
:10A52000F2E700BF1F880800898808002DE9F04F76
:10A5300089B005469DF8487016465FFA81FA1C46B8
:10A54000002B36D043681A791B680621C3F8001522
:10A550001D4B342101FB023387F00107022283F8EF
:10A560002D207A01194F4FF0000BB4F5806FA146F2
:10A5700003A928BF4FF480692846CDE9049BCDE9A3
:10A58000066B8DF80CB08DF80DA0019200F032FE34
:10A59000B842804604D1B4EB0904019A4E44E4D198
:10A5A000686835F0B9FB404609B0BDE8F04F45F0AA
:10A5B00037BB51460FF02AFE00280CBF13200020A5
:10A5C00009B0BDE8F08F00BFE05B01200000AD0BDB
:10A5D000064A002352F8041B814201D118467047F5
:10A5E0000133082BF6D14FF0FF3070479846012019
:10A5F0000C4B187801280DD10B4B1B78FF2B0BD17E
:10A600000A4B1868C20708D4C30308D4800C00F0B2
:10A61000040070470228F3D17047052070470120DD
:10A62000FAE700BF7C69012084690120C86001202D
:10A630002DE9F041094F05460E4600244FF6FF78FC
:10A6400037F81400404503D0324629465FF0D9FC64
:10A650004434B4F5AA7FF3D1BDE8F081600901204C
:10A66000034B53F8203013B19A6801329A60704757
:10A670007420012038B5144B53F82040ECB12079F8
:10A6800034F0F2FF0546607934F0EEFFA2790F490D
:10A69000E37940EA450000F0030040EA8202A0713D
:10A6A0008A5C134494F908205BB29342E37105DBA2
:10A6B000E3680133E3600023E37138BD5242934203
:10A6C000FBDCE368013BF5E7B8460120411C0A00CA
:10A6D0002DE9F04F0546A7B089460146002058F005
:10A6E000B5FB09AC002840D1CDE913000CAA7E21AE
:10A6F000284629F013FDBD4B0F9301224023CDE9DD
:10A70000102316AB12930FAB0E93B94B09940A9317
:10A7100000260820CDE9050656F04AFC07902046A1
:10A72000CDE903668DF8206056F0E6F837463546E9
:10A730009DF854B0BBF1000F00F09A81204656F00E
:10A74000DBF8BBF15D0F00F091804CD8BBF13A0F04
:10A750003FD8BBF11F0F14D8BBF10A0F35D8BBF19E
:10A76000080FE5D8A34845F051FE0121284628F0FE
:10A77000BFFE43680A93002309950B938DF854306C
:10A78000C6E7ABF12002D2B2012393409A4A1342AA
:10A7900040F0068102F5704201321340C8D1BBF18E
:10A7A000220FDFD106939DF854100029DAD0222918
:10A7B00040F0A580204656F09FF8DDE906102CF009
:10A7C000AFF84FF0000A80462CE0BBF10D0FAFD080
:10A7D000C8E7BBF15B0FC5D1002022F0B7FA804675
:10A7E0004FF0010A1EE0BBF1740F6FD036D8BBF1F9
:10A7F000660F4CD0BBF16E0FB4D19DF85430752B61
:10A80000B0D1204656F078F86C28ABD1204656F0EF
:10A8100073F86C28A6D1204656F06EF84FF0000A67
:10A820004FF00E08002D40F0F78040462AF09AFFC6
:10A830000746BAF1000F40F00681B9F1000F00F0B1
:10A840001C81B8F1000F8DD0039B002B8AD105A885
:10A8500062F0D3FD404627B0BDE8F08FBBF17B0F1F
:10A8600000F0D680BBF17D0F7FF47CAF002D3FF46C
:10A8700079AF039B002B00F00B81013B049A0393FB
:10A8800052F8235028462AF06DFF074650E79DF8FE
:10A890005430612B7FF466AF204656F02DF86C28BB
:10A8A0007FF460AF204656F027F873287FF45AAF44
:10A8B000204656F021F865287FF454AF204656F024
:10A8C0001BF84FF0000A4FF01E08ABE79DF854301C
:10A8D000722B7FF447AF204656F00EF875287FF4B0
:10A8E00041AF204656F008F865287FF43BAF20467C
:10A8F00056F002F84FF0000A4FF03E0892E75C294C
:10A900000CD1204655F0F8FF7528014606D86D2871
:10A9100008D8622840D0662808BF0C2105A862F03C
:10A92000F4FC35E0A0F16E03072BF7D801A252F832
:10A9300023F000BF55A902001DA902001DA90200B5
:10A940001DA902009DA902001DA9020059A902002B
:10A950005DA902000A21E1E70921DFE74FF00008C5
:10A960004FF0040A204655F0C7FF40F02000C0B267
:10A97000A0F13002D2B2092A84BF5738C2B2BAF16C
:10A98000010A42EA0818EDD1414605A862F0CFFC61
:10A99000204655F0B1FF06E70821BFE70D21BDE7CE
:10A9A000002306939846594605A862F0AEFC9DF830
:10A9B00054B0BBF12E0F21D00BF0DF03452B1DD07F
:10A9C000BBF12B0F1CD0BBF12D0F19D0584645F011
:10A9D00055FC8246A0B9DDE906105346B8F1000FD8
:10A9E00012D0524658F05BF980461BE79058090098
:10A9F000AB080800F22F09000020FF034FF0010808
:10AA0000204655F079FFCEE70A222DF05FFEEBE7F6
:10AA100000202BF043FEE2E6204B9F4215D1414639
:10AA2000284657F01BFFBAF1000F3FF481AE049B9C
:10AA3000CBB9012101A82BF06BFD049B1D604046A2
:10AA40002AF090FE0746454672E62EB9BAF1000F8D
:10AA50007FF488AE46466BE631464246284657F0BC
:10AA60005AFB0026DFE7294601A857F0F7FEE6E784
:10AA7000A846E2E6204655F03FFF9DF85450284690
:10AA800045F010FC0028F5D1002D3FF4DAAE69E660
:10AA9000A846B9F1000F7FF4D7AEEEE7B057090032
:10AAA000C20713B5044603D5C0F3470002B010BD7A
:10AAB000830707D102680E4B9A4203D12AF040FE69
:10AAC000C0B2F3E7204657F096FE48B120462AF080
:10AAD000BDFDFCEEC07ACDED017A9DF80400E5E7FE
:10AAE00020462AF03FFE5E22C188024845F082FCE3
:10AAF0002C2C09004F3B090010B50E4861F0F5FD04
:10AB00003F2816D90C4CA07847F0F2FA88B104F12E
:10AB1000100061F0EAFD03463F2BA07805D9BDE89F
:10AB200010400649402247F017BCBDE8104047F0EE
:10AB3000C5BB10BD4035012030350120F034012067
:10AB400070B5164B5A7805463AB31B785B0724D488
:10AB5000134B40F6280444431E19F278EAB110342E
:10AB60001C44204661F0C1FD3F2816D9F07847F01B
:10AB7000BFFA90B1204661F0B8FD03463F2BF07854
:10AB800007D90849402201EBC511BDE8704047F0E4
:10AB9000E3BBBDE8704047F091BB70BD6867012022
:10ABA00014100120140F01202DE9F04F0546E3B0E9
:10ABB0005D484FF001F9071E09DB5C4C6388B3F573
:10ABC0007F7F08D340F2512323803DF03BFB0020E0
:10ABD00063B0BDE8F08F1A1DAA4200F2A280591E90
:10ABE000261D0DF11408725C51482F2A4FF0000207
:10ABF0000CBF7254F254414654F0D3FC4D4B054601
:10AC0000186010B11BF004F920B940F251332380D1
:10AC10003846DAE705F18000D8F8002006A953F09D
:10AC200049FE40F2511346F8043C0023C4E90133C5
:10AC3000E360054610B103236370E9E71AAE3146BD
:10AC400006A853F025FF08B9B37EA3B9002106A8D2
:10AC5000DFF8E8B053F01CFF4FF0000AA56055453F
:10AC60000FD106A853F028FB0023A268638062601E
:10AC7000E360A361CCE7314606A853F009FF013534
:10AC8000E1E7314606A853F003FF73893189C4F820
:10AC900004A003F01F025200480A0192C3F34412B9
:10ACA0000092DB0A01F01F0200F2BC70C1F34311F5
:10ACB00061F06AFA204A0023801843F10001A0FBEA
:10ACC0000B020BFB0122C4E90402327B12F01002DA
:10ACD00006BF3368E26001220DF1820018BFE26016
:10ACE000A36160F0B6FB6080814638463DF0AAFA69
:10ACF0004FF00008C14502D80AF1010AAFE7A9EBFD
:10AD00000802042A4FF000030DF1820128BF04223B
:10AD100041440548009303920FF000F9039A9044D0
:10AD2000E8E7012054E700BFA44F012010510120A3
:10AD3000145101201850012080436D3800CA9A3BFD
:10AD4000F8B5294B1D68294B1B681A68012151640D
:10AD50001B68274AD3F84465002352F8044B14B10A
:10AD60002179814230D00133082BF6D1F8BD6369D7
:10AD7000A069E289218AEB1A89B211FA82F2301AAB
:10AD8000A189B2FBF1F7C3EB034303444FF6FF7015
:10AD900001FB17228342A16828BF034621F8123025
:10ADA000238AA2899BB2934204D2238A01339BB2A5
:10ADB000238215E0E3899BB20133B3FBF2F102FB7E
:10ADC00011339BB2E3810BE0E379002BCFD034F059
:10ADD0004BFC637900F00100834201D00023E37152
:10ADE0006561A661C2E700BFB86001207C620120F6
:10ADF000984601202DE9FF4104460F464EF087FC9E
:10AE00006368DB6853F8275040F2FF40294658F04A
:10AE10001DF8064600285CD0436828469847B3686A
:10AE200001A95B6880469847B36800219B68054686
:10AE300040469847B36800219B694046984763683D
:10AE40002849DB6853F8270057F00AF9C0B190F899
:10AE50005030B0F9382023F0100380F85030B0F9AA
:10AE60003C309A421FBFADF80830C38F826BADF8FB
:10AE70000A304FF000031ABF0192012500258362BA
:10AE800063681949DB6853F8270057F0E9F806466C
:10AE900068B190F82A3023F0020301A980F82A3023
:10AEA00017F0E4FC00210546304652F022FD6DB15A
:10AEB00094F82A30DB070ED4019BA361029BE36167
:10AEC00094F82A3043F0010384F82A3004B0BDE836
:10AED000F0810546B3E704F1180201A9104651F0CC
:10AEE000D4FEEDE79CBE090000BF09002DE9F74F35
:10AEF000404B0090002018703F4BDFF82091DFF8A6
:10AF000020C1FF2002EB810A18703C493C481446DE
:10AF100015464FF001084FF0FF32AA4520D101320B
:10AF200004D0009B002B51D114F02CFC354E364838
:10AF300000220023C6E9002300231A46A5424BD174
:10AF40005AB193ED017ADFED317A67EE277A17EE89
:10AF5000900A4BF0DAFFC6E9000103B0BDE8F08FBC
:10AF600055F8047BBB07D8D13B684B45D5D17B68EE
:10AF70001A79A2F12003C2F1200628FA06F608FA8F
:10AF800003F333433E7A08FA02FEAEB1DCF8046004
:10AF90000196DCF8006046EA0E0B019E1E43CCE9E8
:10AFA00000B67E7A002EB8D0D1E9007647EA0E07C7
:10AFB0001E43C1E90076B0E746680196066846EA96
:10AFC0000E0B019E1E43C0E900B6EAE7104A0023BB
:10AFD0001360104A1370A9E754F8041B8F07ADD112
:10AFE0000F688742AAD112B10B4845F00FFA0B4601
:10AFF0000122A3E77C69012084690120D80C01208B
:10B00000C80C0120E00C01200487090000007A44EC
:10B01000C86001202E690120AF4209002087090085
:10B02000B80C0120242B2DE9F0478646904601D824
:10B03000012B06D1FEF7B8F8162303600020BDE807
:10B04000F08734480D462A4615F8014B065D16F088
:10B050000806F8D12D2C10D12C780126951C33F040
:10B06000100215D1302C0DD12A7802F0DF02582AB7
:10B0700008D16C78023510230AE02B2C04BF2C7801
:10B08000951CECE7002BF6D1302C14BF0A230823C3
:10B0900006F1004C0CF1FF3C0022BCFBF3F910461A
:10B0A00003FB19CAA4F13007092F0FD83C46A3426D
:10B0B0001BDD571C07D0814514D301D1A24511DBFC
:10B0C00000FB0340012215F8014BEBE7A4F1410717
:10B0D000192F01D8373CEAE7A4F16107192F04D8EA
:10B0E000573CE4E74FF0FF32EDE7531C08D1222331
:10B0F000CEF800306046B8F1000FA0D0691E06E01F
:10B1000006B14042B8F1000F99D0002AF6D1C8F834
:10B11000001094E745790A002DE9F043344E864645
:10B120000D46284615F8014B375D17F00807F8D192
:10B130002D2C10D12C780127851C33F0100015D14F
:10B14000302C0DD1287800F0DF00582808D16C7819
:10B15000023510230AE02B2C04BF2C78851CECE769
:10B16000002BF6D1302C14BF0A2308234FF0FF38F0
:10B170000026B8FBF3F803FB08F96FEA090930462B
:10B18000A4F1300CBCF1090F10D86446A3421EDDB7
:10B19000B6F1FF3F07D0804516D301D1A14513DB9F
:10B1A00000FB0340012615F8014BE9E7A4F1410C2F
:10B1B000BCF1190F01D8373CE8E7A4F1610CBCF1F0
:10B1C000190F04D8573CE1E74FF0FF36EBE7731C4B
:10B1D00006D12223CEF80030304632B9BDE8F083E4
:10B1E00007B14042002AF9D006B1691E1160F5E7A7
:10B1F00045790A002DE9F74F80460D46019260F02F
:10B2000017FAD8F80430AC4F01225A72D8F804303B
:10B210001E791C68342303FB0677002387F82E3041
:10B22000EB6803F06043B3F1005F81468A4607D0C4
:10B23000A248D8F8043000225A7203B0BDE8F08F5B
:10B240009F4BC4F8083397F82F3003F0FF0B23B15E
:10B25000BB689C48C4F80433EBE787F82F20AE4660
:10B26000BEE80F0007F10C0CACE80F00DEF8003070
:10B27000CCF8003087F830B06B78C4F888354FF4DC
:10B28000827120465DF0D8F84FF4927120465DF04F
:10B29000D3F8C4F850B5C4F840B52B78032B00F2AE
:10B2A000B380DFE803F0729A52022B6903F0604327
:10B2B000B3F1005FBCD14FF48073C4F800326B6807
:10B2C000EA68C4F844254FF4A871C4F8483520460C
:10B2D0005DF0B2F84FF4B07120465DF0ADF84FF478
:10B2E000A47120465DF0A8F801232362A360D4F87E
:10B2F0005031002BFBD04FF4A87120465DF09CF834
:10B30000AB682A69C4F84425C4F848356A4B34222E
:10B3100002FB06336C4A9A604FF4827308226B4F2B
:10B320002978654D03291CBF0121A15034227243A5
:10B33000A918AA58002A79D08B68C4F80433634B43
:10B340009F4200F0A880624873E76B68EA68C4F81F
:10B350004425C4F848352B6903F06042B2F1005F20
:10B360007FF466AFAA68C4F834354FF48453C4F848
:10B370003825C4F80032504B342202FB063340F229
:10B3800002229A6001232362C6E701996B68EA688A
:10B39000C4F84425C4F848353422474B89B102FB30
:10B3A00006334FF48071C4F80012474A9A604FF494
:10B3B000A47120465DF040F84FF4A473012222628C
:10B3C000ACE702FB06334FF4007140F20222C4F8EE
:10B3D00000129A604FF48273F0E76B68EA68C4F871
:10B3E0003425C4F838354FF48053C4F80032324B5A
:10B3F000342202FB063340F202229A6001232362C8
:10B4000000224FF482738AE7314F4FF4827308228F
:10B4100086E7D4F8242152B14FF4927120465DF0B2
:10B420000BF80123236263614FF4827323441A688B
:10B43000002AEED03422D4F8C434C4F8C43402FB59
:10B440000651002281F82F208BB1224A224813F0A6
:10B45000010F08BF104613F0020F02F5803218BF2B
:10B46000104613F0040F1D4B18BF1846E1E62046A6
:10B4700048F0ECFD00287FF462AF1648D9E660F092
:10B48000D7F8814574EB010109D2D8F8043014488B
:10B4900000225A72D1E619F57A794AF10004D8F8F7
:10B4A00004305A7A002AEAD19B7A042B96BF0D4ABF
:10B4B000084852F82300C0E6E05B01200A00AD0B0B
:10B4C00002029C010B00AD0B000204000000AD0B5A
:10B4D0000400AD0B0100AD0B0000AE0B0200AE0B83
:10B4E0000700AD0B5C670A00F8B590F82A309B079F
:10B4F00004462DD4F8BDDB6853F8267040F2FF40B7
:10B50000394657F0A3FC054668B14368384698476A
:10B51000AB6804F108019B689847013663689A6834
:10B520009642E8D3E6E70B49384656F099FD20B13C
:10B5300004F1080152F03CFCEFE70749384656F0A9
:10B540008FFD0028E9D004F1080152F0D2F9E4E7B8
:10B550000026E3E79CBE090000BF090090F95030C7
:10B56000214A10B5002B836AB4BF418A018AB0F921
:10B570000C40002B08BF13460C44997B8289A4B26F
:10B58000C1B193F9051011FB02F15A88114409B2B7
:10B59000A0F8461093F905205B8812FB04F21344CF
:10B5A0001BB29942D2BFA0F84A30A0F84A10A0F8C6
:10B5B000463010BD93F9041011FB02F11A881144B2
:10B5C00009B2A0F8441093F904201B8812FB04F27E
:10B5D00013441BB29942D2BFA0F84830A0F84810DB
:10B5E000A0F84430E5E700BF5405012090F9503041
:10B5F000214A10B5002B836AB4BF018A418AB0F991
:10B600000E40002B08BF13460C44997BC289A4B29C
:10B61000C1B193F9041011FB02F11A88114409B267
:10B62000A0F8441093F904201B8812FB04F2134481
:10B630001BB29942D2BFA0F84830A0F84810A0F839
:10B64000443010BD93F9051011FB02F15A881144E2
:10B6500009B2A0F8461093F905205B8812FB04F2AA
:10B6600013441BB29942D2BFA0F84A30A0F84A1046
:10B67000A0F84630E5E700BF5405012008B510EEFC
:10B68000103A23F00042B2F17E5FF0EE405A10D340
:10B6900008D19FED2F0ADFED2F7A002BB8BFB0EE57
:10B6A000670A08BD70EE405ADFED297A87EEA50AD9
:10B6B000F7E7B2F17C5F11D2B2F14A5F9FED266AE3
:10B6C00042D920EE000AFCF79FFFDFED247AE0EE7E
:10B6D000657A75EEE75A36EE650AE2E7002BB7EEBB
:10B6E000000AF6EE007A14DA35EE800A20EE270A18
:10B6F000B1EEC06AFCF788FFDFED197AE0EE067A5A
:10B700009FED150A36EE276A30EE460A30EE000A43
:10B71000C7E730EE650A20EE270AB1EEC05AB0EE58
:10B72000407A15EE103A6FF30B0306EE103AA6EED0
:10B73000467A75EE067AC7EE275AFCF765FFE0EE0B
:10B74000055A36EE250AE1E7B0EE460AA9E700BF42
:10B7500000000000DA0F4940DA0FC93F6821A23328
:10B760006821A2B308B510EE103A23F000425B0046
:10B77000F0EE407A0FD4B7EE007A70EE477ABDE86B
:10B78000084037EEA77AA7EEA77AB1EEC70A37EEE0
:10B79000800A21F0E1BCB2F18B4F13D2FFEE006AB8
:10B7A000E0EE006ABDE80840B1EEE67AF7EE006A26
:10B7B00037EE007A86EE870AB0EE007A97EE870AB7
:10B7C00021F076BD21F074FDDFED027A30EE270A1C
:10B7D00008BD00BF1872313FF0B50C2089B00D468E
:10B7E0001B4916461F4657F0C5F802AB0193194B8B
:10B7F00000930446032328463A46314655F026FE78
:10B800009DF80C300298606023729DF81030E3B10F
:10B810000DF096FC606805AA40F2F94128F07EFC24
:10B82000237A5B0043F0010305AA0021012007935E
:10B8300055F03EFF56F0EBFF054660684EF0F8F815
:10B840001DB9217A044844F0E9FD204609B0F0BD55
:10B85000D4C6090008200A00E143090010B58EB0E3
:10B8600003AB51F8044B0193194B009301380323A8
:10B8700024F0D0F840F21C51606806AA28F04EFC73
:10B88000237A5B0043F001030893039B099340F67E
:10B8900026130A93049B5B0043F001030B93059B63
:10B8A0006FF0004293421FBF40F2E6425B000C92F1
:10B8B00043F0010314BF0221012106AA4FF0020048
:10B8C00018BF0D9355F0F4FE0E200EB010BD00BF52
:10B8D000F01F0A0010B58EB003AB51F8044B019372
:10B8E000194B00930138032324F094F840F2796156
:10B8F000606806AA28F012FC237A5B0043F001037B
:10B900000893039B099340F626130A93049B5B005C
:10B9100043F001030B93059B6FF0004293421FBF5E
:10B9200040F2E6425B000C9243F0010314BF022197
:10B93000012106AA4FF0020018BF0D9355F0B8FE82
:10B940000E200EB010BD00BFD81F0A0010B596B073
:10B9500003AB51F8044B01932D4B009301380623A0
:10B9600024F058F809AA606840F27A6128F0D6FB02
:10B97000237A5B0043F001030B93039B0C93049B1E
:10B980000D9344F646430E93059B5B0043F0010381
:10B990000F93069B6FF00042934235D05B0043F05B
:10B9A000010344F61642119310920923032116AAAB
:10B9B00002EB830244F2061042F8340C16AA02EBA2
:10B9C0008300079A520042F0010240F8302C089A96
:10B9D0006FF00040824210D016A800EB830044F2C2
:10B9E000D60440F82C4C16A800EB8303520042F01A
:10B9F0000102013143F8282CC9B209AA032055F0ED
:10BA000057FE0E2016B010BD07230221CFE700BF5E
:10BA1000A81F0A00F0B518208BB00D4620491F461C
:10BA2000164656F0A7FF03AB01931E4B00933A4610
:10BA3000044607232846314655F008FDDDE903702A
:10BA40000E2812D0830703D10268174B9A420CD0FC
:10BA500029F088FEC3880093144840F2A1134FF4E4
:10BA60009A7240F2023144F0C5FC069E9DF8201007
:10BA70009DF824209DF81C509DF814302061C4E9E5
:10BA80000176049825730E286173A273237503D081
:10BA9000002201214EF0A6FA20460BB0F0BD00BFF7
:10BAA000B8C60900701F0A00D8BF0900B94B0900C9
:10BAB00030B58BB004466A464068244D40F224619C
:10BAC00028F02CFB00216A46084655F0F1FD56F09F
:10BAD0009EFE002831D060686A4640F2223128F08C
:10BAE0001DFB42F606430293A3685B0043F001038B
:10BAF000039344F6D6630493237B5B0043F0010376
:10BB0000059344F6D6530693637B5B0043F0010331
:10BB1000079342F6F6421123CDE9082304216A4631
:10BB2000002055F0C5FD23690E2B03D0217D5868F8
:10BB30004EF044FA60680BB030BD04F0F9FDAB6A1A
:10BB4000002BBFD0012027F0FBFDBBE7BC5C012030
:10BB50002DE9F341044601F134000E4604F0ACFD3A
:10BB60002388102B05D0112B41D0002002B0BDE856
:10BB7000F081314D002388224FF6FF7102FB03F75D
:10BB8000E85B884205D00133052BF7D14FF40877E5
:10BB9000042388225343A188E952EA184FF0000891
:10BBA0000E2307F16000D3652844244982F85A80A7
:10BBB000A2F87680EA1909F0D9FAC6F81880206947
:10BBC00061696C373D4403C568465EF0EAF9BDF82B
:10BBD0000030228A9A4202D8628A9A4203D2A0880E
:10BBE00069465EF0C6F90023F3600120BEE7A38832
:10BBF000114F0025882202FB05F1785A984205D0A2
:10BC00000135052DF7D14FF40871042539440B484F
:10BC100009F0C2FA88235D437A194FF6FF737B530C
:10BC2000002382F85A30D26D0E2A1EBF5360217A4B
:10BC30001172B361D9E700BF60090120ADF80300BC
:10BC4000F0B54FF48A708BB00D46254916461F4655
:10BC500056F090FE05AB0193224B0093314605232D
:10BC60003A460446284655F0F1FB0522059802A9FC
:10BC700027F0ECFB039EA6F11002102A03D81A4B02
:10BC8000D340DB0702D4194844F0C0FB069D029F55
:10BC9000022D04DC002D04DC154844F05BFB062D6E
:10BCA000FAD1079868B90023089AC4F810212046F1
:10BCB00084F80C51324639464DF075FF20460BB0E2
:10BCC000F0BD012202A927F0C1FB0028EBD00398A8
:10BCD00040F27712102123F043FF029BE4E700BFFC
:10BCE00074C6090040200A0001010100BD4409009A
:10BCF0009941090070B588B003AB51F8045B01931A
:10BD0000184B00930138022323F084FE0522039888
:10BD100005A927F09BFBDDE90564A4F11002102AB8
:10BD200003D8114BD340DB0702D4104844F06EFB1C
:10BD3000049840B900232846224631464DF033FF8F
:10BD40000E2008B070BD012205A927F07FFB002856
:10BD5000F0D0069840F27712102123F001FF059BE6
:10BD6000E9E700BF30200A0001010100BD440900DD
:10BD700010B50446084656F039FA022804DC0028BB
:10BD800004DC044844F0E6FA0628FAD184F80C01F1
:10BD90000E2010BD9941090080B584B002AF3B1D53
:10BDA00001931F4B0093054601230E46002023F00C
:10BDB00031FE3146284646F077FDD7F804804046EC
:10BDC0002AF078FB4FEA60094FEA8903073323F032
:10BDD0000703ADEB030D0DF1080A00244C4505D116
:10BDE000A4B1104840F2F54144F0BCFA61000422CD
:10BDF00041F0010140462BF0A7FE0B4940F293228F
:10BE000023F0F0FE4AF824000134E7E72946012038
:10BE10003246FFF76BF80548214660F09AFE00BFF6
:10BE2000C4200A00954C0900D8BF0900A0200A00D0
:10BE300070B50E460546002844D046F035FD324622
:10BE400029460020FFF752F800F0B0F900231A4607
:10BE500041F0A0FD1C4B9C6A94BB4DF0C4FE78B32E
:10BE6000FEF7C6FB012818D002280BD1174A23463B
:10BE700056F82340A10702D12168914203D0013333
:10BE80009D42F5D10E2420463CF01EFD00F064F8E2
:10BE900020463CF019FD204670BD0D4B0D491A7827
:10BEA000234656F82340A00706D12068884203D1D4
:10BEB000606800799042E6D001339D42F1D1E1E71C
:10BEC0000E24E3E70E24E6E7BC5C012004870900AA
:10BED0008469012020870900F0B50C2087B00D4649
:10BEE000144916461F4656F045FD02AB0193124B0E
:10BEF00000933A46042331460446284655F0A6FAF4
:10BF000040F2E141029846F097FC9DF810109DF830
:10BF10000C209DF8143011B1084844F077FA0179EB
:10BF20002F2901D95DF047FA6060204622726372C2
:10BF300007B0F0BD2087090080200A000B480900E7
:10BF400010B5044C23781BB913F01CFC012323709B
:10BF500010BD00BF2E690120F8B5384C384D23685C
:10BF60006FF31723AB4223D04FF480723548002182
:10BF700055F01EF9344A00231370344A13704FF001
:10BF800080434FF44032C3F80429C3F81429C3F89E
:10BF90002429C3F83429C3F84429C3F85429C3F821
:10BFA0006429C3F874294FF47C12C3F884292560EE
:10BFB000274E284D0024D5E90001D6E90032C4F10E
:10BFC000200703430A430120A4F1200100FA01F1F4
:10BFD00020FA07F73943A04003400A40134308D032
:10BFE000E0B23AF02BF9204633F062FC204633F001
:10BFF00045FD0134402CDED11749184800220023AA
:10C00000C6E90023C5E90023C1E900234FF400334A
:10C01000C0F84833D0F80423920308D5C0F8083399
:10C02000D0F844311BB14FF4A2715CF005FA0C4B0F
:10C0300000200021C3E90001F8BD00BF8069012094
:10C04000AF0000AD856901207C6901208469012071
:10C05000B80C0120C80C0120D80C0120004002407F
:10C06000E00C0120F0B50D4687B000261446002AEA
:10C070005ED08A075FD10A68414B9A425BD16A461B
:10C080004FF4807057F026F810B93E4844F062F93A
:10C09000DDE90035042CA5EB030536D0A30732D12A
:10C0A0002368394A934208D0384A934205D0384A27
:10C0B000934202D0374A934225D1052203A9204654
:10C0C00027F0C4F9049BAB4202D0334844F09EF9F8
:10C0D0009DF81410039C0022402023F0E3FD01286A
:10C0E00001D02E48F2E7009B5A19B2F5807F07D89D
:10C0F0002B482A462146184455F017F80E2417E01D
:10C10000284844F051F92848C0E7284654F050FF29
:10C11000009B5A19B2F5807F044604D820492A466C
:10C12000194455F002F8214628462AF067FA0446D9
:10C13000204607B0F0BD2A46006800234FF4807106
:10C1400027F0A2F9042C054600F1010708D1B7F544
:10C15000807F9CBF124B1E5C760046F00104E7E72F
:10C16000204656F043F84223FF220021044655F0B2
:10C17000A1F9B7F5807FC3D8094B5C55BEE700BF76
:10C18000945609007A3209004C5F09009058090062
:10C19000645709005C5C090043410900B849090083
:10C1A00085690120FF3E09008D3C090038B5084B28
:10C1B000D3E9004554EA050305D05FF039FA201AA7
:10C1C00065EB010138BD4FF0FF300146FAE700BFD3
:10C1D000E00C0120F0B52DED028B0C4689B0324900
:10C1E000082016461F4656F0C5FB03AB01932F4BA4
:10C1F00000933A46022305463146204655F026F97B
:10C20000DDE90304B0F10E0218BF0122B4F10E0300
:10C2100018BF01239A4202D1254844F0F7F80E28AE
:10C2200038D029F013FAB0EE408A5FF001FAFBF73C
:10C23000C1F9DFED207A07EE100A0E2CC7EE278A2F
:10C2400021D0049856F061F904463AF083FF05A91D
:10C250003EF070FE9DF81A3001939DF8193000935E
:10C260009DF817209DF818309DF81610BDF81400A1
:10C2700042F018FB104B241A234407EE903AB8EE14
:10C28000E78A38EE288AB4EEE88AF1EE10FA04D58F
:10C290000A48C2E79FED0A8AC7E7284685ED018A6A
:10C2A00009B0BDEC028BF0BD0487090070200A00C4
:10C2B000F140090000007A4480BC92C70A4009009E
:10C2C000000000001FB50C4608200B4915461E460D
:10C2D00056F050FB03AB0193084B00933246012309
:10C2E0002946204655F0B2F8039840F2E14146F065
:10C2F000A3FA002044F02EF8E886090068200A001E
:10C3000010B5094B094C1B6823B1A34202D0084861
:10C3100044F04AF8C0220021064854F049FF054B7A
:10C3200043F8044C181F10BD34550120D05E09009D
:10C33000D83F09003855012010B5084C20681EF080
:10C340005BFB014610B1064844F02EF8AC22201DDC
:10C3500054F02EFF034B2360204610BD080C012033
:10C36000D03F0900D05E090038B51C46084611468A
:10C370004FF0021223F018FB206840F2E14146F032
:10C380005BFA09490446082056F0F4FA6379054639
:10C390000BB95DF010F8207933F004F920790CF036
:10C3A00045FC6C60284638BDF0C5090008B54068FA
:10C3B0004DF07EF9004808BD3233D3C037B505468D
:10C3C00040684DF075F9304A00230321ADF806307E
:10C3D000C2F8F0150121C2F8F435C2F8001519466B
:10C3E0001A0102F1804202F5E0420133082BC2F843
:10C3F0001415C2F81015F3D1234C4FF49053C4F820
:10C4000018356B685B79C4F81435C4F810350DF134
:10C410000603C4F82C360123C4F830362360D4F860
:10C420000031002BFBD018484FF480715CF004F809
:10C4300001236360144CD4F80431002BFBD0124864
:10C440004FF482715BF0F8FF0123A360D4F814313C
:10C45000002BFBD00C484FF48A715BF0EDFF0023FA
:10C46000C4F80035C4F81435C4F81035BDF90630E9
:10C4700023EAE373181340EA830080B2400040F0DF
:10C48000010003B030BD00BF007000401C4608B57D
:10C49000084611464FF0021223F086FA40F2E141BD
:10C4A000206846F0C9F90449042056F063FA0348AD
:10C4B000F12143F057FF00BFD4C50900954C090096
:10C4C0002DE9F04F2DED088B8FB009AB01936C4B2C
:10C4D0000093052323F09EFA0021099830F0EEFC2A
:10C4E000002106460A9830F0E9FC044600210B982A
:10C4F00030F0E4FCE379012B05460AD1C379012B26
:10C5000007D1A268012A04D98368012B01D99A4274
:10C5100002D05C4843F07AFF6621B0685BF066FEAB
:10C52000E76994F804800590414638465BF0ECFDDD
:10C53000A368A069013B00FB03704146B0EE40BA1E
:10C540005BF0E2FD0C98EF690E28F0EE40BA26D1C0
:10C55000297938465BF0D8FD0D980E28F0EE408A18
:10C5600020D1A868AB692979013803FB00705BF022
:10C57000CBFDEB690493F3690293059BD4F81CB0DF
:10C58000DB690393B0EE409A4FF00009B3684B4566
:10C590000BD805980FB0BDEC088BBDE8F08F29F0E3
:10C5A00055F8D9E729F052F8E3E7029831795BF0C2
:10C5B000ABFD029AB369B4EEC0BA1A44F1EE10FAB8
:10C5C000B0EE408A029254DCF4EEC0BAF1EE10FAFA
:10C5D00052D4A768D4F818A02179013F4FF0000881
:10C5E000A7EB0803012B32D80AFB08B006915BF0D9
:10C5F0008BFD06990AFB07B0F0EE40AA5BF084FDC4
:10C60000AB69049A2979079103FB0820F0EE409A60
:10C6100006935BF079FD049A069B079907FB0320BC
:10C62000B0EE40AA5BF070FD38EE6A8A30EE4A0A3E
:10C6300079EEEA9A28EE008AC8EE297A77EE8A7AAD
:10C64000039BE3EC017A039309F101099EE708EBF0
:10C6500053030AFB03B0079106935BF055FD069B5D
:10C660000799B4EEC08AF1EE10FA8CBF98461F46C7
:10C67000B6E7F0EE687AE3E7F0EE497AE0E700BF6C
:10C6800034640A00D13509002DE9F04F2DED048BFB
:10C6900087B003AB0193514B0093032323F0BAF906
:10C6A0000398002130F00AFC8368012B054640F214
:10C6B0009380C679012E02D0494843F0A7FE007945
:10C6C00030F07EFC82460498EF690E285ED000218F
:10C6D00030F0F4FB90F80780B8F1010F064603D163
:10C6E000AA6883689A4201D03E48E6E700799FED48
:10C6F0003E8A30F065FC83463846F469D047AB6922
:10C7000020461F44F0EE408AD847B369B0EE409A05
:10C7100004EB0309AC68444517D8013C07EE904A86
:10C72000B6EE007AF8EE677A28EE078A67EE887A26
:10C7300017EE900A20F0030040F00200A0F1FF4045
:10C7400007B0BDEC048BBDE8F08F3846D047AB692D
:10C750004846F0EE409A1F44D84778EEA98A30EE5A
:10C76000499AF0EE486AD9EE286AB36907EE908AD2
:10C77000B8EE677A9944C6EE877A08F10108B0EE00
:10C78000409A38EE278AF0EE698AC3E705989FED54
:10C79000168A28F05BFF3846B0EE409AD047AC6866
:10C7A000F0EE408AB44202D828EE098AB5E7324654
:10C7B0002979E8695BF06FFC07EE906A78EE808A71
:10C7C000B8EE677A78EEC88A0136C8EE877AF0EE5E
:10C7D000408A38EE278AE5E70448B1E71C640A007E
:10C7E000552F09005F2F0900000000000200808023
:10C7F0001E2803460CD03E280AD010F0010007D1B5
:10C800009A0706D11868034BC31A5842584170471B
:10C81000012070472C2C0900F0B51B288DB006466E
:10C820000C46154672D03CD80E2800F09C8004D8E7
:10C83000042840F2B580002430E01028FBD115F028
:10C84000010206D115F00303F5D12968704A91421F
:10C85000F1D1284655F0CAFC0122054609A9204617
:10C8600000F03CF9102E0A9F3DD121790022402092
:10C8700023F018FAA3686B4300FB03F1E06854F05F
:10C88000BBFBA368E0606B43A360636803F0FF0336
:10C8900063601DB1013DC319002F34D120460DB096
:10C8A000F0BD1D28CBD02428C5D1012203A92846DC
:10C8B00026F0CCFD002860D0A10712D12268554B8C
:10C8C0009A420ED1012209A9204600F007F901235E
:10C8D0000093DDE90901DDE9032353F019F800288D
:10C8E0005CD11E24DAE7A1689DF82C00694300F0B2
:10C8F0004FF9C3680446CFE7184609993A4654F001
:10C9000014FC03463B44013DF6D2C7E70A68424B9C
:10C910009A4290D009A90122204600F0DFF806A92A
:10C920000522284626F092FD9DF82C10002240207A
:10C9300023F0B8F9A168079EB6FBF0F6054631442E
:10C940009DF82C0000F024F90446DDE90912C068C6
:10C9500054F0EBFBE0680A9B069906FB05F21844CD
:10C9600054F0E3FB9AE70A682B4B9A423FF463AF1B
:10C97000294620464BF008FC90E7EA0702D5002044
:10C9800043F0E8FCAB0703D12A68214B9A42F6D06A
:10C99000284655F030FF0028A3D0F0E73E247DE77D
:10C9A000012209A9204600F099F8012206A928468B
:10C9B00026F04CFD002894D00B9A012A21D05A2A47
:10C9C00021DC20320146089B012B1ED05A2B01DCB2
:10C9D000203301469342D2D123F00203642BCED000
