:0400000500000A816C
:020000040000FA
:1000000000040020810A000015070000610A0000BA
:100010001F07000029070000330700000000000050
:10002000000000000000000000000000A50A000021
:100030003D070000000000004707000051070000D6
:100040005B070000650700006F07000079070000EC
:10005000830700008D07000097070000A10700003C
:10006000AB070000B5070000BF070000C90700008C
:10007000D3070000DD070000E7070000F1070000DC
:10008000FB070000050800000F0800001908000029
:10009000230800002D080000370800004108000078
:1000A0004B080000550800005F08000069080000C8
:1000B000730800007D080000870800009108000018
:1000C0009B080000A5080000AF080000B908000068
:1000D000C3080000CD080000D7080000E1080000B8
:1000E000EB080000F5080000FF0800000909000007
:1000F000130900001D090000270900003109000054
:100100003B0900001FB500F003F88DE80F001FBD8C
:1001100000F0ACBC40F6FC7108684FF01022401CA7
:1001200008D00868401C09D00868401C04D0086842
:1001300000F037BA9069F5E79069F9E7704770B554
:100140000B46010B184400F6FF70040B4FF0805073
:100150000022090303692403406943431D1B104621
:1001600000F048FA29462046BDE8704000F042BA47
:10017000F0B54FF6FF734FF4B4751A466E1E11E0DA
:10018000A94201D3344600E00C46091B30F8027B3B
:10019000641E3B441A44F9D19CB204EB134394B25D
:1001A00004EB12420029EBD198B200EB134002EBB2
:1001B000124140EA0140F0BDF34992B00446D1E952
:1001C0000001CDE91001FF224021684600F0F4FB58
:1001D00094E80F008DE80F00684610A902E004C8FB
:1001E00041F8042D8842FAD110216846FFF7C0FF7C
:1001F0001090AA208DF8440000F099F9FFF78AFFCB
:1002000040F6FC7420684FF01025401C0FD0206889
:1002100010226946803000F078F92068401C08D030
:100220002068082210A900F070F900F061F9A869AF
:10023000EEE7A869F5E74FF080500369406940F6A2
:10024000FC71434308684FF01022401C06D0086838
:1002500000F58050834203D2092070479069F7E788
:100260000868401C04D00868401C03D00020704778
:100270009069F9E70420704770B504460068C34DE3
:10028000072876D2DFE800F033041929631E250021
:10029000D4E9026564682946304600F062F92A46CE
:1002A0002146304600F031F9AA002146304600F0E0
:1002B00057FB002800D0032070BD00F009FC4FF46C
:1002C000805007E0201D00F040F90028F4D100F034
:1002D000FFFB60682860002070BD241D94E80700C3
:1002E000920000F03DFB0028F6D00E2070BDFFF715
:1002F000A2FF0028FAD1D4E901034FF0805100EBAE
:10030000830208694D69684382420ED840F6F8704E
:1003100005684FF010226D1C09D0056805EB8305B8
:100320000B6949694B439D4203D9092070BD55694A
:10033000F4E70168491C03D00068401C02D003E0C8
:100340005069FAE70F2070BD2046FFF735FFFFF731
:1003500072FF0028F7D1201D00F0F7F80028F2D135
:1003600060680028F0D100F0E2F8FFF7D3FE00F05B
:10037000BFF8072070BD10B50C46182802D0012028
:10038000086010BD2068FFF777FF206010BD41684E
:10039000054609B1012700E0002740F6F8742068FF
:1003A0004FF01026401C2BD02068AA68920000F065
:1003B000D7FA38B3A86881002068401C27D020688D
:1003C000FFF7BDFED7B12068401C22D026684FF051
:1003D0008050AC686D68016942695143A9420DD9EA
:1003E000016940694143A14208D92146304600F0E5
:1003F000B8F822462946304600F087F800F078F831
:100400007069D2E700F093F8FFF784FEF6E77069B1
:10041000D6E77669DBE740F6FC7420684FF01026DB
:10042000401C23D02068401C0CD02068401C1FD0EA
:100430002568206805F18005401C1BD027683879A5
:10044000AA2819D040F6F8700168491C42D001680A
:10045000491C45D00168491C3ED001680968491C07
:100460003ED00168491C39D000683EE0B069DAE747
:10047000B569DEE7B769E2E710212846FFF778FEA5
:100480003968814222D12068401C05D0D4F8001080
:1004900001F18002C03107E0B169F9E730B108CA63
:1004A00051F8040D984201D1012000E000208A4259
:1004B000F4D158B1286810B1042803D0FEE72846CB
:1004C000FFF765FF3149686808600EE0FFF722FE1C
:1004D00000F00EF87169BBE77169BFE7706904E06D
:1004E0004FF480500168491C01D000F0CBFAFEE7C0
:1004F000BFF34F8F26480168264A01F4E06111439B
:100500000160BFF34F8F00BFFDE72DE9F0411746B3
:100510000D460646002406E03046296800F054F8EF
:10052000641C2D1D361DBC42F6D3BDE8F08140F69B
:10053000FC700168491C04D0D0F800004FF48051D1
:10054000FDE54FF010208069F8E74FF080510A690F
:10055000496900684A43824201D810207047002050
:10056000704770B50C4605464FF4806608E0284693
:1005700000F017F8B44205D3A4F5806405F5805562
:10058000002CF4D170BD0000F40A0000000000202F
:100590000CED00E00400FA05144801680029FCD0C5
:1005A0007047134A0221116010490B68002BFCD0E0
:1005B0000F4B1B1D186008680028FCD0002010603D
:1005C00008680028FCD07047094B10B501221A605A
:1005D000064A1468002CFCD0016010680028FCD08A
:1005E0000020186010680028FCD010BD00E4014015
:1005F00004E5014070B50C46054600F073F810B9EB
:1006000000F07EF828B121462846BDE8704000F091
:1006100007B821462846BDE8704000F037B8000012
:100620007FB5002200920192029203920A0B000B06
:100630006946012302440AE0440900F01F0651F80C
:10064000245003FA06F6354341F82450401C8242F8
:10065000F2D80D490868009A10430860081D016827
:10066000019A1143016000F03DF800280AD00649C4
:1006700010310868029A10430860091D0868039A3F
:10068000104308607FBD00000006004030B50F4CED
:10069000002200BF04EB0213D3F800582DB9D3F8A1
:1006A000045815B9D3F808581DB1521C082AF1D3C3
:1006B00030BD082AFCD204EB0212C2F80008C3F8CD
:1006C00004180220C3F8080830BD000000E0014013
:1006D0004FF08050D0F83001082801D0002070473A
:1006E000012070474FF08050D0F83011062905D016
:1006F000D0F83001401C01D0002070470120704725
:100700004FF08050D0F830010A2801D00020704707
:100710000120704708208F490968095808471020B0
:100720008C4909680958084714208A4909680958FA
:100730000847182087490968095808473020854923
:100740000968095808473820824909680958084744
:100750003C20804909680958084740207D490968BC
:100760000958084744207B49096809580847482028
:1007700078490968095808474C207649096809589A
:10078000084750207349096809580847542071499F
:1007900009680958084758206E49096809580847E8
:1007A0005C206C4909680958084760206949096854
:1007B00009580847642067490968095808476820AC
:1007C00064490968095808476C2062490968095852
:1007D000084770205F4909680958084774205D4937
:1007E00009680958084778205A490968095808478C
:1007F0007C205849096809580847802055490968EC
:10080000095808478420534909680958084788202F
:1008100050490968095808478C204E490968095809
:10082000084790204B4909680958084794204949CE
:10083000096809580847982046490968095808472F
:100840009C204449096809580847A0204149096883
:1008500009580847A4203F49096809580847A820B3
:100860003C49096809580847AC203A4909680958C1
:100870000847B0203749096809580847B420354966
:10088000096809580847B8203249096809580847D3
:10089000BC203049096809580847C0202D4909681B
:1008A00009580847C4202B49096809580847C82037
:1008B0002849096809580847CC2026490968095879
:1008C0000847D0202349096809580847D4202149FE
:1008D000096809580847D8201E4909680958084777
:1008E000DC201C49096809580847E02019490968B3
:1008F00009580847E4201749096809580847E820BB
:100900001449096809580847EC2012490968095830
:100910000847F0200F49096809580847F4200D4995
:10092000096809580847F8200A490968095808471A
:10093000FC2008490968095808475FF48070054998
:10094000096809580847000003480449024A034B54
:100950007047000000000020000B0000000B0000AA
:1009600040EA010310B59B070FD1042A0DD310C82C
:1009700008C9121F9C42F8D020BA19BA884201D97E
:10098000012010BD4FF0FF3010BD1AB1D30703D0C6
:10099000521C07E0002010BD10F8013B11F8014B7C
:1009A0001B1B07D110F8013B11F8014B1B1B01D198
:1009B000921EF1D1184610BD02F0FF0343EA032254
:1009C00042EA024200F005B87047704770474FF0A6
:1009D00000020429C0F0128010F0030C00F01B800C
:1009E000CCF1040CBCF1020F18BF00F8012BA8BF1A
:1009F00020F8022BA1EB0C0100F00DB85FEAC17CDE
:100A000024BF00F8012B00F8012B48BF00F8012B90
:100A100070474FF0000200B51346944696462039C1
:100A200022BFA0E80C50A0E80C50B1F12001BFF4A7
:100A3000F7AF090728BFA0E80C5048BF0CC05DF80D
:100A400004EB890028BF40F8042B08BF704748BF5B
:100A500020F8022B11F0804F18BF00F8012B7047CF
:100A6000014B1B68DB6818470000002009480A4951
:100A70007047FFF7FBFFFFF745FB00BD20BFFDE719
:100A8000064B1847064A1060016881F308884068E1
:100A900000470000000B0000000B000017040000DE
:100AA000000000201EF0040F0CBFEFF30881EFF3ED
:100AB0000981886902380078182803D100E0000015
:100AC000074A1047074A12682C3212681047000084
:100AD00000B5054B1B68054A9B58984700BD0000B0
:100AE0007703000000000020F00A0000040000006E
:100AF000001000000000000000FFFFFF0090D00386
:02000004000FEB
:1040000000E00320C5B40F00EDB40F00EFB40F00C3
:10401000F1B40F00F3B40F00F5B40F00000000007E
:10402000000000000000000000000000FD420F0042
:10403000F9B40F0000000000FBB40F00A94D0F0001
:1040400045500F00FFB40F00FFB40F00FFB40F0086
:10405000FFB40F00FFB40F00FFB40F00FFB40F0058
:10406000FFB40F00FFB40F00FFB40F00FFB40F0048
:10407000FFB40F00FFB40F00FFB40F00FFB40F0038
:10408000FFB40F0065740F00FFB40F00FFB40F0002
:1040900019750F00FFB40F00DD4A0F00FFB40F00C9
:1040A000FFB40F00FFB40F00FFB40F00FFB40F0008
:1040B000FFB40F00FFB40F0000000000000000007C
:1040C000FFB40F00FFB40F00FFB40F00FFB40F00E8
:1040D000FFB40F00FFB40F00FFB40F00FD860F0008
:1040E000FFB40F00FFB40F00FFB40F00000000008A
:1040F00000000000FFB40F0000000000FFB40F003C
:1041000000000000000000000000000000000000AF
:10411000000000000000000000000000000000009F
:10412000000000000000000000000000000000008F
:10413000000000000000000000000000000000007F
:10414000000000000000000000000000000000006F
:10415000000000000000000000000000000000005F
:10416000000000000000000000000000000000004F
:10417000000000000000000000000000000000003F
:10418000000000000000000000000000000000002F
:10419000000000000000000000000000000000001F
:1041A000000000000000000000000000000000000F
:1041B00000000000000000000000000000000000FF
:1041C00000000000000000000000000000000000EF
:1041D00000000000000000000000000000000000DF
:1041E00000000000000000000000000000000000CF
:1041F00000000000000000000000000000000000BF
:1042000010B5054C237833B9044B13B10448AFF310
:1042100000800123237010BDFC82002000000000FC
:104220009CD40F0008B5034B1BB103490348AFF3FF
:10423000008008BD00000000008300209CD40F0017
:10424000A3F5803A704700BF154B002B08BF114BF8
:104250009D46FFF7F5FF00218B460F461148124A95
:10426000121A07F0ECFA0C4B002B00D098470B4BBE
:10427000002B00D098470020002104000D000B48BF
:1042800007F03EF907F038FB2000290000F06CF938
:1042900007F03CF9000008000000000000000000EA
:1042A00000E00320FC820020A4CC002041B90F00D4
:1042B00010B50C46E0B90968C1B10E48814207D07B
:1042C000431A3B2B0ED83C235A5CC254013BFBD211
:1042D000084800223C2103F023FC074B18800023F0
:1042E000236010BD3C2207F04AFBF1E70E23F7E7FD
:1042F0000123F5E7827F0020807F0020074A6FF0CE
:1043000002039E4502D1EFF3098101E0EFF308813A
:104310008869A0F102000078104700BFB1420F0089
:1043200038B50446A8B13C210C48002203F0F8FB44
:104330000B490B8883420ED1084A02F13C0052F827
:10434000045B44F8045B8242F9D101330B80002006
:1043500038BD0E20FCE70B20FAE700BF827F00206B
:10436000807F00200B2970B50446154608462FD9DA
:104370002389053304EB43012044431ADAB2012AAE
:1043800026D9814224D8134807F0F9FA2388522B02
:1043900006D1AB0711D062884CF668639A420CD004
:1043A0000F2014E034F8022F824204D0AE899642E6
:1043B00003F1010308D1002009E034F8081F0023AD
:1043C0004FF6FE704FF440559942EBD80B2070BD6C
:1043D0000920FCE71883002008B5002203F0A0FBA9
:1043E000034B1B88834214BF0B20002008BD00BF75
:1043F0001883002038B5104C21684B1C054619D095
:104400000E484FF4805207F0F1F980B12DB10C48FD
:1044100007F096F9206800F071FE2168094807F05E
:104420008FF9064920684FF4806200F087FE4FF054
:10443000FF33236038BD00BF0080002024830020AC
:1044400068CA0F0073CA0F002DE9F041DFF84480FD
:10445000044624F47F671846D8F8003027F00F0789
:10446000BB420D46164609D0FFF7C4FF0848C8F8FE
:1044700000704FF48052394607F081FA0448C4F3C3
:104480000B04324629462044BDE8F04107F077BAD4
:104490002483002000800020BFF34F8F0549064B86
:1044A000CA6802F4E0621343CB60BFF34F8F00BFD2
:1044B000FDE700BF00ED00E00400FA054BDF7047A8
:1044C00010DF704711DF704712DF704713DF70474E
:1044D00018DF704760DF704769DF704761DF704742
:1044E00007B500230DF107008DF80730FFF7ECFF4B
:1044F0009DF80730012B01D1FFF7E4FF03B05DF811
:1045000004FB08B54FF0E023D3F8F03DDB0700D5FE
:1045100000BEFFF7C1FF00001FB5074807F010F904
:104520000023CDE901330393684602230093FFF78C
:10453000CFFF05B05DF804FB83CA0F00024B80017A
:1045400043F00103184700BFD0D20F0001234FF002
:10455000A0428340C2F80C3570470000014B187828
:10456000704700BF269300202DE98048B94889B0E4
:1045700007F0E6F8B84BB94840F60212C3F84025F8
:104580004FF0A04407F0DCF80323C4F818370620E6
:10459000C4F86837FFF7DAFF4FF080651A20FFF79D
:1045A000D5FFAF48C4F80855FFF7C8FF1A20FFF73A
:1045B000CDFFAB48FFF7C2FFA948C4F80855FFF785
:1045C000BDFF1A20FFF7C2FFA548FFF7B7FFA548B8
:1045D00007F0B6F800F01CFBA34807F0B1F801F0B3
:1045E00013F8A24807F0ACF8002000F0E5FB01F05A
:1045F000A1F8C0B19E4807F0A3F89E4807F0A0F8C4
:10460000052000F0D9FB9C4807F09AF801F0A4F8C7
:104610009A4807F095F801F0C5F8994807F090F826
:10462000062000F0C9FB9748974F07F089F84FF034
:104630008043D3F81C55B12D0CBF012300233B70E0
:1046400000F05381A5F1A8014B424B418F4E1A4611
:1046500033704FF08043D3F8003403F00108002A90
:1046600040F045814E2D00F04281572D00F03F81F2
:10467000874B1B681A68874B9A4203D1B8F1000F29
:1046800040F035816D2D00F07A81022000F046FA6D
:10469000044681468048494607F052F83378002B9B
:1046A00040F07581022000F039FA014618B10F2060
:1046B00000F034FA014601F001037848337007F046
:1046C0003FF800F0DBFE7249DFF8FCB1D1F800C022
:1046D000DFF8F8A1034638B1B9F1000F04D1DCF8D6
:1046E00000206F48824211D04FF4405042685A4532
:1046F0000ABF82684FF4905202F500721268524568
:1047000000F055811CB9002B40F0438100244FF488
:104710004050096842685A450ABF82684FF4905277
:1047200002F5007210685E4A504518BF00220A6008
:1047300014B9002B40F0E9803378002B00F03D8164
:10474000584806F0FDFF082000F036FB3B7823B9FF
:10475000554806F0F5FFFFF7DFFE012353483B7095
:1047600006F0EEFF4FF47420FFF7B0FE504B5149B6
:104770001868039003A8FFF7A3FE4F4991F816238A
:10478000EC2352091341DA0708D54C4B9A68002AEA
:1047900000F00F811A6842F480021A60484B0493BB
:1047A0000C22002105A807F04AF840F20113049AF0
:1047B000059305A94020FFF78FFE0C22002105A8D4
:1047C00007F03DF89DF81430049A43F0010305A961
:1047D000A0208DF81430FFF77FFE0C22002105A8E1
:1047E00007F02DF801241723049AADF8163005A917
:1047F00023208DF81440FFF76FFE0C22002105A83E
:1048000007F01DF80623049A8DF8144005A920200E
:104810008DF81640ADF81830FFF75EFE04A8FFF7DC
:1048200059FE4FF440535A685A450ABF9B684FF4EB
:10483000905303F500731B68534504D0572D02D0E5
:104840004E2D40F0CA801F4806F07AFF012240F644
:10485000B8313DE0A4CA0F0000A00040B9CA0F0063
:10486000A0860100D4CA0F00E9CA0F0003CB0F00D5
:104870002ACB0F0052CB0F007CCB0F00A8CB0F0030
:10488000D4CB0F00FFCB0F002493002026930020F1
:1048900004800020D51A5A006BCC0F00B3CC0F0057
:1048A0007E67E54E1DCD0F0058CD0F007ECD0F0069
:1048B000D6D20F0003450F0000E100E06C99002004
:1048C0000080002002CE0F00DBE5B1517CB0EE8706
:1048D000307800F0B1FE3378002B00F0848045483A
:1048E00006F02EFFFFF7FCFD0FE00123AEE60124EA
:1048F000414806F025FF4FF0804300226D2DC3F89C
:104900001C253ED13D4806F01BFF3D4806F018FF30
:1049100000F0CCF900F0B2FD60B300F00BFF48BB33
:10492000384806F00DFF384806F00AFF4FF44053B0
:104930005A68364B9A4211D1354806F001FF3B7850
:104940003BB9344806F0FCFE334806F0F9FEFFF7A9
:10495000E3FD324806F0F4FEFFF7C2FD304B31486C
:104960001B6800221A6006F0EBFE2F4806F0E8FEF6
:1049700000F09CFE2D4806F0E3FEFFF78DFD0024BD
:10498000B6E7002C3FF481AE4FF0010982E6012129
:1049900091E6B8F1000F3FF4B9AE254A2548CCF8AE
:1049A00000200193FFF7CAFD019B1D49AEE60124DB
:1049B000ADE64FF480030B60F0E61F4806F0C0FE42
:1049C000022000F0F9F91D4806F0BAFEA5F14E03E9
:1049D0005842584103F096FE23E7194806F0B0FE0E
:1049E0000022114674E7174806F0AAFE03F0DAFE2B
:1049F0008BE700BF8ACE0F0018CC0F0048CC0F0009
:104A0000DECE0F00F7CE0F003BCF0F00DBE5B1513C
:104A100052CF0F006ACF0F0080CF0F0096CF0F004C
:104A200004800020B3CF0F00CDCF0F00ECCF0F00DC
:104A3000D51A5A0020A10700A7CD0F00DFCD0F0027
:104A400047CE0F00B7CE0F0010B58EB03423ADF8AF
:104A500002300DF10201002301A8ADF80430FFF788
:104A60003DFD044640B9BDF80430102B07D0112B92
:104A70000CD001A801F026F920460EB010BD054B60
:104A800001221A70072000F097F9F2E7014B187025
:104A90000820F8E72593002013B5002301A801930F
:104AA000FFF70CFD044650B9019802F09BFB019BF7
:104AB000093B022B03D8034AD05604F01FFD2046C1
:104AC00002B010BDC2D20F0008B5FFF7BDFF052828
:104AD000FBD1FFF7E1FF0528F7D108BD0021024A0D
:104AE000084602F03DBF00BFC94A0F0010B50020C4
:104AF000144600F047FA204610BD00001F2886BF6C
:104B000000F01F00044B4FF0A04300F5E0704FF49D
:104B1000403243F820207047000300501F288ABF0E
:104B2000064B4FF0A04300F01F00D3F8103523FAD6
:104B300000F0C04300F00100704700BF00030050C8
:104B40007047704700234FF0FF328360C0F8003594
:104B5000C0F86025C0F86425C0F86825C0F86C2549
:104B600040F2FF32C0F80435C0F80825C0F80C3513
:104B7000C0F81035C0F81435C0F82035C0F8243519
:104B8000704700001F4B1F294FF0000230B5C3F8DB
:104B900000258BBF01F01F0201F5E0721A4B4FF0A8
:104BA000A04388BF02F5E0754FF0030496BF43F8B9
:104BB000224043F825400A46012404FA02F2C3F8D1
:104BC000082500F5AC700F4B002243F82010FF21A0
:104BD000C3F804250220C3F808150421C3F80C15F6
:104BE000C3F810050948C3F81425C3F82005C3F815
:104BF0002415C3F82825C3F82C25C3F80045C3F8AD
:104C0000102130BD00C00140000300502495002059
:104C100038B54FF0804301240025DC600220C3F842
:104C200018559C60FFF76AFF0F20FFF767FF184BCE
:104C30004FF4C8502343984706212846FFF7A2FFA8
:104C40001A212046FFF79EFFFFF77AFF114A1E2127
:104C5000082002F061FE08B102F01AFF02F0BAFD6E
:104C60000D490E4BE02081F823001B684FF47A7247
:104C7000B3FBF2F3013BB3F1807F08D24FF0E022A7
:104C80005361002381F8230093610723136138BD2A
:104C9000E0D20F002893002000ED00E00880002003
:104CA0000148FFF74FBF00BF00C001404FF0E023B5
:104CB000002110B51961FFF7F3FF154B154C4FF4A8
:104CC0000032C3F8802003F1C04303F53C534FF496
:104CD0008032C3F84823C3F8082301225A609A603F
:104CE0004FF080430220DA600B461F2BD5BF1A46D7
:104CF00003F01F024FF0A041214602F5E07201339C
:104D0000302B41F82200F0D1FFF71BFF10BD00BF90
:104D100000E100E000030050074B82B023F81010C0
:104D2000064B0022C3F81021D3F810210192019AFA
:104D300001229A6002B070472495002000C0014013
:104D400010B5164B1C68164B1B68B4FBF3F103FB44
:104D50001141B1EB530F4FEA530288BF591A4F2349
:104D600059430020B1FBF2F189B2FFF7D5FF0D4B9B
:104D70001B68B4FBF3F203FB1244B4EB530F4FEA8E
:104D8000530288BF1C1B8F235C430120B4FBF2F14C
:104D9000BDE8104089B2FFF7BFBF00BF2C950020CF
:104DA000209500201C950020024A136801331360EF
:104DB000FFF7C6BF2C9500201A490A6808281FD89B
:104DC000DFE800F00F050F1E1E161A232900164BF0
:104DD00040F6B83018604FF480539A4218BF0B6009
:104DE0007047114B4FF4967018604FF48013F4E73E
:104DF0000D4B64221A6070470B4B40F6B8301860B8
:104E000002F0103323F08053E7E7084B40F6B83048
:104E100018601023E1E7054B4FF4967018604FF0CF
:104E20001013DAE718950020209500201C9500202B
:104E30000369C26893429CBF81685B18013B981A62
:104E400070472DE9F041D0E902840546A8EB04063D
:104E50004068964220440F46144404D906F08FFD62
:104E6000EC60BDE8F0813246A4EB080406F087FD53
:104E700068682246B919F1E72DE9F843C568064686
:104E8000894617464FF000083369B46870689D4240
:104E900028BF1B19641BBC4203F1FF3328BF3C46EB
:104EA0005B1B9C4228BF1C4649462844224606F00C
:104EB00066FDB3682544AB4208BF00253F1BA044F4
:104EC000A144F560E0D14046BDE8F8831149124A9B
:104ED000032310B5C1E90433104B8A61CB610A6624
:104EE0004FF480530E4A0B620C4600234A66802220
:104EF0008B624B62CB620B67CB664B678A66E01DA9
:104F0000084906F034FD0849204606F030FD20230C
:104F1000A37110BD80F00320FFCF0F0080E00320BD
:104F200000E0032008D00F000CD00F00F8B5144BA0
:104F3000182700FB07751D4407FB00330E46DB6A8C
:104F4000012B14460AD0022B14D023B92846FFF7B0
:104F50006FFF844208D900242046F8BD2846FFF799
:104F600067FF844228BF0446224631462846FFF7A1
:104F700068FFF1E72846BDE8F840FFF77DBF00BFB6
:104F800080F00320F8B50B4B1B7804460D461646FF
:104F90000BB9FFF79BFFEFF311874FF0200181F36F
:104FA0001188324629462046FFF7C0FF87F3118853
:104FB000F8BD00BF80F0032000F1804382B01A6882
:104FC000002A14BF0120002004D000221A601B68B0
:104FD0000193019B02B070470F4A1378D3B903784D
:104FE0004FF08041C3F34003C1F88035037803F0EC
:104FF0000103C1F87835094B1968C90706D4E021C7
:1050000083F800130121C3F88011196001230448BB
:1050100013707047034870473C95002000E100E0A2
:105020000000AD0B0C00AD0B014B02681A6070471D
:10503000309500204FF080434FF46072C3F8042392
:105040007047000010B54FF08043D3F80443620767
:1050500007D54FF48470FFF7AFFF10B11E4B1B68EC
:105060009847A30608D54FF48A70FFF7A5FF18B13B
:105070001A4B00201B689847600608D54FF48C70C7
:10508000FFF79AFF18B1154B01201B6898472106BE
:1050900008D54FF48E70FFF78FFF18B1104B00202A
:1050A0001B689847E20508D54FF49070FFF784FF1E
:1050B00018B10B4B01201B689847A3050AD54FF484
:1050C0009270FFF779FF28B1054BBDE810401B68CF
:1050D0000220184710BD00BF3895002034950020ED
:1050E00030950020044AD2F80034DB07FBD501607C
:1050F000BFF35F8F704700BF00E001404FF0805367
:105100001A69B0FBF2F302FB130373B9084B0222D6
:10511000C3F80425C3F80805D3F80024D207FBD54B
:1051200000220448C3F8042570470348704700BFB5
:1051300000E001400000AD0B0A00AD0BF8B50B4BD1
:105140001546012206460F46C3F804250024A54251
:1051500004D1064B0022C3F80425F8BD57F82410EB
:1051600006EB8400FFF7BEFF0134F0E700E00140EA
:10517000BFF34F8F0549064BCA6802F4E062134340
:10518000CB60BFF34F8F00BFFDE700BF00ED00E035
:105190000400FA054FF08053D3E94C30002808BFD3
:1051A000082B0CBF012000207047000008B54FF00D
:1051B0008053D3F83021082A4ED14FF0804200218D
:1051C000C2F80C11C2F81011C2F8381502F54042AD
:1051D000D3F80414C2F82015D3F80814C2F8241523
:1051E000D3F80C14C2F82815D3F81014C2F82C15F3
:1051F000D3F81414C2F83015D3F81814C2F83415C3
:10520000D3F81C14C2F84015D3F82014C2F8441582
:10521000D3F82414C2F84815D3F82814C2F84C1552
:10522000D3F82C14C2F85015D3F83014C2F8541522
:10523000D3F83414C2F86015D3F83814C2F86415E2
:10524000D3F83C14C2F86815D3F84014C2F86C15B2
:10525000D3F84434C2F87035FFF79CFF18B1484BBF
:10526000484AC3F88C26FFF795FF18B1464BFB223E
:10527000C3F81825FFF78EFF58B14FF080424FF06A
:105280008051D2F8E43ED1F8581261F30303C2F81A
:10529000E43EFFF77FFF20B13C4B4FF40072C3F8B0
:1052A00040264FF08053D3F83031082B09D14FF00E
:1052B0008043D3F80024D10744BF6FF00102C3F844
:1052C0000024334AD2F8883043F47003C2F888309F
:1052D000BFF34F8FBFF36F8F4FF01023D3F80C2223
:1052E000D2071DD52B4B0122C3F80425D3F8002487
:1052F000002AFBD04FF01022D2F80C3223F0010329
:10530000C2F80C32234BD3F80024002AFBD0002231
:10531000C3F80425D3F80024002AFBD0FFF728FFA8
:10532000D3F80022002A03DBD3F80432002B22DA60
:10533000184B0122C3F80425D3F80024002AFBD01F
:105340004FF010221221C2F80012D3F80024002AD4
:10535000FBD04FF010231222C3F804220D4BD3F8D8
:105360000024002AFBD00022C3F80425D3F800242F
:10537000002AFBD0D2E7084B084A1A6008BD00BFDC
:10538000005000404881030000F0004000900240BF
:1053900000ED00E000E00140088000200090D00314
:1053A00013DF704718DF7047064B10461A78012A42
:1053B00003D1012904BF02221A7008B102F068BBB0
:1053C000704700BF8195002008B5FFF7C7F888B186
:1053D00011481C2101F098FF08B102F059FB0F4958
:1053E0000D4800231C2201F07FFF98B1BDE8084062
:1053F00002F04EBB4FF47F20FFF780FE07220749E3
:105400004FF47F20FFF79AFE054B1A78012A04BF5C
:1054100002221A7008BD00BF84950020409500202C
:105420008195002070B5124C124D134ED4F8003403
:105430007BB1C4F80056C4F80456C4F80856C4F842
:105440000C56C4F81056C4F81456C4F81856C4F8CC
:105450001C5602F0EFFA05F0F2FF20B104F00EFE48
:10546000002005F01DFA3378023B022BDED870BD18
:10547000000001403546526E8195002013B54FF46F
:105480004053124A596891420CBF9C684FF48054B3
:1054900001A800F0B5F92368013302D16368013334
:1054A00011D0019B1A88012A0DD1588820B1996822
:1054B0000022204602F034FB019B5B881B1A5842F5
:1054C000584102B010BD0020FBE700BFDBE5B15141
:1054D00084B02DE9F34108AC84E80F009DF82080EA
:1054E000BDF8227001A80E4615461C4600F088F94A
:1054F000B8F1060F10D8DFE808F004143325584936
:105500006100304B0122FF215F809C601A809980EE
:105510002D4B1A70FFF758FF02B0BDE8F04104B000
:105520007047284B721922449A60A5221A80C3E959
:105530000365FF229A800C9A5F805C619A61224B1E
:105540000122E6E7019A1F4B118819805188926861
:105550009A60AA22C3E9036559809A805C61EEE7EC
:10556000019A184B1188A5290AD100229A60FF22BE
:105570001A60FF229A800022C3E903225A61DEE703
:1055800019805188926859809A60F2E7FEF7E6FF29
:1055900040B100F0A9FD08B102F07AFA0A4B0322EB
:1055A0001A70B9E700F020FAF5E7064B00229A607E
:1055B000FF221A60019A92889A80ABE7024B04227C
:1055C000EEE700BF409500208195002000B50C4B10
:1055D0001B7889B063B90B4B1B786BB905238DF829
:1055E0000C30079B009303AB0FCBFFF771FF03E079
:1055F00004F03EFB0028EED009B05DF804FB00BFCC
:10560000809500205C9500201FB50023CDE9023372
:10561000074B019301F038FE38B9064A4FF47F2357
:10562000114601A8536001F04DFE05B05DF804FB82
:10563000A9530F008495002080F001031A40164BF7
:1056400070B505460E461A7000F0C6FF044628B92C
:1056500035B100F0A5FC0446FFF7E4FE204670BD1E
:10566000BEB10E4B0E4A0F481D70294602F0E2F8FB
:105670004FF400444FF4FA7029464FF47A72002335
:10568000E6FB040107F034F82A460146064802F01A
:10569000E3F800F085F9DEE7809500205C950020B6
:1056A000CD550F000CD30F00609500201FB51C4B8B
:1056B0004FF0FF324FF44054C3F88020C3F88021EC
:1056C00003F1E343626803F5441303F2DB439A42B8
:1056D00017D1144806F034F8A4682046FFF760FE9E
:1056E000034640B1104911484FF4C57206F028F83E
:1056F0004FF000531C60204604B0BDE8104000F09D
:10570000A3B80B4806F01CF80023CDE902334FF490
:10571000805406236846CDE90034FFF743FEDFE7F7
:1057200000E100E013D00F00F6D20F0045D00F00CB
:105730002ED00F0007B501A800F062F8019B1A886F
:10574000A52A07D09888A0F1AA035842584103B06F
:105750005DF804FB0120FAE710B501F053F9A8B198
:105760000E4B0F4843F00103984701F0B5F808B11C
:1057700002F08EF901F046F908B102F089F901F062
:10578000F7F8044638B102F083F904E001F014F9A7
:1057900004460028E4D1204610BD00BFF0D20F001F
:1057A00000A8610000B589B003AB1422002118469F
:1057B00006F045F802228DF80C20002200920FC856
:1057C000FFF786FEFFF72EFE002009B05DF804FB10
:1057D00013B5044601A800F013F8019B1A88228033
:1057E0005A8862809A68A2609A88A280DA68E26029
:1057F0001A6922615A6962619B69A36102B010BD96
:10580000014B0360704700BF00F00F00F0B5034686
:10581000186880F308885868FF2464B2EFF30585A0
:10582000002D01D1A64600472546064621273FBA4E
:10583000F0B40024002500260027F0B4F92040B27F
:10584000004700BFF0BD00BFFFF7E0BFF7B5002382
:105850000DF1020101A8ADF80230019302F098FDAC
:10586000034600BB019805785DB3184A92F83010E2
:10587000032928D00C2707FB03F416191159E1B9A5
:1058800092F8303015510133DBB282F83030BDF878
:1058900002300F4A04309B08013BB0600846736039
:1058A00002F05EF80346019828B123B102F08CFDA6
:1058B00008B102F0EDF803B0F0BD0133042BDAD1EA
:1058C000F1E70723EFE70423EDE700BF8C95002005
:1058D00019590F00084609B102F0DAB87047000004
:1058E00010B50C230B4A4343D418D15881B192F818
:1058F0003010A0680139C9B282F830100438002194
:10590000C4E90111D15002F05FFD08B102F0C0F806
:10591000002010BD8C9500201F4B70B501221F4E3A
:105920001A7096F8303003B970BD1C4C00252368FE
:105930006BB1013B042B07D8DFE803F019060F0316
:105940002500204600F0DAFEE8B2FFF7C9FF013576
:10595000042D04F10C04EAD1E3E7A3686360204658
:1059600000F070FE0028EFD002F092F8ECE720463D
:1059700000F04AFF00F026FF08B102F089F8052088
:10598000FFF71AFAE0E700F06BFF00F089FFBDE8CF
:1059900070400620FFF710BA5C9500208C9500201F
:1059A00008B50E4B002283F8302004210139C3E9E9
:1059B00001221A6003F10C03F8D1094800F03CFE03
:1059C00002F07EFC08B102F063F8064802F064FCC5
:1059D00008B102F05DF8002008BD00BF8C950020E2
:1059E000D5580F004D580F0008B50020FFF778FF7D
:1059F0000120FFF775FF0220FFF772FF0320FFF77A
:105A00006FFFBDE8084002F0A3BC006870476CDF80
:105A100070476DDF70476EDF70476FDF704772DF72
:105A2000704773DF704774DF704776DF704777DF4A
:105A300070477ADF70477CDF70477FDF704786DF13
:105A400070478FDF704790DF7047AFDF7047B0DF80
:105A50007047B1DF7047B2DF7047B5DF704764DF72
:105A6000704766DF70470C280AD8DFE800F00709A6
:105A7000090909090B091409090F0D0001207047D4
:105A800006207047032070470420704704290CBF8C
:105A90000520062070470220704701F0F9BF10B5BD
:105AA000044608460321FFF7DEFF0246204601F0C8
:105AB00063F918B1BDE8104001F0EABF10BD000065
:105AC0000346032B10B50846144620D0042B23D1DF
:105AD00069B1124B18884FF6FF7398421CD01321FE
:105AE000FFF7A3FFC0B1BDE8104001F0D1BF1046E1
:105AF00002F074F808B101F0CBFF094B1B689C421F
:105B00000AD101220321074801F036F9EAE7012111
:105B1000FFF7A9FF0246F6E710BD00BF1480002082
:105B2000F895002050960020F8B50A4DAB889E18D5
:105B30001D2E14460DDC2F68FE1802F1010C07F82B
:105B400003C07070B01C05F01AFFAB8802331C4410
:105B5000AC80F8BDE0950020F0B54E4E347893B09F
:105B6000002C40F09380102221464B4805F067FE40
:105B7000494A4A4B1360214618220CA805F05FFEE3
:105B800001238DF8303028230E93454B1B78002BD2
:105B90007ED0444B02AC03F11005186859682246C8
:105BA00003C20833AB421446F7D13F48102202A982
:105BB00005F01CFE00286BD03C4B3D4C1C600121C5
:105BC0001846FFF728FF08B101F062FF364B06AA1E
:105BD00003F1100C174618685968154603C50833B9
:105BE00063452A46F7D1A3798DF82E30314B2068D2
:105BF000A2880A90ADF82C200021012218461F60CF
:105C0000FFF70BFF08B101F043FF03238DF8443089
:105C100004238DF8063041F23053ADF80830264B9E
:105C200006AA9B798DF80A300DF1070102A8FFF74B
:105C300016FF012210460DF10601FFF775FF1F4800
:105C400005F0ABFE1D49C2B20920FFF76DFF10221F
:105C500006A90620FFF768FF0F4919480CAAFFF7AD
:105C6000DEFE08B101F014FF154C0422217801205A
:105C7000FFF7DDFE08B101F00BFF20780121FFF7EF
:105C8000D0FE08B101F004FF0123337013B0F0BD62
:105C90000623BEE73A960020E0950020C09500203C
:105CA000FC95002010D30F0005960020F4950020ED
:105CB000FE950020F0950020509600205ED00F0049
:105CC0000C800020F0B504460146B1B0A94801F0AF
:105CD00087F82388262B3BD80F2B04D8012B00F004
:105CE000CC8031B0F0BD103B162BFAD801A252F88F
:105CF00023F000BF7D5D0F008B5D0F00E35C0F00A4
:105D0000BD5D0F00B75E0F00E35C0F00E35C0F00AA
:105D1000E35C0F00E35C0F00E35C0F00D35E0F0059
:105D2000E35C0F00E35C0F00E35C0F00E35C0F003B
:105D3000E35C0F00E35C0F00455F0F00E35C0F00C6
:105D4000375F0F00E35C0F00E35C0F003D5E0F0068
:105D5000513B9AB2052AC4D8052BC2D801A252F8E9
:105D600023F000BF875E0F00D35E0F00E35C0F00DF
:105D7000E35C0F00575F0F00235E0F007E4BA2888D
:105D80001A807E4B00221A70ABE780237A4CADF864
:105D900024307B4B208832221A6010A9012309AAE3
:105DA000FFF759FE08B101F073FE764B1B780BB973
:105DB000FFF7D2FE4FF6FF73238092E7724B03ACDE
:105DC0009A79186899888DF822200790DA1DADF825
:105DD00020101733264610685168254603C508323F
:105DE0009A422C46F7D1694B09AA03F118071546C8
:105DF00018685968144603C40833BB422246F7D1D9
:105E0000186820605C48624A008810AB8521CDE9A3
:105E10001456FFF712FE00283FF463AF01F038FE7E
:105E20005FE7A379002B7FF45CAF534B13211888F5
:105E3000FFF7FBFD00283FF454AF77E0237A012BF6
:105E40007FF44FAF4D4B00221A704D4B196801394A
:105E5000196069B910AB1422184605F0F0FC052250
:105E60008DF84020149A00920FC8FFF731FB38E7F5
:105E700031B0BDE8F040FFF76FBE3F4B00211888FE
:105E8000FFF7EFFDD6E7A379002B3FF42AAFA27B03
:105E9000043A022A3FF625AF022B18BF01238DF8E2
:105EA00040304FF4C173ADF84430334B10A918881B
:105EB000FFF7CDFDAFE7344A258A508D02F1180176
:105EC0000023854218BF19460732A088FFF7B7FDA7
:105ED000B0E7294C20884FF6FF75A84225D02D4BFE
:105EE0001B78EBB12C4901230822FFF7B2FDE8B97A
:105EF0000246014602232088FFF7ABFDB0B9208897
:105F00002A460C21FFF7A1FDA0F54053023B012BCF
:105F10007FF6E7AE08283FF4E4AE11288AD1E0E628
:105F20001A461946FFF795FD84E7082031B0BDE811
:105F3000F04001F0ADBD104B002218881146FFF76C
:105F400082FD77E70023ADF840300B4B10A918888D
:105F5000FFF777FDC5E6E4881048172C28BF172403
:105F6000214605F0EDFB044B21461888FFF775FD2F
:105F700060E700BF50960020148000203A96002071
:105F8000108000203C960020FE95002016960020F0
:105F900080960020FC9500203296002065D00F00EE
:105FA00030B5434A4348002395B01370424A1370FA
:105FB00000F042FB01F0D2FD0446002861D13F48C9
:105FC000FEF7AEF900285FD13D4B01221A70112374
:105FD0003C488DF8043005F0E0FC3A4982B201A853
:105FE000FFF729FD08B101F053FD0822002104A8A4
:105FF00005F025FC344A4FF0C87304A8CDE904230A
:10600000FFF717FD08B101F043FD00210C2201A8A4
:1060100005F015FC0823ADF804302C4B02932C48F6
:106020002C4B039301A900F02BFD08B101F030FDCA
:10603000294D4022002104A805F001FC284605F066
:10604000ACFC0595254DADF81000284605F0A5FCE3
:106050000795234DADF81800284605F09EFC112346
:10606000ADF8300004A8ADF84C300D9500F0C8FF35
:106070001C4B30221A7007225A7010229A70FFF7B8
:106080006BFD204615B030BD04A8FFF7C2FC08B177
:1060900001F0FEFC9DF8113004A801338DF8113099
:1060A000FFF7B5FC002892D001F0F2FC8FE700BFAB
:1060B0003C960020C15A0F004D960020FE9500200E
:1060C000FC9500205ED00F000800180039610F0019
:1060D000509600209B5A0F0084D00F008BD00F00E9
:1060E00094D00F008096002010B50F4B01221A703B
:1060F0000E4B18884FF6FF73984207D01321FFF715
:1061000094FC08B101F0C4FC002010BD084C2378B9
:10611000002BF9D0074B1878FFF785FC08B101F088
:10612000B7FC00232370EFE73C960020148000208A
:106130003A9600200C800020F0B50B7889B0054617
:106140000C46092B2ED8DFE813F026002F003A006A
:106150000A0019002300000109013D000E0100F0B2
:106160007FFB0421FFF77FFC0246284600F004FE77
:10617000C0B109B0BDE8F04001F08ABCFFF7B4FF40
:1061800000F08EFB70B109B0BDE8F04000F096BBA6
:10619000FFF7AAFFF7E7764B01221A704B681A78CF
:1061A000744B1A7009B0F0BD714B02261E704B681B
:1061B0001B78012BF6D100F005FB3146D2E76C4B82
:1061C0000322EEE70520FEF7F7FD694B1E78022E4D
:1061D00037D0032E59D0012EE4D104AB102218463B
:1061E000002105F02CFB634A237A12788DF81020E9
:1061F000002203920C2B4FF00302CDE9012008D0BE
:106200003146284600F0B8FD0028CBD001F040FC14
:10621000C8E763681846FFF7F8FB0590181DFFF7FD
:10622000F4FB069003F10800FFF7EFFB079001A8CD
:1062300000F008FA0028B5D03146FFF714FC0246FA
:10624000DFE7237A13F0030012D0C0F104021A44EE
:10625000D2B219464FF0000C0E4601316768C9B240
:10626000914207F806C0F7D11B1A0433DBB2237240
:10627000012204929B086268069204A8059300F02C
:10628000C3FA00288ED00221D7E7207A830702D0F4
:106290003246314669E7384E0190314601F074FCD0
:1062A000014618B12846FFF7FAFB7BE76168019ABF
:1062B000306805F064FB019801F0CCFC0146002831
:1062C000F0D101A9304601F0D5FC01460028E9D102
:1062D00004230493019B9B08059304A83368069349
:1062E00000F00CFA074640B9244A237A11680B449F
:1062F0001360234B32681A6054E709281BD11F4BE7
:10630000217A1A68114419601E4B1B78002B3FF448
:1063100049AF1D4C2388013B9BB22380002B7FF4A7
:1063200041AF284600F0EEFC08B101F0B1FB174B7D
:106330001B88238036E7306801F050FC014610B11D
:106340002846FFF7ACFB3946ACE70E4B01221A702A
:106350000E4A8B8813800C4A138023E7094A0023D6
:1063600013700A4AF8E7054B196800F08FFCFFE646
:106370004D9600204C960020409600204896002024
:10638000F89500203B960020449600204696002079
:1063900018DF70470129F8B50D4614461E4607D090
:1063A000032912D00CB32046BDE8F84001F070BBC1
:1063B0000E4B1B78052BF5D10D4B1B68002BF1D034
:1063C0003246214604209847ECE7084F3B78022BE1
:1063D000E8D1084B5B689847054B3D701B68002B64
:1063E000E0D0324621462846EDE7F8BDFC96002075
:1063F000949600208896002030B589B003AC142212
:106400000021204605F01BFA094B1B88ADF80E3021
:10641000084BDB6806930025079B8DF80C50009312
:1064200094E80F00FFF754F8284609B030BD00BFCC
:10643000A4960020E896002000B589B003238DF8CB
:106440000C300A4B1B88ADF80E30094B5A68049289
:106450009A68DB680693079B0093059203AB0FCB0A
:10646000FFF736F8002009B05DF804FBA496002081
:10647000E896002000B589B001238DF80C300F4B51
:106480000F4A1B88ADF80E304FF4405359689142C3
:1064900008BF9A680B4B5968049118BF4FF480529B
:1064A0009968DB6806930591009203AB0FCBFFF769
:1064B0000FF8002009B05DF804FB00BFA49600208F
:1064C000DBE5B151E896002000B589B003AB14229A
:1064D0000021184605F0B3F904228DF80C200022A3
:1064E00000920FC8FEF7F4FF09B05DF804FB00004E
:1064F0001C4B2DE9F3411C4D1D601C4B02221A70F0
:10650000FEF72CF81A4B0446196840B1284600F0F3
:10651000FBFE20B302B0BDE8F04101F0B9BA4D1E58
:106520002D0BDFF8548001354FF440577B6811483C
:1065300043450CBFBE684FF4805606EB0436314627
:1065400005F0FEF801343046FEF7D8FDA542EDD83F
:106550000023054800931A460321FFF71BFF02B0F2
:10656000BDE8F081989600209C960020FC960020C3
:10657000F8960020B7D00F00DBE5B151F0B51F460B
:1065800085B00323CDE900300546960868460C46E1
:1065900002910396FFF7FCFEE0B1B4F5805F11D8DD
:1065A00001236846CDE90035CDE90246FFF7F0FE4C
:1065B00080B903236846CDE90035CDE90246FFF7EF
:1065C000E7FE07E03B463A46E11BE81BFFF7D6FF34
:1065D0000028E5D005B0F0BD1FB5104B0193104B5E
:1065E000104900241C70104B01A8CDE902441C8006
:1065F00000F068FE70B94FF440530C4A596891425C
:10660000084A0CBF9B684FF480535360084B00222C
:106610001A600124074B1C7004B010BD95630F0075
:10662000A69600209C960020A4960020DBE5B151A0
:1066300000970020FC960020014B1860704700BFB7
:106640009496002038B54368224C0FCB84E80F00A5
:106650002378590701D59A0735D16068850732D16B
:10666000A26891072FD1E16811F003042BD11044E7
:1066700008441949B2F5204F086026D84FF440521B
:10668000164955688D420ABF92684FF46922C2F5D7
:106690006A22904219D8DA0713D4114A13F0020F74
:1066A000104B08BF1346104A104911601049C2E947
:1066B0000113104B1B78012B09D1FFF719FF20465E
:1066C00038BD0D4BEFE70624F9E70C24F7E7082463
:1066D000F5E700BFE8960020F8960020DBE5B15111
:1066E000F9630F0039640F0088960020F1640F00F1
:1066F000C9640F00FC96002075640F002DE9F3417A
:1067000000284DD08668B3074CD1294B1B78052B48
:106710004AD1284D42682B68274F03EB820394002F
:106720003A68934206D94FF0FF332B600C2002B039
:10673000BDE8F081FDF712FFDFF88480D5F800C0D6
:1067400098B1D8F8000063462246314600F0CCFDEF
:106750000028ECD12B681C443B682C609C4225D15E
:10676000FDF7FCFEC8B10020E1E74FF440531349A8
:106770005A688A420CBF98684FF4805022463146CE
:1067800060440023FDF760FE0094D8F80000334613
:1067900000220121FFF7FEFDDCE7FDF72BFEE2E71B
:1067A0000E20C4E71020C2E70820C0E70920BEE79A
:1067B000FC96002000970020F8960020DBE5B15100
:1067C0009896002070B50B4B1D6885B90A4E33783A
:1067D000042B0CD1094C0A4B21781A780948FDF793
:1067E000C1FD10B90523337070BD2570FCE708208A
:1067F000FAE700BF00970020FC960020A696002034
:10680000E8960020A7960020F8B5114B1A78032AC5
:1068100004D0042A04D008242046F8BD04221A70AB
:106820000C4B1C68002CF6D10B4D43682F789E0052
:1068300007EB8303402B09D8816808483246384467
:1068400005F09DF82B7833442B70E5E70924E3E746
:10685000FC96002000970020A6960020A796002016
:1068600010B50B4C2378052B10D10A4B0A4A1B6834
:10687000116899420AD106232370084B1B68586897
:10688000FDF7AAFD08B90723237010BD0820FCE717
:10689000FC960020F8960020009700209896002093
:1068A000044B1B78072B02D1034B9B681847082029
:1068B000704700BFFC9600208896002000B589B084
:1068C00006238DF80C30079B009303AB0FCBFEF72C
:1068D000FFFD09B05DF804FBF0B58DB005A8FEF72B
:1068E00077FF089C002C3ED00B9E04F58053B342EA
:1068F0002DD91E4DA6F5805305EA53054FF440539C
:106900009B689C420BD869002B46A4EB450201F51D
:10691000805106EB4500FFF731FE0DB0F0BD05F5E7
:106920008053012701A8CDE90173CDE90337FFF7B3
:106930002FFD0028F1D14FF4805301A8CDE9023397
:1069400001970497FFF724FD0028E6D1DBE7012338
:10695000CDE90136A4084FF4805301A803930494B1
:10696000FFF716FDD9E72046D7E700BF00F0FFFF8D
:1069700000B58DB005A8FEF72BFF099880B1089BE4
:106980008BB94FF440530B4A596891420ED19B6822
:1069900080080022039001A8CDE90123FFF7F8FC4D
:1069A0000DB05DF804FB0B9A1344F1E74FF48053EC
:1069B000EEE700BFDBE5B15100B58DB005A8FEF7ED
:1069C00007FF099898B1089BA3B94FF440530C4AAC
:1069D0005968914211D19B680393800803214FF4B9
:1069E0007422049001A8CDE90112FFF7D1FC0DB08B
:1069F0005DF804FB0B9A1344EEE74FF48053EBE78A
:106A0000DBE5B15110B58CB005A8FEF7E1FE0898A2
:106A1000B8B10B9C00F58053A34214D94FF44053F6
:106A20009B6898421BD80F4BA4F5805203EA52038F
:106A30005900A0EB430201F5805104EB4300FFF73E
:106A40009DFD0CB010BD800803224FF480530490CC
:106A500001A8CDE901230394FFF79AFCF1E70E208A
:106A6000EFE700BF00F0FFFFA8DF7047AADF704725
:106A7000ADDF7047AEDF7047B0DF704762DF704751
:106A80002DE9F0470E4694B00546002800F0F78047
:106A9000002900F0F4804B68002B00F0F0804FF6E6
:106AA000FF730380774B04AA03F110071868596835
:106AB000144603C40833BB422246F7D141F2305397
:106AC0000DF10A0104A80293FFF7D8FF044600283D
:106AD00040F0D1802A1D02A90120FFF7C5FF04461E
:106AE000002840F0C8809DF80A30AB7101461C2296
:106AF0000DA804F0A4FE9DF834300E9443F0040376
:106B00008DF8343001AFAB798DF80E30214641F26B
:106B1000325303223846CDE91044CDE91244ADF892
:106B20000C3004F08CFE9DF8063023F01F0343F078
:106B30000303214614224FF4885A08A88DF8063022
:106B4000ADF804A00DF10C0804F079FE4FF0140923
:106B5000A8880A9405F1080308AA0DA90C94CDE9A8
:106B60000887ADF82C90FFF781FF0446002840F01D
:106B7000828001461C220DA804F061FE9DF834308D
:106B80000E9423F0180343F018038DF83430AB79DA
:106B90008DF80E30214641F2315303223846CDE9BB
:106BA0001044CDE91244ADF80C3004F048FE9DF8D5
:106BB0000630ADF804A023F01F0343F01303214671
:106BC0004A4608A88DF8063004F039FE1723ADF8C0
:106BD0002C30A8880A9405F1100308AA0DA90C947A
:106BE000CDE90887FFF742FF0446002843D101465C
:106BF0001C220DA804F023FE9DF834300E9443F0BF
:106C000002038DF83430AB798DF80E30214641F215
:106C1000345303223846CDE91044CDE91244ADF88F
:106C20000C3004F00CFE1123ADF804309DF8063052
:106C300023F01F0343F0030321464A4608A88DF8BA
:106C4000063004F0FCFD02230A93ADF82C30A8882E
:106C50000C9605F1200308AA0DA9CDE90887FFF7D6
:106C600005FF044638B97368AB62B36803B1EB62E1
:106C7000054B01221A70204614B0BDE8F0870E249F
:106C8000F9E700BF20D30F000B97002070B5054631
:106C900086B070B302884FF6FF739A422BD0174B21
:106CA0001B7843B3164C1022080AE170207121FAB8
:106CB00002F0090E072301266071A17102A80021CC
:106CC0006370ADF806302270A67004F0B8FD2B8A10
:106CD000ADF808300023ADF80C3028888DF80A6034
:106CE0000DF1060302A9CDE90434FFF7C3FE06B097
:106CF00070BD0E20FBE70820F9E700BF0B970020CE
:106D00000497002030B5044687B060B302884FF680
:106D1000FF739A4229D0164B1B7833B3154D1123BC
:106D20002B700B0A6970AB700B0C090EEB7029719C
:106D300005230021102202A8ADF8063004F07FFDE3
:106D4000238AADF8083001238DF80A300023ADF80E
:106D50000C3020880DF1060302A9CDE90435FFF7B8
:106D600089FE07B030BD0E20FBE70820F9E700BF21
:106D70000B9700200497002030B5134687B00446D7
:106D800030B300884FF6FF72904223D0124A127837
:106D900002B3124D697003211022ADF8061002A84B
:106DA0000021AB702A7004F04AFD238AADF8083048
:106DB00001238DF80A300023ADF80C3020880DF146
:106DC000060302A9CDE90435FFF754FE07B030BD34
:106DD0000E20FBE70820F9E70B970020049700201E
:106DE00070B50D4688B0044650B149B1826A3AB1D7
:106DF0000B88502B49D005D8102B43D0112B54D0E1
:106E000008B070BD512BFBD18E79022EF8D10A89C2
:106E1000038A9A42F4D18B7B043B022BF0D99DF874
:106E200016308DF8106043F001038DF816300B8A90
:106E3000ADF818304B8AADF81A30082201F114036E
:106E400001A80021079304F0FAFCA18A208801968A
:106E500001AACDF808D0FFF70BFE48B3E36A03B1EF
:106E6000984740F2FD132088ADF8143004A9FFF7CD
:106E700003FE0028C4D0E36A002BC1D008B0BDE8EF
:106E8000704018478B882380BAE7C98803899942E4
:106E9000B6D108238DF81030123535F8023C8DF844
:106EA0001830059504A99047AAE74FF6FF73EAE763
:106EB000BDF800302088DB07D3D5002604A9ADF843
:106EC0001460FFF7D9FD0028D5D1297D4B1E072B73
:106ED0003ED8DFE803F004192226282A3B2C6B8ACF
:106EE0008DF80460012B05D8062201212046FFF70A
:106EF00043FFBEE7012315358DF80C300295A36AD8
:106F000001A9204698477BE76A8A01239A428DF8B7
:106F10000430F0D806220221E8E702238DF804307D
:106F2000EDE70323FAE70423F8E70523F6E76B8A86
:106F3000022B02D803220821D8E7B5F81530ADF8A6
:106F40000830002B14BF06230723E7E70923E5E7F2
:106F50000322CBE7A8DF7047AADF70472DE9F04195
:106F600080468EB016461F460D4611B9084600F001
:106F70008FFD1C220DEB0200002104F060FC9DF847
:106F80001C30ADF80480002443F002038DF81C305F
:106F900021460123032268468DF80630CDE90A44D4
:106FA000CDE90C44089404F04AFC3B788DF800309D
:106FB0007B788DF801309DF8023023F01F0343F0F9
:106FC00002032146142202A88DF8023004F037FC97
:106FD0000A48ADF8106001ABE846CDE9023802AAD4
:106FE000149B0088ADF8124007A9ADF8146006950F
:106FF000FFF7B2FF0EB0BDE8F08100BF2C97002074
:1070000030B587B041F60A032D4AADF80C3004467E
:1070100003A901208DF80E00FFF79CFF0546D8B9A3
:107020002288E2B922894AB1264B0093E16804F133
:107030003C0342F62420FFF791FFD8B9228C4AB1D5
:10704000214B0093616A04F13C0342F62620FFF7CE
:1070500085FF78B9A36B7BB9284607B030BD1B4BC1
:107060000093616804F13C0342F62920FFF776FFA4
:107070000028D7D00546EFE71A788DF810205A88F7
:107080008DF81120120A8DF812209A88DB888DF86D
:1070900015301B0A8DF813208DF81630120A0C4B90
:1070A0008DF814200093072204F13C0304A942F652
:1070B0005020FFF753FF002818BF0546CCE700BF5C
:1070C0002C9700201C970020149700202497002064
:1070D0000C97002029DF704728DF7047064B1822E5
:1070E00002FB003000230422C0E904230371836003
:1070F0008361C360704700BF4897002013B5024604
:107100000846C96843680093044B53F8214043691B
:1071100010F80C1BA04702B010BD00BF389700202C
:1071200038B5194C2378182202FB03431A795869A1
:10713000012A03D0032A1AD00F2038BD134A9969B7
:1071400015689A68DB68A2EB0532B2F5805F1844D7
:1071500001EB053100EB053034BF92084FF480623B
:10716000FFF7B8FF0028E8D10123A370E5E74FF04F
:1071700080531B699BB2B0FBF3F0044B1B681844AF
:10718000FFF7AAFFEEE700BF4897002030970020E6
:1071900070B5134D6C780A2C1FD02E783444E4B2AD
:1071A000092C84BF0A3CE4B2182606FB0454A261F1
:1071B000207103C9A360049BE360AB7804F1100263
:1071C00082E8030023B100206B7801336B7070BD3F
:1071D000FFF7A6FF1128F7D1F5E70420F7E700BF76
:1071E0004897002038B5264CA3782BB100230228FD
:1071F000A37002D003283BD038BD2578214918223E
:1072000002FB05420B6892680133B2EB033F0B604F
:1072100019D86B1CDBB262780020092B08604FF094
:10722000180188BFA5F1090302F1FF3201FB0541F6
:10723000D2B288BFDBB2043162702370FFF75EFF09
:107240002846FFF74BFF6378002BD5D0A378002B9F
:10725000D2D1FFF765FF0028CED01128CCD02178FD
:10726000182303FB01410431BDE83840FFF746BF56
:107270002378182202FB034104310D20F4E700BFFC
:10728000489700203097002008B50A4B002119606C
:10729000094B1980997008460131FFF71FFF0A2931
:1072A000F9D1064B00201860054BC3E90000C3E983
:1072B000020008BD30970020489700203497002036
:1072C00038970020064A03461068042807D0086053
:1072D000411C11601A68034B43F8202000207047BE
:1072E000349700203897002013B55C180C43A4078E
:1072F00008D1009313460A4601460120FFF748FFD4
:1073000002B010BD1020FBE707B500220B4600922B
:1073100001460320FFF73CFF03B05DF804FB08299A
:1073200010B5044602D0002000F0B2FBD4E90030D2
:10733000BDE8104018470000204B21491A682F2350
:1073400000BF00BF00BF00BF00BF00BF00BF00BF45
:107350008A422FD000BF00BF00BF00BF00BF00BFE8
:1073600000BF00BF00BF00BF00BF00BF00BF00BF25
:1073700000BF00BF00BF00BF00BF00BF00BF00BF15
:1073800000BF00BF00BF00BF00BF00BF00BF00BF05
:1073900000BF00BF00BF00BF00BF00BF00BF00BFF5
:1073A00000BF00BF00BF00BF00BF00BF00BF00BFE5
:1073B00000BF00BF013BC3D1704700BF0880002061
:1073C0000024F4000C4B0D484FF4003210B5C3F804
:1073D000802001244FF48033C0F84833C0F80833CC
:1073E0004460FFF7A9FF064B846000201860FFF798
:1073F000A3FF044B187010BD00E100E00010014035
:10740000489800203D980020F7B5002406460DF16D
:1074100007000F468DF8074000F048FB0F4A9DF823
:107420000700557891786B1CDBB2994208BF234660
:10743000117899421BBF182101FB052504242F71E7
:107440001CBFAE60537000F055FB24B9044B4FF4E1
:107450008012C3F80021204603B0F0BD50980020F0
:1074600000E100E0F7B52449244B0025C1F8405164
:10747000C1F84451C1F84851C1F84C51C1F800510C
:10748000C1F804511B68002B31D0D1F804451C49C8
:107490000968641A24F07F442F461A68A24212D861
:1074A000A41A15441A7CDE6962B15A691F740092ED
:1074B0009B69144A01930821684600F051FA08B10B
:1074C00000F0E6FAAEB9104A1049137809789942EB
:1074D00005D10133DBB2022B08BF002313700C4A25
:1074E00042F823500B4B4FF48012C3F8002103B035
:1074F000F0BD3346D1E700BF001001404C9800209A
:10750000489800201F730F003E9800203F980020ED
:107510004098002000E100E02DE9F74FA248A34A7F
:1075200003781278A24C9A4257D00133DBB2022B77
:1075300012BF1A46002213469E4902709E4A0F68E7
:1075400052F823003B1823F07F4300220B6023688E
:1075500016461546944613B942B1236006E01968F1
:10756000814228D902B12360091A19604FF0010B3A
:107570002368DFF85C8200934FF0000A002E46D0AB
:107580003046F6698B4B45681A688C4F8368A91A98
:1075900021F07F41B94200F2E2800B4401210174E5
:1075A000216803600022C0E90122C261002940F085
:1075B000DE802060E2E7401A0D44D968D3F81CE071
:1075C000C3F800C031B17A1922F07F42C3E901212A
:1075D000DE611E4673460122BDE70026B346C7E7BB
:1075E00098F802002568531CDBB2984208BF0023BC
:1075F00088F80030182303FB028213799068022B6D
:1076000067D0032B00F09580012B00F0958098F84F
:10761000002098F801309342E2D12368BAF1000FBC
:1076200005D1009A9A4202D1BBF1000F42D0002B43
:1076300000F0B680D3F80090614C5E4BD4F804653E
:107640001868604F351A3B7825F07F4503359BB9A4
:107650004FF48033C4F84433C4F804335A4B4FF426
:1076600000324FF00108C3F880211A60C4F800808E
:10767000FFF762FE87F80080A9452CBF48444019F7
:1076800020F07F40C4F84005D4F804359B1B23F05C
:107690007F43801B033320F07F4083420AD9D4F814
:1076A0000435C4F84035FFF747FE474B4FF400322E
:1076B000C3F80021454B00221A7003B0BDE8F08FDB
:1076C000B84209D03A46FF69002FF9D1002303746C
:1076D0009DE72F462A46F7E790421ED1D5F81C9029
:1076E000C4F80090B9F1000F0BD1354B0192012184
:1076F0009960304BC3F80090344B1970FFF71CFEB3
:10770000019A3B68FF69D76117B13A6813443B603F
:10771000A94518BF4AF0010AD8E7A946F1E72A743B
:10772000ED690123002DFAD1002B3FF470AF2560E5
:107730006DE700231A46F5E7057C002D7FF467AF5F
:10774000D1684160136983605369C3609369836141
:107750001E4B1B78002B18BF2946416012E7521BB5
:1077600022F07F429A4234BF9B1A002316E70A6830
:107770009A4213D3D21A0A60C1611AE75B1BD5691A
:1077800011463DB12A461568AB42F7D8ED1A15608F
:1077900015460A460360C561D061EFE60A46F2E786
:1077A000FFF710FE86E700BF3F9800203E980020BC
:1077B0004C9800204898002040980020FEFF7F0051
:1077C000001001403D98002000E100E03C980020BE
:1077D0005098002008B5FFF7F5FD104B00200B2254
:1077E00018809A700E4B18600E4B18700E4B187064
:1077F0000E4B4FF48012E021C3F8802183F814135C
:107800001A6002F18042A2F56F22C2F8080583F8DF
:107810001113074BD2F804251A6008BD50980020B8
:107820004C9800203F9800203E98002000E100E0A6
:1078300048980020074B9B784BB132B128B10368C0
:10784000187C20B959745A61704707207047082086
:10785000704700BF509800202DE9F347234EB378BE
:10786000074688469146002B3CD000283AD0042990
:1078700036D94369002B35D0437C0024012B0DF110
:1078800007000CBF8A46A2468DF8074000F00EF9AB
:107890007378B2785D1CEDB2AA4208BF25463278F3
:1078A000AA421BD0182202FB036301221A71104A5C
:1078B0009F60D2F804257570C3E90328C3E905A9C0
:1078C0009DF8070000F016F974B90A4B4FF48012C6
:1078D000C3F80021204602B0BDE8F0870424EFE79A
:1078E0000724F7E70824F5E70424F3E7509800207D
:1078F0000010014000E100E0064A92783AB130B150
:10790000426922B1002202740221FFF77DBD0820E6
:10791000704700BF509800204B1C30B5DB00044678
:1079200012F003009BB20DD1074D2A601A44074B99
:107930001A60074B1870074B1870074B1C80074BD9
:10794000198030BD0720FCE7689900206499002069
:1079500060990020619900205E9900205C990020C8
:107960002DE9F347DFF8C480B8F800308B420646B3
:107970000D4617464DD300240DF107008DF8074042
:1079800000F094F8254B264A26481B78008892F888
:1079900000C084455FFA8CF138BF0131DBB238BFDB
:1079A000CCB2A3422FD014781178CBB2884286BFD4
:1079B0000133DBB20023E4B213709DF8070000F03E
:1079C00099F84FF6FF739C4225D0DFF86490D9F800
:1079D00000304FEAC40A43F8347003EBC402AEB17E
:1079E000A5B1114BB8F800001B682A4604FB003013
:1079F000314603F0C4FFD9F8003053449D80002085
:107A000002B0BDE8F0874FF6FF74D6E700239380FD
:107A1000F5E70920F4E70420F2E700BF61990020B0
:107A2000609900205C990020649900205E990020F4
:107A30006899002070B5104C104D22782B789A422E
:107A400000D170BD0E480F4A2378126806880E4890
:107A500002EBC301006852F83320898803FB06005B
:107A600090470A4922780988D3B2914286BF0133F0
:107A7000DBB200232370E0E76199002060990020C9
:107A80005E99002068990020649900205C9900208C
:107A90001FB50021CDE9021001AA44F20100ADF8A2
:107AA0000410FCF72EFD05B05DF804FB70B5EFF394
:107AB000108672B60C4A9468012384B993600B4B0C
:107AC0000B4DD3F8801029401160C3F88050D3F8D3
:107AD000841051604FF0FF32C3F8842023460370B6
:107AE00006B962B670BD00BF6C99002000E100E0ED
:107AF000FC06FFBD10B5084B9A685AB150B9EFF3B8
:107B0000108172B6054A1C6814605C685460986005
:107B100001B962B610BD00BF6C99002000E100E021
:107B200003462AB110881A4619448A4203D1704785
:107B30004FF6FF70F7E743BA12F8010B9BB25840BB
:107B4000C0F3031343401BB283EA03331BB2580153
:107B500000F4FF50434098B2E7E70000064B074AA5
:107B600000201870064B1A600822C3E90120C3E9FF
:107B70000300C3E90500704774AC0020949900200D
:107B8000789900200020704730B50446E9B1124BC7
:107B90005A6800200860D2B1B4F5167F19D8013AAE
:107BA0005A60DA681C680132DA601A694FF4177596
:107BB00005FB02440C609969012494400132214381
:107BC00002F0070299611A6130BD0E20FCE7042023
:107BD000FAE70C20F8E700BF78990020F0B51C49BF
:107BE0008A6892B34D690E68AC1A04F00704234604
:107BF0004FF4177707FB036C604510D188690125A6
:107C00009D406840886100204E68D1F818C04FF050
:107C1000010E73440025164403F007030AE0013304
:107C200003F007039D42E5D11020EDE74AB1013A88
:107C30001C4601250EFA04F414EA0C0FA6EB020709
:107C4000F4D00DB1C1E90172F0BD0420FCE700BF22
:107C500078990020064A13691268013B4FF41771A6
:107C600003F0070301FB0323C3F858020020704709
:107C70007899002030B5C0B1B9B10E4BDA68B2B115
:107C8000013ADA609A681C6801329A605A694FF4C6
:107C9000177505FB024404600132D4F858020860ED
:107CA00002F007025A61002030BD0E20FCE70420DC
:107CB000FAE700BF789900203FB40C49086890B1FA
:107CC0000B4B1C687CB10B4A1568CDE902500023B0
:107CD0008DF804300B60136004AB13E907002346F2
:107CE00004B030BC184704B030BC704778AC0020FA
:107CF00090AC002080AC0020DC2810B509D0DD2835
:107D000010D0C02816D1FFF7D7FF0E4B0E4A1A60CD
:107D100010BD0E4A0E4B19681368581C1060C02223
:107D2000CA54F2E7094A0A4B19681368581C1060D4
:107D3000DB22F5E7064B054A196813685C1CC8543A
:107D40001460E2E71C800020697D0F0078AC002001
:107D500080AC0020C02802BF014B024A1A60704765
:107D60001C800020697D0F00C02810B409D0DB28DA
:107D70000BD0094B094A196813685C1CC85414607D
:107D800006E05DF8044BFFF797BF054B054A1A6004
:107D90005DF8044B704700BF80AC002078AC002039
:107DA0001C800020F97C0F0007B501228DF8070028
:107DB0000DF10701002002F0B3FDB0FA80F0400998
:107DC000800003B05DF804FB10B5064A064C12684B
:107DD0002368D05CFFF7E8FF10B923680133236004
:107DE00010BD00BF8CAC002084AC002008B5C020C2
:107DF000FFF7DAFF28B9034B1B6813B9024B034A9C
:107E00001A6008BD84AC002018800020C97D0F00D6
:107E100008B5DB20FFF7C8FF10B9024B024A1A6011
:107E200008BD00BF188000202D7E0F0010B50C4A41
:107E30000C4C12682368D35CC02B03D0DB2B0DD015
:107E4000042010BDDC20FFF7AFFF0028F8D1236825
:107E5000054A01332360054B1A60F2E7DD20F2E7A3
:107E60008CAC002084AC0020C97D0F00188000205D
:107E70007FB5174C174D184E002002F0F1FC20B3CF
:107E800022688AB12968336899420DD2012201A97A
:107E9000002002F0F1FC08B9FF2001E09DF8040089
:107EA0000E4B1B689847E7E70D4B1B686BB10292BE
:107EB000084A0221126803928DF8041004AA12E9FC
:107EC000070004B0BDE87040184704B070BD00BFA3
:107ED00080AC002078AC00207CAC00201C8000200E
:107EE00090AC0020014B18600020704790AC00203F
:107EF000034B1A780AB901221A700020704700BF9C
:107F000094AC0020014B00201870704794AC002006
:107F10002DE9F04F85B000284ED0284F3B78012B3B
:107F200006D0022B0CBF0420082005B0BDE8F08F5E
:107F3000234CDFF89C90234E234DDFF89880DFF828
:107F400098A0DFF898B0C9F800100023236002233E
:107F500030603B70C5F800802268D9F800309A4242
:107F600014D3C5F80080FFF741FF18BB174B1B68FF
:107F700001223A70F3B18DF804203268029222682F
:107F8000039204AA12E90700984713E033682268B5
:107F90009A5CC02A03D022689B5CDB2B04D12B683F
:107FA000534508BFC5F800B02B689847042801D096
:107FB0001128D1D10020B8E71020B6E794AC0020FA
:107FC00084AC00208CAC00201880002090AC0020F5
:107FD00088AC0020ED7D0F00C97D0F00117E0F00E1
:107FE000054B064A1860064B1960064B00201860C6
:107FF000054B1A60704700BF80AC0020557D0F0014
:108000007CAC002078AC00201C800020064B074888
:108010001B68DB00DBB20022037004215B4242706C
:108020008270C370FFF774BFD4AC002095AC002001
:1080300010B52A4C02462378012B11D0022B1DD0FB
:108040000BBB02BB2648FFF757FC08B1FFF720FD2A
:10805000244B1B68BBB1244ABDE810401078184778
:10806000012A10D1214B1968214B06311868FFF7FE
:108070004FFF08B1FFF70CFD02230CE0022A1AD0D3
:10808000032A01D052B110BD1A4A1368013303F01C
:1080900007031360002323700022CCE7164B10481F
:1080A0001A6041F67F21FFF7D7FB0028EBD0BDE82F
:1080B0001040FFF7EDBC104A1368052B0AD00133BE
:1080C00013600A4B19680A4BBDE810401868063166
:1080D000FFF71EBF044B01221A70DBE7E4AC00205F
:1080E000A4AC0020E0AC00209EAC0020C8AC002076
:1080F000CCAC0020D0AC0020A0AC0020F0B585B006
:1081000004AB03E907009DF80400032878D8DFE8F2
:1081100000F00802AAAD012005B0BDE8F040FFF76D
:1081200087BF039E534C032E40F28480029D6B78E0
:1081300013F00F0269D00E2A7CD1042E59D02A7870
:10814000500656D5110654D51A44AB781A44EB782C
:108150001A4412F0FF024CD1B71E39462846FFF7E9
:10816000DFFCEB5B834244D143492A780B6802F081
:108170000702D8B282422FD1013303F007030B600C
:10818000FFF744FF3D4B012230461A70FFF762FDB6
:1081900008B1FFF77DFC37494FF41670FFF7F4FC88
:1081A000B0B1042810D136480521FFF719FF08B1F6
:1081B000FFF76EFC334B1B68002B59D04FF00000CB
:1081C00005B0BDE8F04018470020FFF761FCEAE782
:1081D00020684FF41671E8E720684FF41671FFF736
:1081E000FFFE08B1FFF754FC05B0BDE8F040FFF713
:1081F0000DBF20684FF41671FFF7F2FE002837D04C
:1082000005B0BDE8F040FFF743BC2A78A9781344D5
:108210000B44E9780B44DBB263B91B4B1B68013399
:1082200083EAD20313F0070304D1184A0320137022
:10823000FFF7FEFE25681DB14FF416712846DBE7F7
:108240000C494FF41670FFF79FFC18B920684FF4E3
:108250001671D1E7042802D109480521CCE7284648
:10826000FFF716FCF8E706480521C5E70320C7E736
:1082700005B0F0BDD8AC0020D4AC0020C4AC0020C8
:1082800099AC0020DCAC0020D0AC00209EAC0020DB
:108290000220FFF7CDBE0000074B10B50446186062
:1082A0000648FFF71FFE08B1FFF7F2FB002C0CBFDA
:1082B0000E20002010BD00BFDCAC0020FD800F00B0
:1082C000184A1948002310B51360184A1360184A59
:1082D0001360184A1370184A1370184B184A01217A
:1082E0001960184B1960184B1970FFF7A3FA08B101
:1082F000032010BDFFF732FC0028FAD1FFF7F8FD8C
:108300000028F6D1114C4FF416702146FFF73CFCC3
:108310000028EDD120684FF41671BDE81040FFF73A
:108320005FBE00BFCCAC002030D30F00C8AC002033
:10833000A0AC0020C4AC0020E4AC0020D4AC0020F1
:1083400091820F00D0AC00209EAC0020D8AC002061
:108350000C4A08B5002313600B4A1360FFF712FCA8
:1083600008B1FFF795FBFFF7CDFD08B1FFF790FBD4
:108370000648FFF7C1FA042802D10020FFF788FB66
:10838000002008BDE0AC0020DCAC0020A4AC002044
:1083900037B50D46044698B191B10A4B19780022C1
:1083A000019259B101A91A70FFF764FC019B063BC9
:1083B0002B8023680433236003B030BD0420FBE727
:1083C0000E20F9E7C4AC00200438FFF707BC18DF23
:1083D00070470000F0B51D46154B87B018680F4672
:1083E00059681B7A03AC03C42370124B1868596890
:1083F000114B009301AC03C42046164603F0CDFA9E
:1084000021460246384603F0BAFA01A803F0C5FA3D
:1084100001A90246304603F0B2FA684603F0BDFAFD
:1084200069460246284603F0AAFA07B0F0BD00BF2D
:10843000C7D00F00D0D00F00312E30000120704780
:1084400010B51C460B781E2B06D0002320220521D8
:1084500002F0ACFC204610BD0024FBE7F8B5069FF7
:1084600014460D463A46002118461E4603F0E7F929
:108470007CB14FF0E023D3F8F03DDB0700D500BE20
:108480004FF0FF30F8BD284600F016FA013504F52C
:108490000074BC4206EB0401F5D32046F2E700006D
:1084A000F8B5069F0D461E460024BC4206EB0401AB
:1084B00001D32046F8BD054A284600F0CBFA002833
:1084C000F7D0013504F50074EFE700BFE8AC0020F9
:1084D00030B52E4D2A7A8DB0B2B12D4807AC03F0DD
:1084E0002FF9062514220021204603F0A8F98DF863
:1084F0001C500B9B009394E80F00FCF7E9FF06204B
:10850000FCF75AFC0DB030BD2B68002BFAD0214B84
:10851000197819B105201A70FCF74EFCD5E9003224
:108520009A42EFD307AC14220021204603F087F9CA
:108530006B7A3BB3062318498DF81C30CA221748C2
:108540004FF4602303F0FCF84FF420424FF4742101
:108550004FF4602003F04AF980B1114803F0F0F8BD
:108560001022002103A803F06AF94FF460224FF4AF
:10857000205303A8CDE90423FFF729FF094803F09E
:10858000DFF8B6E708488DF81C30F8E7E8AC0020C3
:10859000D8D00F002080002034D30F00E2D00F008D
:1085A00002D10F001BD10F0038D10F00024B0B601E
:1085B0004FF40073138070470901010001207047D8
:1085C00000487047E9800020044B054A1878054BA5
:1085D000002818BF1A461046704700BF97AF00200A
:1085E000878000203C8000202DE9FF411F4B187040
:1085F00028B11F4B6FF025029A720022DA721D4AD1
:108600001D4DDFF87CC017461C4BEE4603F11006EB
:108610006C4618685968F046A8E803000833B3426E
:10862000C646F6D12B7803F00F0310336B4413F8D2
:10863000103CD373114B18685968A646AEE8030086
:108640000833B3427446F6D115F8013B04A901EB97
:108650001313654513F8103C9373A2F10202D3D1B2
:1086600000233B7404B0BDE8F08100BF97AF002049
:10867000E980002086AF00206000001056D10F0076
:108680006800001010B570B9134B14481968022225
:1086900003F075F901230133DBB211485B0043F4A9
:1086A0004073038010BD052813D80B4B53F82040AE
:1086B000204603F072F9C3B21F2B28BF1F23084ABC
:1086C0002046E1188842E6D010F8014B22F8024F0C
:1086D000F8E70020E6E700BF2480002006AF002076
:1086E00004AF00204DDF70474EDF70474FDF70470B
:1086F00050DF704712DF704700F000BF002000F02D
:108700006BBD00001FB5244B402283F827230023B4
:108710008DF807304FF4405304465A681F4B9A4275
:1087200027D10DF10700FFF7E5FF9DF8073003B3F0
:108730000120FFF7D9FF0120FFF7D4FF0120FFF749
:10874000D5FF02A8FFF7D4FF029BDA0702D500206D
:1087500000F0D4FE029B9B0702D5022000F0CEFE63
:108760002046FFF741FF00F027F802F05BFE04B05F
:1087700010BD002301A88DF80430FCF72DFC084B38
:10878000039303A8FCF750FCFCF754FC4FF0804324
:10879000D3F838340293D7E700E100E0DBE5B151CC
:1087A000F9860F00012000F0A9BE0120FCF704BBF0
:1087B0000220FCF701BB00007FB52F492F4803F0D2
:1087C00046F84FF440532E4A596891424CD11A78DA
:1087D000102A46D9142A186944D95B69294CB3FB7D
:1087E000F4F50A2201A904FB153402F0E3FE264940
:1087F000224803F02CF801A9204803F028F8234967
:108800001E4803F024F80A2201A9284602F0D2FEED
:1088100001A91A4803F01BF81D49184803F017F87E
:108820004FF47A760A2201A9B4FBF6F5284602F045
:10883000C1FE01A9114803F00AF815490F4803F0D9
:1088400006F80A2201A906FB154002F0B3FE01A9B1
:108850000A4802F0FCFF0F49084802F0F8FF04B094
:1088600070BD00200023B9E70B49044804B0BDE8FF
:10887000704002F0ECBF00BF72D10F00FB800020FF
:10888000DBE5B15140420F007FD10F00A4D20F00B1
:1088900081D10F00BDD10F0083D10F0010B5034669
:1088A0001C1AA24200DC10BD0C781CB1013103F887
:1088B000014BF5E72024FAE72DE9F0410C46054687
:1088C0004FF400720021204602F0B9FF65B95A4901
:1088D0003E22204603F053F8552384F8FE31AA23A4
:1088E00084F8FF31BDE8F081B5F5017F29D86B1E12
:1088F000B3F5817F24BF6FF4817805EB08034BB992
:10890000F822227004F109012246FF2002F8010F2B
:108910008A42FBD11B02002240F69360191FB1F579
:10892000696F03F1010106D2834214BF8BB24FF687
:10893000FF7324F812300132B2F5807F0B46EDD17F
:10894000D0E7B5F5027F3AD86FF4017C65443DB9B4
:1089500020463A490B22FFF7A1FF2823E372203477
:10896000374B2E0103EB052864270025022EB9D8CA
:108970000B2241462046FFF791FF5C236FF0100069
:10898000372272216374E3746376B31C6773A07338
:10899000E1732274A27425756575A075E175227660
:1089A0006383D8F80C0038B102F0F7FFE0610136BC
:1089B000203408F11008D9E74FF4E910F6E7214B0D
:1089C0009D428FD86FF40277EA19012A0DD81C4B0B
:1089D00003EB0213DD68284602F0DFFF294602465A
:1089E0002046BDE8F04102F0CABF6FF4FD76A91938
:1089F0000902B1F5801FBFF475AF134B236003F17B
:108A0000144303F52C1303F6023363600F4BC4F8D1
:108A1000FC314FF46963A3614FF40053A5F20B25B9
:108A20004FF48072A3600A4B6561E1602261E361EB
:108A300004F12000D5E700BF5ED30F0089D30F00FB
:108A40009CD30F00080101005546320A306FB10A6D
:108A5000DA009A23F0B57B4B15460A689A4285B036
:108A60000C4608D103F114434A6803F52C1303F6AE
:108A700002339A4203D04FF0FF3005B0F0BDD1F879
:108A8000FC21714B9A42F6D18B6823F4FF5323F0FB
:108A90001E039B049B0CB3F5005FECD10B69B3F58F
:108AA000807FE8D1C96811F0FF06E4D1E369674A25
:108AB000934205D0664A93424DD0664A9342DAD13A
:108AC000A1F58053B3F5692F0ED2A36900936B68AB
:108AD0006269614802F034FE2269E068012304F112
:108AE0002001FBF7B1FC05E0B1F5805FC3D25B4824
:108AF00002F026FEA3695BB32A68934207D041F2D5
:108B000063018B4200D80AB14FF0FF332B606369D9
:108B100041F2630293421BD803F0070205EBD30333
:108B2000012191401A7B1142C8B204D16968024305
:108B300001311A736960D5E900329A4208D30120E5
:108B4000FBF758FC6B7A1BB1AB7A0BB901232B7284
:108B50004FF4007091E7A36900936B686269404825
:108B600002F0EEFD01236B72E368B3F1102F2AD1FE
:108B7000042204F1340102A802F001FF042204F1EE
:108B8000380103A802F0FBFE029BB3F5742F03D15A
:108B9000039BB3F57E2F13D0324802F0D1FD029B28
:108BA0003149324840F2F51202F0CAFD039B2E49CA
:108BB0002F484FF4FB7202F0C3FD01232B725AE7DA
:108BC0000123AB7296E7A3F57422B2F5204F33D29E
:108BD000EA7A04F120070ABB264A93421ED323698E
:108BE000B3421BD90422B91902A802F0C8FE029BA5
:108BF000D02B1FD1311D0422394403A802F0BFFE3F
:108C000003991D4802F09CFD124B039A9A424FF0C3
:108C100001060AD1194802F093FDEE72E06822695C
:108C200001233946A0F5A0305BE7154802F088FD26
:108C30002E7220E70836D2E7B3F5805FFFF457AF16
:108C4000BBE700BF5546320A306FB10A4028A5ADD8
:108C50003C8263D6DA009A238FD10F00C0D10F0077
:108C600095D10F00D6D10F0052D30F00EBD10F00DA
:108C70000BD20F0000D80F002BD20F0048D20F00EC
:108C80005ED20F004FF08053D3F83001082802D194
:108C9000D3F8343123B9A0F10D035842584170473D
:108CA00001207047094B012283F8D8200260BFF3EE
:108CB0006F8FBFF34F8F064A904202D0043A904222
:108CC00002D1002283F8D820704700BF98AF00205F
:108CD0005070024042DF704743DF704744DF704707
:108CE00012DF704707B54FF4405300205A68084B15
:108CF0009A420AD18DF807000DF10700FFF7F0FF47
:108D00009DF80700003818BF012003B05DF804FB90
:108D1000DBE5B15107B5FFF7E5FF58B1002301A826
:108D20000193FFF7DBFF0198003818BF012003B063
:108D30005DF804FB4FF08043D3F80C0400F0011001
:108D4000A0F1011358425841F1E7000010B5134B50
:108D5000134A5B68C3F3080383B9EFF310836BB95D
:108D600010494B681B0609D58024C1F8844092F84D
:108D7000D8308BB9FFF796FF4C6010BD92F8D83011
:108D800033B10146BDE810400748012201F06FB839
:108D9000BDE81040FFF786BF4C60E6E700ED00E05D
:108DA00098AF002000E100E04D8D0F000D4B182220
:108DB00002FB0033598A1A8A521A998A92B28A425D
:108DC00028BF0A46D9681423434303F1804303F5BF
:108DD0001C33C3F80016C3F80426034B03EB8000D2
:108DE000FFF7B4BF98AF002004700240074BD3F8E0
:108DF000C024D10309D406490648D1F8C010C3F8ED
:108E0000A017C3F8A427FFF7A1BF70470070024066
:108E100098AF002048700240082870B402D170BC9E
:108E2000FFF7E4BF0F4D104A00F59473182141433A
:108E300052F823406B18A4B2DE889B8869589B1BAC
:108E40009BB2A34228BF2346142404FB0022C2F88D
:108E50000017C2F80437054B70BC03EB8000FFF726
:108E600075BF00BF98AF002000700240287002401C
:108E700070470000014B80225A60704700E100E01B
:108E8000024B8022C3F88420704700BF00E100E05D
:108E9000074BD3F80014D3F800240A43C3F8002486
:108EA0000022C3F858214FF48002C3F8042370470E
:108EB0000070024070B58878404D00F07F031822A2
:108EC0000C26C4095A4306FB04228E882A44C6F3A2
:108ED0000A061681CA7802F00302012A29D001216C
:108EE000374A01FA03F5D4B903F10C06B140C2F8D0
:108EF0000413D2F8141503F594732943C2F814151A
:108F000042F823402E4BC3F8180540F48070C3F894
:108F10000C05BFF36F8FBFF34F8F012013E00233B7
:108F20009940C2F80413D2F810352B43C2F810351B
:108F3000E8E7082B08D04FF0E023D3F8F03DDB073B
:108F400000D500BE002070BD1D4BDCB9B5F8D420A3
:108F500012B18022C3F81C250022C3F85021D3F897
:108F6000002312F4001208BFC3F85421144B4FF42D
:108F70004012C3F80423D3F8142542F48072C3F8D6
:108F80001425BFE70022C3F82C21B5F8C82012B180
:108F90008022C3F81C25D3F8002312F4001208BF66
:108FA000C3F85421064B074AC3F80423D3F810250D
:108FB00042F48072C3F81025A4E700BF98AF0020E8
:108FC00000700240000820001D4B2DE9F041802276
